{
    "data": {
        "bytecode": {
            "linkReferences": {},
            "object": "60806040523480156200001157600080fd5b5060405162006ad338038062006ad3833981810160405260208110156200003757600080fd5b5051604080518082018252600c81526b4d6f6f6e53686f74426f747360a01b6020828101919091528251808401909352600383526226a9a160e91b9083015290620000896301ffc9a760e01b620041f8565b81516200009e90600690602085019062004296565b508051620000b490600790602084019062004296565b50620000c76380ac58cd60e01b620041f8565b620000d9635b5e139f60e01b620041f8565b620000eb63780e9d6360e01b620041f8565b50506200011160405180608001604052806056815260200162006a2d605691396200427d565b604051806125e001604052806040518060400160405280601281526020017129bab832b934b7b92fabb4b5b4973539b7b760711b81525081526020016040518060400160405280601a81526020017f486f6d656c795f576f72645f70726f636573736f722e6a736f6e00000000000081525081526020016040518060400160405280601181526020017020b1393ab83a2fa830b9ba32973539b7b760791b815250815260200160405180604001604052806011815260200170243ab733b93cafa4b73137bc173539b7b760791b81525081526020016040518060400160405280601381526020017f4163696469635f4469676974616c2e6a736f6e0000000000000000000000000081525081526020016040518060400160405280601381526020017f48756e6772795f57696e646f77732e6a736f6e0000000000000000000000000081525081526020016040518060400160405280601581526020017f41646f7261626c655f4d616c776172652e6a736f6e000000000000000000000081525081526020016040518060400160405280600d81526020016c243ab93a2fa0b838173539b7b760991b81525081526020016040518060400160405280601681526020017f41646f7261626c655f506c6174666f726d2e6a736f6e0000000000000000000081525081526020016040518060400160405280600d81526020016c243ab93a2fa13ab3973539b7b760991b81525081526020016040518060400160405280601581526020017f416476656e7475726f75735f4861636b2e6a736f6e000000000000000000000081525081526020016040518060400160405280600e81526020016d243ab93a2fa13cba32973539b7b760911b81525081526020016040518060400160405280601681526020017f416767726573736976655f4b65726e656c2e6a736f6e00000000000000000000815250815260200160405180604001604052806011815260200170243ab93a2fa9b83cbbb0b932973539b7b760791b81525081526020016040518060400160405280601081526020016f20b632b93a2fa33630b9b4173539b7b760811b81525081526020016040518060400160405280601281526020017124b1bcafa43cb832b93634b735973539b7b760711b81525081526020016040518060400160405280601281526020017120b632b93a2fa83934bb30b1bc973539b7b760711b81525081526020016040518060400160405280601281526020017124b232b0b62fa1b0b83a31b430973539b7b760711b81525081526020016040518060400160405280601581526020017f416c6572745f5374617475735f6261722e6a736f6e000000000000000000000081525081526020016040518060400160405280600f81526020016e24b232b0b62fa737b232973539b7b760891b81525081526020016040518060400160405280600f81526020016e20b637b7b32fa230ba30973539b7b760891b81525081526020016040518060400160405280601281526020017124b6b6b2b739b2afa2b73a32b9173539b7b760711b81525081526020016040518060400160405280601681526020017f416c6f6f665f546578745f656469746f722e6a736f6e0000000000000000000081525081526020016040518060400160405280601881526020017f496d7072657373696f6e61626c655f537572662e6a736f6e000000000000000081525081526020016040518060400160405280600e81526020016d20b637b7b32faab936173539b7b760911b81525081526020016040518060400160405280601681526020017f496e747269677565645f426c6f676765722e6a736f6e0000000000000000000081525081526020016040518060400160405280601281526020017120b6b4b0b13632afa9b434b33a173539b7b760711b81525081526020016040518060400160405280601781526020017f496e747269677565645f44617461626173652e6a736f6e00000000000000000081525081526020016040518060400160405280601781526020017f416e78696f75735f5374617475735f6261722e6a736f6e00000000000000000081525081526020016040518060400160405280601281526020017124b930ba32afa9b1b0b73732b9173539b7b760711b81525081526020016040518060400160405280601781526020017f417070726568656e736976655f456d61696c2e6a736f6e00000000000000000081525081526020016040518060400160405280601e81526020017f497272697461626c655f436c6f75645f636f6d707574696e672e6a736f6e000081525081526020016040518060400160405280601981526020017f417070726568656e736976655f54656d696e616c2e6a736f6e0000000000000081525081526020016040518060400160405280601281526020017124b93934ba30b13632afac36b6173539b7b760711b81525081526020016040518060400160405280601281526020017120b93937b3b0b73a2fa23739af973539b7b760711b81525081526020016040518060400160405280601c81526020017f49746368795f4e6f7465626f6f6b5f636f6d70757465722e6a736f6e0000000081525081526020016040518060400160405280601381526020017f417368616d65645f4261636b75702e6a736f6e000000000000000000000000008152508152602001604051806040016040528060118152602001702532b0b637bab9afa43a36b6173539b7b760791b81525081526020016040518060400160405280601581526020017f417368616d65645f50617373776f72642e6a736f6e000000000000000000000081525081526020016040518060400160405280601381526020017f4a6974746572795f5363726970742e6a736f6e0000000000000000000000000081525081526020016040518060400160405280601581526020017f417665726167655f506c6174666f726d2e6a736f6e000000000000000000000081525081526020016040518060400160405280601681526020017f4a6f6c6c795f446f6d61696e5f6e616d652e6a736f6e0000000000000000000081525081526020016040518060400160405280601381526020017f417665726167655f526f757465722e6a736f6e0000000000000000000000000081525081526020016040518060400160405280601481526020017f4a6f6c6c795f5265616c2d74696d652e6a736f6e00000000000000000000000081525081526020016040518060400160405280601581526020017f42617474795f43797068657270756e6b2e6a736f6e00000000000000000000008152508152602001604051806040016040528060118152602001702537bcb7bab9afa8bab2bab2973539b7b760791b8152508152602001604051806040016040528060118152602001702132b2b33cafa134b730b93c973539b7b760791b81525081526020016040518060400160405280601481526020017f4a6f796f75735f53656375726974792e6a736f6e000000000000000000000000815250815260200160405180604001604052806011815260200170213630b7322fa237b6b0b4b7173539b7b760791b81525081526020016040518060400160405280601381526020017f4a756963795f54656d706c6174652e6a736f6e0000000000000000000000000081525081526020016040518060400160405280601581526020017f426c757368696e675f4d616c776172652e6a736f6e0000000000000000000000815250815260200160405180604001604052806011815260200170253ab6b83cafabb4b233b2ba173539b7b760791b81525081526020016040518060400160405280601681526020017f426c757368696e675f506c6174666f726d2e6a736f6e0000000000000000000081525081526020016040518060400160405280601081526020016f25b4b7322fa1b216b937b6973539b7b760811b81525081526020016040518060400160405280601581526020017f426c757368696e675f53746f726167652e6a736f6e000000000000000000000081525081526020016040518060400160405280601b81526020017f4c61636b61646169736963616c5f5068697368696e672e6a736f6e000000000081525081526020016040518060400160405280601381526020017f4272696768745f4c6f675f6f75742e6a736f6e0000000000000000000000000081525081526020016040518060400160405280601a81526020017f4c61636b61646169736963616c5f57696e646f77732e6a736f6e00000000000081525081526020016040518060400160405280600f81526020016e213937b0b22fa9b0bb32973539b7b760891b81525081526020016040518060400160405280601681526020017f4c61636b61646169736963616c5f5a69702e6a736f6e0000000000000000000081525081526020016040518060400160405280601481526020017f4275726c795f436f6e6669677572652e6a736f6e00000000000000000000000081525081526020016040518060400160405280601081526020016f2630b933b2afa634b73abc173539b7b760811b81525081526020016040518060400160405280601281526020017121b432b2b5bcafa430b1b5b2b9173539b7b760711b81525081526020016040518060400160405280601081526020016f2630b933b2afaa30b13632973539b7b760811b81525081526020016040518060400160405280601081526020016f21b432b2b5bcafa9b830b6973539b7b760811b81525081526020016040518060400160405280600f81526020016e2630b933b2afaab73237973539b7b760891b81525081526020016040518060400160405280601181526020017021b63ab2b632b9b9afa0b838173539b7b760791b81525081526020016040518060400160405280601681526020017f4c6976656c795f5363726f6c6c5f6261722e6a736f6e0000000000000000000081525081526020016040518060400160405280601e81526020017f436c75656c6573735f4f7065726174696e675f73797374656d2e6a736f6e000081525081526020016040518060400160405280601481526020017f4c6976656c795f54656d706c6174652e6a736f6e00000000000000000000000081525081526020016040518060400160405280601981526020017f436f6c6f7266756c5f446576656c6f706d656e742e6a736f6e0000000000000081525081526020016040518060400160405280600e81526020016d263ab1b5bcafaa30b3973539b7b760911b81525081526020016040518060400160405280601381526020017f436f6c6f7266756c5f456d61696c2e6a736f6e0000000000000000000000000081525081526020016040518060400160405280600f81526020016e26b0b1b437afa134ba32973539b7b760891b81525081526020016040518060400160405280601681526020017f436f6d6261746976655f4c6f675f6f75742e6a736f6e0000000000000000000081525081526020016040518060400160405280601881526020017f4d61676e69666963656e745f436170746368612e6a736f6e000000000000000081525081526020016040518060400160405280601881526020017f436f6d6261746976655f5368617265776172652e6a736f6e000000000000000081525081526020016040518060400160405280601281526020017126b0b734b0b1b0b62fa23739af973539b7b760711b81525081526020016040518060400160405280601881526020017f436f6e64656d6e65645f42616e6477696474682e6a736f6e000000000000000081525081526020016040518060400160405280601281526020017126b0b734b0b1b0b62fa9b1b0b7173539b7b760711b81525081526020016040518060400160405280601681526020017f436f6e64656d6e65645f4b6579776f72642e6a736f6e0000000000000000000081525081526020016040518060400160405280601481526020017f4d6173736976655f42726f777365722e6a736f6e00000000000000000000000081525081526020016040518060400160405280601981526020017f436f6e64657363656e64696e675f4b65726e656c2e6a736f6e0000000000000081525081526020016040518060400160405280601481526020017f4d6173736976655f436170746368612e6a736f6e00000000000000000000000081525081526020016040518060400160405280601981526020017f436f6e64657363656e64696e675f5177657274792e6a736f6e0000000000000081525081526020016040518060400160405280601281526020017126b0b9b9b4bb32afa637b3b4b7173539b7b760711b81525081526020016040518060400160405280601c81526020017f436f6e74656d706c61746976655f44617368626f6172642e6a736f6e0000000081525081526020016040518060400160405280601481526020017f4d6173736976655f4f66666c696e652e6a736f6e00000000000000000000000081525081526020016040518060400160405280601581526020017f436f6e76696e63696e675f466c6173682e6a736f6e000000000000000000000081525081526020016040518060400160405280601681526020017f4d656c616e63686f6c795f4275666665722e6a736f6e0000000000000000000081525081526020016040518060400160405280601781526020017f436f6e76696e63696e675f4c75726b696e672e6a736f6e00000000000000000081525081526020016040518060400160405280601381526020017f4d656c616e63686f6c795f4275732e6a736f6e0000000000000000000000000081525081526020016040518060400160405280601981526020017f436f6f70657261746976655f436f6d70757465722e6a736f6e0000000000000081525081526020016040518060400160405280601981526020017f4d656c616e63686f6c795f53686966745f6b65792e6a736f6e0000000000000081525081526020016040518060400160405280601781526020017f436f6f70657261746976655f53637265656e2e6a736f6e00000000000000000081525081526020016040518060400160405280601381526020017f4d696e6961747572655f4a6176612e6a736f6e0000000000000000000000000081525081526020016040518060400160405280601381526020017f436f726e795f496e7465726e65742e6a736f6e0000000000000000000000000081525081526020016040518060400160405280600f81526020016e26b4b9ba3cafa23930b3973539b7b760891b81525081526020016040518060400160405280601681526020017f436f726e795f4d6f74686572626f6172642e6a736f6e0000000000000000000081525081526020016040518060400160405280600e81526020016d26b4b9ba3cafad34b8173539b7b760911b81525081526020016040518060400160405280601181526020017021b930b1313cafa6b0b1b937973539b7b760791b81525081526020016040518060400160405280601181526020017026bab2323cafa130b1b5bab8173539b7b760791b81525081526020016040518060400160405280601281526020017121b937b7b5b2b22fab34b93ab9973539b7b760711b8152508152602001604051806040016040528060128152602001712730b93937bbafa430b1b5b2b9173539b7b760711b81525081526020016040518060400160405280600f81526020016e21b93ab2b62fa23739af973539b7b760891b81525081526020016040518060400160405280601581526020017f4e6172726f775f4879706572746578742e6a736f6e000000000000000000000081525081526020016040518060400160405280601481526020017f43756d626572736f6d655f576f726d2e6a736f6e00000000000000000000000081525081526020016040518060600160405280602b815260200162006aa8602b9139815260408051808201825260148082527f43796e6963616c5f4465736b746f702e6a736f6e00000000000000000000000060208381019190915280850192909252825180840184526011808252702730b9ba3cafa834b930ba32973539b7b760791b82850152848601919091528351808501855260158082527f44617368696e675f436c69705f6172742e6a736f6e0000000000000000000000828601526060808801929092528551808701875260138082527f4e6175676874795f4261636b75702e6a736f6e0000000000000000000000000082880152608089019190915286518088018852848152702230b9b434b733afa1b83aaf973539b7b760791b8188015260a0890152865180880188526012808252712730bab3b43a3cafa637b3b4b1973539b7b760711b8289015260c08a01919091528751808901895260188082527f44617368696e675f446174615f6d696e696e672e6a736f6e0000000000000000828a015260e08b01919091528851808a018a528481527f4e6175676874795f576972656c6573732e6a736f6e0000000000000000000000818a01526101008b01528851808a018a5260168082527f44617368696e675f496e746572666163652e6a736f6e00000000000000000000828b01526101208c01919091528951808b018b52878152702732b93b37bab9afa43a36b6173539b7b760791b818b01526101408c01528951808b018b52838152712232b1b2b4ba333ab62fa13ab9973539b7b760711b818b01526101608c01528951808b018b5260178082527f4e6f6e6368616c616e745f4c6f675f6f75742e6a736f6e000000000000000000828c01526101808d01919091528a51808c018c528281527f44656365697466756c5f4c6f675f6f75742e6a736f6e00000000000000000000818c01526101a08d01528a51808c018c528181527f4e6f6e73656e736963616c5f4261636b75702e6a736f6e000000000000000000818c01526101c08d01528a51808c018c52938452712232b332b0ba32b22fa437b9ba173539b7b760711b848b01526101e08c01939093528951808b018b52601981527f4e6f6e73656e736963616c5f47696761627974652e6a736f6e00000000000000818b01526102008c01528951808b018b528581527f44656c6963696f75735f5769646765742e6a736f6e0000000000000000000000818b01526102208c01528951808b018b52601b81527f4e7574726974696f75735f466c6173685f64726976652e6a736f6e0000000000818b01526102408c01528951808b018b528481527f44656c6967687466756c5f4170702e6a736f6e00000000000000000000000000818b01526102608c01528951808b018b528481527f4f64645f436c69705f626f6172642e6a736f6e00000000000000000000000000818b01526102808c01528951808b018b529182527f44656c6967687466756c5f44617461626173652e6a736f6e0000000000000000828a01526102a08b01919091528851808a018a528681527027b2322fa3b4b3b0b13cba32973539b7b760791b818a01526102c08b01528851808a018a529081527f44656c6967687466756c5f4861636b65722e6a736f6e00000000000000000000818901526102e08a015287518089018952601c81527f4f6c642d66617368696f6e65645f42726f616462616e642e6a736f6e00000000818901526103008a015287518089018952858152702234b9ba34b731ba2faab936173539b7b760791b818901526103208a0152875180890189529586527f50616e69636b795f4b6579776f72642e6a736f6e0000000000000000000000008688015261034089019590955286518088018852601a81527f4469737475726265645f446f6d61696e5f6e616d652e6a736f6e0000000000008188015261036089015286518088018852848152702830b734b1b5bcafaab9b2b9173539b7b760791b818801526103808901528651808801885260108082526f22b0b3b2b92fa33930b6b2973539b7b760811b828901526103a08a0191909152875180890189529081526f2832ba34ba32afabb7b936973539b7b760811b818801526103c0890152865180880188528281527f45637374617469635f56657273696f6e2e6a736f6e0000000000000000000000818801526103e0890152865180880188528181527f50657474795f436c69705f6172742e6a736f6e0000000000000000000000000081880152610400890152865180880188528481527022b1b9ba30ba34b1afad34b8173539b7b760791b8188015261042089015286518088018852600d81526c283630b4b72fa1b2173539b7b760991b8188015261044089015286518088018852600f81526e22b630ba32b22fa13ab3973539b7b760891b81880152610460890152865180880188528181527f506c61696e5f4669726d776172652e6a736f6e0000000000000000000000000081880152610480890152865180880188529485527f456c617465645f446174615f6d696e696e672e6a736f6e000000000000000000858701526104a0880194909452855180870187528181527f506c61696e5f4d756c74696d656469612e6a736f6e0000000000000000000000818701526104c0880152855180870187528381527022b632b3b0b73a2fabb4b5b4973539b7b760791b818701526104e0880152855180870187529081527f506c656173616e745f466c616d696e672e6a736f6e000000000000000000000081860152610500870152845180860186529283527f456d616369617465645f506167652e6a736f6e00000000000000000000000000838501526105208601929092528351808501855290815270283632b0b9b0b73a2faa30b3973539b7b760791b8184015261054085015282519081019092526025808352610560909301929062006a83908301398152602001604051806040016040528060118152602001702837b4b9b2b22fa9b432b636173539b7b760791b81525081526020016040518060400160405280601781526020017f456d6261727261737365645f5365727665722e6a736f6e00000000000000000081525081526020016040518060400160405280601881526020017f506f697365645f54726f6a616e5f686f7273652e6a736f6e000000000000000081525081526020016040518060400160405280601781526020017f456e6368616e74696e675f507269766163792e6a736f6e00000000000000000081525081526020016040518060400160405280601081526020016f2837b4b9b2b22faab9b2b9173539b7b760811b81525081526020016040518060400160405280601681526020017f456e6f726d6f75735f54656d706c6174652e6a736f6e0000000000000000000081525081526020016040518060400160405280601681526020017f50726563696f75735f436f6d70757465722e6a736f6e0000000000000000000081525081526020016040518060400160405280601681526020017f456e746875736961737469635f4469736b2e6a736f6e0000000000000000000081525081526020016040518060400160405280601381526020017f50726563696f75735f4c6f6769632e6a736f6e0000000000000000000000000081525081526020016040518060400160405280601881526020017f45786173706572617465645f456e63727970742e6a736f6e000000000000000081525081526020016040518060400160405280601a81526020017f507269636b6c795f5375706572636f6d70757465722e6a736f6e00000000000081525081526020016040518060400160405280601781526020017f45786173706572617465645f46696e6465722e6a736f6e000000000000000000815250815260200160405180604001604052806012815260200171283937bab22fa9ba37b930b3b2973539b7b760711b81525081526020016040518060400160405280601381526020017f457863697465645f4861636b65722e6a736f6e0000000000000000000000000081525081526020016040518060400160405280601881526020017f50756e67656e745f466c6f7070795f6469736b2e6a736f6e000000000000000081525081526020016040518060400160405280601681526020017f457863697465645f486f6d655f706167652e6a736f6e0000000000000000000081525081526020016040518060400160405280601081526020016f283ab73cafa6b4b93937b9173539b7b760811b81525081526020016040518060400160405280601681526020017f457874656e736976655f506c75672d696e2e6a736f6e0000000000000000000081525081526020016040518060400160405280600f81526020016e28bab0b4b73a2fa13ab9973539b7b760891b81525081526020016040518060400160405280601881526020017f457875626572616e745f42726f616462616e642e6a736f6e000000000000000081525081526020016040518060400160405280601181526020017028bab0b4b73a2fa9b432b636173539b7b760791b81525081526020016040518060400160405280601581526020017f457875626572616e745f4b65726e656c2e6a736f6e000000000000000000000081525081526020016040518060400160405280601681526020017f5175697a7a6963616c5f537079776172652e6a736f6e0000000000000000000081525081526020016040518060400160405280601481526020017f46616e7461737469635f4c696e75782e6a736f6e00000000000000000000000081525081526020016040518060400160405280601581526020017f526570756c736976655f416e616c6f672e6a736f6e000000000000000000000081525081526020016040518060400160405280601981526020017f46616e7461737469635f53637265656e73686f742e6a736f6e0000000000000081525081526020016040518060400160405280601681526020017f526573706f6e736976655f4b65726e656c2e6a736f6e0000000000000000000081525081526020016040518060400160405280601081526020016f233630ba2fa837b93a30b6173539b7b760811b81525081526020016040518060400160405280601681526020017f526573706f6e736976655f4f75747075742e6a736f6e0000000000000000000081525081526020016040518060400160405280601b81526020017f466c6f7070795f436c6f75645f636f6d707574696e672e6a736f6e000000000081525081526020016040518060400160405280601581526020017f526573706f6e736976655f5368656c6c2e6a736f6e000000000000000000000081525081526020016040518060400160405280601581526020017f466c6f7070795f496e746572666163652e6a736f6e000000000000000000000081525081526020016040518060400160405280601381526020017f526573706f6e736976655f5461672e6a736f6e0000000000000000000000000081525081526020016040518060400160405280601781526020017f466c7574746572696e675f496e74656765722e6a736f6e00000000000000000081525081526020016040518060400160405280601581526020017f526f627573745f496e746572666163652e6a736f6e000000000000000000000081525081526020016040518060400160405280601681526020017f466c7574746572696e675f55706c6f61642e6a736f6e000000000000000000008152508152602001604051806040016040528060118152602001702937bab7322fa334b73232b9173539b7b760791b81525081526020016040518060400160405280601381526020017f466f6f6c6973685f4b65726e656c2e6a736f6e0000000000000000000000000081525081526020016040518060400160405280601381526020017f526f756e645f557365726e616d652e6a736f6e0000000000000000000000000081525081526020016040518060400160405280601481526020017f466f6f6c6973685f4e6574776f726b2e6a736f6e00000000000000000000000081525081526020016040518060400160405280601581526020017f53616c74795f43796265726372696d652e6a736f6e0000000000000000000000815250815260200160405180604001604052806011815260200170233930b73a34b1afa530bb30973539b7b760791b81525081526020016040518060400160405280601481526020017f53616c74795f53686966745f6b65792e6a736f6e00000000000000000000000081525081526020016040518060400160405280601681526020017f46726573685f446f6d61696e5f6e616d652e6a736f6e0000000000000000000081525081526020016040518060400160405280601681526020017f5361726361737469635f4465736b746f702e6a736f6e00000000000000000000815250815260200160405180604001604052806011815260200170233932b9b42fa630b83a37b8173539b7b760791b81525081526020016040518060400160405280601381526020017f5361726361737469635f536176652e6a736f6e0000000000000000000000000081525081526020016040518060400160405280601381526020017f46726573685f50617373776f72642e6a736f6e0000000000000000000000000081525081526020016040518060400160405280601181526020017029b1b0b93cafa937baba32b9173539b7b760791b81525081526020016040518060400160405280600e81526020016d233932b9b42fa930b6973539b7b760911b81525081526020016040518060400160405280601181526020017029b430b5bcafa7baba383aba173539b7b760791b81525081526020016040518060400160405280601481526020017f46726573685f5368617265776172652e6a736f6e00000000000000000000000081525081526020016040518060400160405280601181526020017029b430b63637bbafa634b735973539b7b760791b81525081526020016040518060400160405280601481526020017f4672757374726174696e675f4275672e6a736f6e00000000000000000000000081525081526020016040518060400160405280600e81526020016d29b4b635bcafa237ba173539b7b760911b815250815260200160405180604001604052806011815260200170233ab7373cafa134ba36b0b8173539b7b760791b81525081526020016040518060400160405280601581526020017f53696c6b795f53637265656e73686f742e6a736f6e000000000000000000000081525081526020016040518060400160405280601481526020017f46756e6e795f5265616c2d74696d652e6a736f6e00000000000000000000000081525081526020016040518060400160405280601081526020016f29b4b635bcafaa3930b9b4173539b7b760811b815250815260200160405180604001604052806011815260200170233abd3d3cafa13ab33332b9173539b7b760791b81525081526020016040518060400160405280601181526020017029b634b6bcafa8bbb2b93a3c973539b7b760791b815250815260200160405180604001604052806012815260200171233abd3d3cafab34b93a3ab0b6173539b7b760711b81525081526020016040518060400160405280601381526020017f536d616c6c5f496e7465726e65742e6a736f6e0000000000000000000000000081525081526020016040518060400160405280601681526020017f47617564795f446174615f6d696e696e672e6a736f6e0000000000000000000081525081526020016040518060400160405280600f81526020016e29b6b0b6362fa830ba34173539b7b760891b81525081526020016040518060400160405280601381526020017f47656e746c655f4d616c776172652e6a736f6e0000000000000000000000000081525081526020016040518060400160405280601381526020017f536d61726d795f44796e616d69632e6a736f6e0000000000000000000000000081525081526020016040518060400160405280601581526020017f47686173746c795f4a6f79737469636b2e6a736f6e000000000000000000000081525081526020016040518060400160405280601381526020017f536d6f6767795f4d6f6e69746f722e6a736f6e0000000000000000000000000081525081526020016040518060400160405280601481526020017f47686173746c795f506f64636173742e6a736f6e00000000000000000000000081525081526020016040518060400160405280600f81526020016e29b7b3b3bcafa937b7ba173539b7b760891b81525081526020016040518060400160405280601381526020017f47686173746c795f506f702d75702e6a736f6e0000000000000000000000000081525081526020016040518060400160405280600f81526020016e29b7bab92fa830b9ba32973539b7b760891b81525081526020016040518060400160405280601781526020017f47686173746c795f5374617475735f6261722e6a736f6e00000000000000000081525081526020016040518060400160405280601081526020016f29b834b1bcafa0b93930bc973539b7b760811b81525081526020016040518060400160405280601481526020017f47686173746c795f56657273696f6e2e6a736f6e00000000000000000000000081525081526020016040518060400160405280601381526020017f53706963795f44617461626173652e6a736f6e0000000000000000000000000081525081526020016040518060400160405280601381526020017f47696464795f436f6d70757465722e6a736f6e0000000000000000000000000081525081526020016040518060400160405280601381526020017f5374616c655f446f776e6c6f61642e6a736f6e0000000000000000000000000081525081526020016040518060400160405280601181526020017023b4b2323cafa630b83a37b8173539b7b760791b81525081526020016040518060400160405280601181526020017029ba32b0b23cafa6b7b232b6973539b7b760791b81525081526020016040518060400160405280601181526020017023b4b3b0b73a34b1afa13ab3973539b7b760791b81525081526020016040518060400160405280601381526020017f5374656164795f507269766163792e6a736f6e0000000000000000000000000081525081526020016040518060400160405280601581526020017f476967616e7469635f4c6f675f6f75742e6a736f6e000000000000000000000081525081526020016040518060400160405280601081526020016f29ba34b1b5bcafa337b73a173539b7b760811b81525081526020016040518060400160405280601681526020017f476c616d6f726f75735f4465736b746f702e6a736f6e0000000000000000000081525081526020016040518060400160405280600f81526020016e29ba37b936bcafaab936173539b7b760891b81525081526020016040518060400160405280601281526020017123b632b0b6b4b733afa13cba32973539b7b760711b81525081526020016040518060400160405280601a81526020017f53746f75745f436c6f75645f636f6d707574696e672e6a736f6e00000000000081525081526020016040518060400160405280601581526020017f476c65616d696e675f50726f636573732e6a736f6e000000000000000000000081525081526020016040518060400160405280601881526020017f5374756e6e696e675f50726f6772616d6d65722e6a736f6e000000000000000081525081526020016040518060400160405280601281526020017123b632b0b6b4b733afa9b1b0b7173539b7b760711b81525081526020016040518060400160405280601881526020017f5375627374616e7469616c5f4d6f6e69746f722e6a736f6e000000000000000081525081526020016040518060400160405280601581526020017f476c6f72696f75735f496e74656765722e6a736f6e000000000000000000000081525081526020016040518060400160405280601381526020017f53756363756c656e745f49636f6e2e6a736f6e0000000000000000000000000081525081526020016040518060400160405280601881526020017f476c6f72696f75735f50726f6772616d6d65722e6a736f6e000000000000000081525081526020016040518060400160405280601681526020017f537570657266696369616c5f41727261792e6a736f6e0000000000000000000081525081526020016040518060400160405280601481526020017f476f7267656f75735f5069726163792e6a736f6e00000000000000000000000081525081526020016040518060400160405280601681526020017f477261636566756c5f53656375726974792e6a736f6e0000000000000000000081525081526020016040518060400160405280601881526020017f5377616e6b795f54726f6a616e5f686f7273652e6a736f6e000000000000000081525081526020016040518060400160405280601681526020017f477261636566756c5f536f6674776172652e6a736f6e0000000000000000000081525081526020016040518060400160405280600f81526020016e29bbb2b2ba2fa437b9ba173539b7b760891b81525081526020016040518060400160405280600f81526020016e23b932b0b9bcafa13ab9973539b7b760891b81525081526020016040518060400160405280600e81526020016d2a30b9ba3cafaab936173539b7b760911b81525081526020016040518060400160405280601381526020017f4772656173795f4469676974616c2e6a736f6e000000000000000000000000008152508152602001604051806040016040528060128152602001712a32b739b2afa13637b3b3b2b9173539b7b760711b81525081526020016040518060400160405280601681526020017f4772696576696e675f46726565776172652e6a736f6e0000000000000000000081525081526020016040518060400160405280601781526020017f5465727269626c655f53686966745f6b65792e6a736f6e00000000000000000081525081526020016040518060400160405280601781526020017f47726f7465737175655f436c69705f6172742e6a736f6e00000000000000000081525081526020016040518060400160405280601581526020017f54686f756768746c6573735f48746d6c2e6a736f6e000000000000000000000081525081526020016040518060400160405280601781526020017f47726f7465737175655f50617373776f72642e6a736f6e00000000000000000081525081526020016040518060400160405280601081526020016f2ab732bb32b72fa9b830b6973539b7b760811b81525081526020016040518060400160405280601481526020017f4772756262795f436f6d70757465722e6a736f6e00000000000000000000000081525081526020016040518060400160405280601781526020017f556e6576656e5f576f726b73746174696f6e2e6a736f6e00000000000000000081525081526020016040518060400160405280601181526020017023b93ab1313cafa6b2b234b0973539b7b760791b81525081526020016040518060400160405280601581526020017f556e73696768746c795f4261636b75702e6a736f6e000000000000000000000081525081526020016040518060400160405280601081526020016f23b93ab6b83cafa134ba32973539b7b760811b81525081526020016040518060400160405280601681526020017f556e73696768746c795f4e6574776f726b2e6a736f6e0000000000000000000081525081526020016040518060400160405280601281526020017123b93ab6b83cafa9b1b934b83a173539b7b760711b81525081526020016040518060400160405280601d81526020017f556e73696768746c795f576f72645f70726f636573736f722e6a736f6e00000081525081526020016040518060400160405280601381526020017f4772756d70795f54656d696e616c2e6a736f6e000000000000000000000000008152508152602001604051806040016040528060128152602001712ab839b2ba2fa93ab73a34b6b2973539b7b760711b81525081526020016040518060400160405280600f81526020016e23b93ab6b83cafaab936173539b7b760891b81525081526020016040518060400160405280601481526020017f557074696768745f526573746f72652e6a736f6e0000000000000000000000008152508152602001604051806040016040528060128152602001712430b73239b7b6b2afabb7b936973539b7b760711b81525081526020016040518060400160405280601881526020017f557074696768745f546578745f656469746f722e6a736f6e00000000000000008152508152602001604051806040016040528060118152602001702430b8383cafa232b632ba32973539b7b760791b81525081526020016040518060400160405280601981526020017f566173745f436c6f75645f636f6d707574696e672e6a736f6e0000000000000081525081526020016040518060400160405280600f81526020016e2430b8383cafa23930b3973539b7b760891b8152508152602001604051806040016040528060118152602001702b30b9ba2fa1b7b6b834b632973539b7b760791b81525081526020016040518060400160405280601081526020016f2430b8383cafa6b0b1b937973539b7b760811b81525081526020016040518060400160405280601a81526020017f566963746f72696f75735f437962657273706163652e6a736f6e00000000000081525081526020016040518060400160405280601781526020017f4865616c7468795f456e6372797074696f6e2e6a736f6e00000000000000000081525081526020016040518060400160405280601b81526020017f566963746f72696f75735f4d6f74686572626f6172642e6a736f6e000000000081525081526020016040518060400160405280601481526020017f48656c7066756c5f56657273696f6e2e6a736f6e0000000000000000000000008152508152602001604051806040016040528060128152602001712b34bb30b1b4b7bab9afa13ab3973539b7b760711b81525081526020016040518060400160405280601781526020017f48656c706c6573735f466c6f7763686172742e6a736f6e00000000000000000081525081526020016040518060400160405280601681526020017f56697669645f446f6d61696e5f6e616d652e6a736f6e0000000000000000000081525081526020016040518060400160405280601481526020017f48656c706c6573735f4c6170746f702e6a736f6e00000000000000000000000081525081526020016040518060400160405280600f81526020016e2bb0b1b5bcafa1b83aaf973539b7b760891b81525081526020016040518060400160405280601481526020017f48656c706c6573735f5069726174652e6a736f6e00000000000000000000000081525081526020016040518060400160405280601081526020016f2bb0b1b5bcafa637b3b4b1973539b7b760811b81525081526020016040518060400160405280601381526020017f48656c706c6573735f5368656c6c2e6a736f6e0000000000000000000000000081525081526020016040518060400160405280601581526020017f5768696d736963616c5f5069726174652e6a736f6e000000000000000000000081525081526020016040518060400160405280602081526020017f486967685f526f6d5f5f726561645f6f6e6c795f6d656d6f72795f2e6a736f6e81525081526020016040518060400160405280601481526020017f57686f7070696e675f53637265656e2e6a736f6e00000000000000000000000081525081526020016040518060400160405280601581526020017f486f6c6c6f775f496e746572666163652e6a736f6e000000000000000000000081525081526020016040518060400160405280601781526020017f5769636b65645f446576656c6f706d656e742e6a736f6e0000000000000000008152508152602001604051806040016040528060128152602001712437b63637bbafa5b2b93732b6173539b7b760711b81525081526020016040518060400160405280600f81526020016e2bb4b1b5b2b22fa5b2bc973539b7b760891b81525081526020016040518060400160405280601381526020017f486f6c6c6f775f5370616d6d65722e6a736f6e000000000000000000000000008152508152602001604051806040016040528060128152602001712bb4b1b5b2b22fa7b73634b732973539b7b760711b815250815250600d9061012f620040959291906200431b565b50600a80546001600160a01b0319166001600160a01b038316178155600b556040805160e081018252600660a0820181815265686f6f64696560d01b60c0840152825282518084018452908152651a9858dad95d60d21b6020808301919091528083019190915282518084018452600781526620706c7573687960c81b81830152828401528251808401845260038082526206375760ec1b82840152606084019190915283518085019094528352621a185d60ea1b908301526080810191909152660bb9551fc2400090680340aad21b3b700000906200417a90600e9060056200437b565b506040518060a0016040528083815260200183815260200183815260200183815260200183815250600f906005620041b4929190620043cd565b506040518060a00160405280828152602001828152602001828152602001828152602001828152506010906005620041ee929190620043cd565b505050506200448d565b6001600160e01b0319808216141562004258576040805162461bcd60e51b815260206004820152601c60248201527f4552433136353a20696e76616c696420696e7465726661636520696400000000604482015290519081900360640190fd5b6001600160e01b0319166000908152602081905260409020805460ff19166001179055565b80516200429290600990602084019062004296565b5050565b828054600181600116156101000203166002900490600052602060002090601f016020900481019282601f10620042d957805160ff191683800117855562004309565b8280016001018555821562004309579182015b8281111562004309578251825591602001919060010190620042ec565b50620043179291506200440a565b5090565b8280548282559060005260206000209081019282156200436d579160200282015b828111156200436d57825180516200435c91849160209091019062004296565b50916020019190600101906200433c565b506200431792915062004421565b8280548282559060005260206000209081019282156200436d579160200282015b828111156200436d5782518051620043bc91849160209091019062004296565b50916020019190600101906200439c565b82805482825590600052602060002090810192821562004309579160200282018281111562004309578251825591602001919060010190620042ec565b5b808211156200431757600081556001016200440b565b808211156200431757600062004438828262004442565b5060010162004421565b50805460018160011615610100020316600290046000825580601f106200446a57506200448a565b601f0160209004906000526020600020908101906200448a91906200440a565b50565b612590806200449d6000396000f3fe6080604052600436106101b75760003560e01c80636352211e116100ec578063ac7808d81161008a578063c87b56dd11610064578063c87b56dd14610707578063db65aa1914610731578063e985e9c51461075b578063ff322ba114610796576101b7565b8063ac7808d8146105f5578063b88d4fde1461061f578063c7a82420146106f2576101b7565b8063776cf2af116100c6578063776cf2af1461056657806395d89b4114610590578063a22cb465146105a5578063a4d66daf146105e0576101b7565b80636352211e146104f45780636c0360eb1461051e57806370a0823114610533576101b7565b806318160ddd116101595780632f745c59116101335780632f745c5914610424578063393b45081461045d57806342842e0e146104875780634f6ccce7146104ca576101b7565b806318160ddd1461038d5780631f8a9d05146103a257806323b872dd146103e1576101b7565b80630751d4d1116101955780630751d4d1146102d7578063081812fc146102fe578063095ea7b3146103285780631160846b14610363576101b7565b806301ffc9a7146101bc57806305f02ff21461021c57806306fdde031461024d575b600080fd5b3480156101c857600080fd5b50610208600480360360208110156101df57600080fd5b50357fffffffff00000000000000000000000000000000000000000000000000000000166107c2565b604080519115158252519081900360200190f35b34801561022857600080fd5b506102316107fd565b604080516001600160a01b039092168252519081900360200190f35b34801561025957600080fd5b50610262610815565b6040805160208082528351818301528351919283929083019185019080838360005b8381101561029c578181015183820152602001610284565b50505050905090810190601f1680156102c95780820380516001836020036101000a031916815260200191505b509250505060405180910390f35b3480156102e357600080fd5b506102ec6108ab565b60408051918252519081900360200190f35b34801561030a57600080fd5b506102316004803603602081101561032157600080fd5b50356108b1565b34801561033457600080fd5b506103616004803603604081101561034b57600080fd5b506001600160a01b038135169060200135610913565b005b34801561036f57600080fd5b506102ec6004803603602081101561038657600080fd5b50356109ee565b34801561039957600080fd5b506102ec610a0c565b3480156103ae57600080fd5b50610361600480360360608110156103c557600080fd5b508035906001600160a01b036020820135169060400135610a1d565b3480156103ed57600080fd5b506103616004803603606081101561040457600080fd5b506001600160a01b03813581169160208101359091169060400135610c5d565b34801561043057600080fd5b506102ec6004803603604081101561044757600080fd5b506001600160a01b038135169060200135610cb4565b34801561046957600080fd5b506102626004803603602081101561048057600080fd5b5035610cdf565b34801561049357600080fd5b50610361600480360360608110156104aa57600080fd5b506001600160a01b03813581169160208101359091169060400135610d85565b3480156104d657600080fd5b506102ec600480360360208110156104ed57600080fd5b5035610da0565b34801561050057600080fd5b506102316004803603602081101561051757600080fd5b5035610db6565b34801561052a57600080fd5b50610262610dde565b34801561053f57600080fd5b506102ec6004803603602081101561055657600080fd5b50356001600160a01b0316610e3f565b34801561057257600080fd5b506102ec6004803603602081101561058957600080fd5b5035610ea7565b34801561059c57600080fd5b50610262610eb4565b3480156105b157600080fd5b50610361600480360360408110156105c857600080fd5b506001600160a01b0381351690602001351515610f15565b3480156105ec57600080fd5b506102ec61101a565b34801561060157600080fd5b506102ec6004803603602081101561061857600080fd5b5035611020565b34801561062b57600080fd5b506103616004803603608081101561064257600080fd5b6001600160a01b0382358116926020810135909116916040820135919081019060808101606082013564010000000081111561067d57600080fd5b82018360208201111561068f57600080fd5b803590602001918460018302840111640100000000831117156106b157600080fd5b91908080601f01602080910402602001604051908101604052809392919081815260200183838082843760009201919091525092955061104d945050505050565b3480156106fe57600080fd5b506102316110ab565b34801561071357600080fd5b506102626004803603602081101561072a57600080fd5b50356110ba565b34801561073d57600080fd5b506102ec6004803603602081101561075457600080fd5b503561133d565b34801561076757600080fd5b506102086004803603604081101561077e57600080fd5b506001600160a01b038135811691602001351661136b565b610361600480360360408110156107ac57600080fd5b50803590602001356001600160a01b0316611399565b7fffffffff00000000000000000000000000000000000000000000000000000000811660009081526020819052604090205460ff165b919050565b73de21f729137c5af1b01d73af1dc21effa2b8a0d681565b60068054604080516020601f60026000196101006001881615020190951694909404938401819004810282018101909252828152606093909290918301828280156108a15780601f10610876576101008083540402835291602001916108a1565b820191906000526020600020905b81548152906001019060200180831161088457829003601f168201915b5050505050905090565b600b5481565b60006108bc82611528565b6108f75760405162461bcd60e51b815260040180806020018281038252602c815260200180612459602c913960400191505060405180910390fd5b506000908152600460205260409020546001600160a01b031690565b600061091e82610db6565b9050806001600160a01b0316836001600160a01b031614156109715760405162461bcd60e51b81526004018080602001828103825260218152602001806125096021913960400191505060405180910390fd5b806001600160a01b0316610983611535565b6001600160a01b031614806109a457506109a48161099f611535565b61136b565b6109df5760405162461bcd60e51b81526004018080602001828103825260388152602001806123ac6038913960400191505060405180910390fd5b6109e98383611539565b505050565b600f81815481106109fb57fe5b600091825260209091200154905081565b6000610a1860026115bf565b905090565b600060108481548110610a2c57fe5b90600052602060002001549050610a42816115ca565b900380821015610a86576040805162461bcd60e51b815260206004820152600a60248201526909c9ea8408a9c9eaa8e960b31b604482015290519081900360640190fd5b600a54604080517f23b872dd00000000000000000000000000000000000000000000000000000000815233600482015273de21f729137c5af1b01d73af1dc21effa2b8a0d660248201526044810184905290516001600160a01b03909216916323b872dd916064808201926020929091908290030181600087803b158015610b0d57600080fd5b505af1158015610b21573d6000803e3d6000fd5b505050506040513d6020811015610b3757600080fd5b5051610b8a576040805162461bcd60e51b815260206004820152601560248201527f5472616e736665722063616e6479206661696c65640000000000000000000000604482015290519081900360640190fd5b610c3c83600d610b9a600c6115d7565b81548110610ba457fe5b600091825260209182902001805460408051601f6002600019610100600187161502019094169390930492830185900485028101850190915281815292830182828015610c325780601f10610c0757610100808354040283529160200191610c32565b820191906000526020600020905b815481529060010190602001808311610c1557829003601f168201915b50505050506115db565b508060108581548110610c4b57fe5b60009182526020909120015550505050565b610c6e610c68611535565b82611668565b610ca95760405162461bcd60e51b815260040180806020018281038252603181526020018061252a6031913960400191505060405180910390fd5b6109e983838361170c565b6001600160a01b0382166000908152600160205260408120610cd69083611858565b90505b92915050565b600e8181548110610cec57fe5b600091825260209182902001805460408051601f6002600019610100600187161502019094169390930492830185900485028101850190915281815293509091830182828015610d7d5780601f10610d5257610100808354040283529160200191610d7d565b820191906000526020600020905b815481529060010190602001808311610d6057829003601f168201915b505050505081565b6109e98383836040518060200160405280600081525061104d565b600080610dae600284611864565b509392505050565b6000610cd98260405180606001604052806029815260200161240e6029913960029190611880565b60098054604080516020601f60026000196101006001881615020190951694909404938401819004810282018101909252828152606093909290918301828280156108a15780601f10610876576101008083540402835291602001916108a1565b60006001600160a01b038216610e865760405162461bcd60e51b815260040180806020018281038252602a8152602001806123e4602a913960400191505060405180910390fd5b6001600160a01b0382166000908152600160205260409020610cd9906115bf565b601081815481106109fb57fe5b60078054604080516020601f60026000196101006001881615020190951694909404938401819004810282018101909252828152606093909290918301828280156108a15780601f10610876576101008083540402835291602001916108a1565b610f1d611535565b6001600160a01b0316826001600160a01b03161415610f83576040805162461bcd60e51b815260206004820152601960248201527f4552433732313a20617070726f766520746f2063616c6c657200000000000000604482015290519081900360640190fd5b8060056000610f90611535565b6001600160a01b03908116825260208083019390935260409182016000908120918716808252919093529120805460ff191692151592909217909155610fd4611535565b6001600160a01b03167f17307eab39ab6107e8899845ad3d59bd9653f200f220920489ca2b5937696c318360405180821515815260200191505060405180910390a35050565b61012f81565b600080600f838154811061103057fe5b906000526020600020015490506110468161188d565b9392505050565b61105e611058611535565b83611668565b6110995760405162461bcd60e51b815260040180806020018281038252603181526020018061252a6031913960400191505060405180910390fd5b6110a58484848461189b565b50505050565b600a546001600160a01b031681565b60606110c582611528565b6111005760405162461bcd60e51b815260040180806020018281038252602f8152602001806124da602f913960400191505060405180910390fd5b60008281526008602090815260409182902080548351601f60026000196101006001861615020190931692909204918201849004840281018401909452808452606093928301828280156111955780601f1061116a57610100808354040283529160200191611195565b820191906000526020600020905b81548152906001019060200180831161117857829003601f168201915b5050505050905060606111a6610dde565b90508051600014156111ba575090506107f8565b81511561127b5780826040516020018083805190602001908083835b602083106111f55780518252601f1990920191602091820191016111d6565b51815160209384036101000a600019018019909216911617905285519190930192850191508083835b6020831061123d5780518252601f19909201916020918201910161121e565b6001836020036101000a03801982511681845116808217855250505050505090500192505050604051602081830303815290604052925050506107f8565b80611285856118ed565b6040516020018083805190602001908083835b602083106112b75780518252601f199092019160209182019101611298565b51815160209384036101000a600019018019909216911617905285519190930192850191508083835b602083106112ff5780518252601f1990920191602091820191016112e0565b6001836020036101000a0380198251168184511680821785525050505050509050019250505060405160208183030381529060405292505050919050565b6000806010838154811061134d57fe5b90600052602060002001549050611363816115ca565b900392915050565b6001600160a01b03918216600090815260056020908152604080832093909416825291909152205460ff1690565b6000600f83815481106113a857fe5b906000526020600020015490506001811161140a576040805162461bcd60e51b815260206004820152600960248201527f4e4f5420464f554e440000000000000000000000000000000000000000000000604482015290519081900360640190fd5b8034101561144c576040805162461bcd60e51b815260206004820152600a60248201526909c9ea8408a9c9eaa8e960b31b604482015290519081900360640190fd5b6114558161188d565b60405190915060009073de21f729137c5af1b01d73af1dc21effa2b8a0d69034908381818185875af1925050503d80600081146114ae576040519150601f19603f3d011682016040523d82523d6000602084013e6114b3565b606091505b5050905080611509576040805162461bcd60e51b815260206004820152600e60248201527f636f756c64206e6f742073656e64000000000000000000000000000000000000604482015290519081900360640190fd5b61151983600d610b9a600c6115d7565b5081600f8581548110610c4b57fe5b6000610cd96002836119fc565b3390565b600081815260046020526040902080547fffffffffffffffffffffffff0000000000000000000000000000000000000000166001600160a01b038416908117909155819061158682610db6565b6001600160a01b03167f8c5be1e5ebec7d5bd14f71427d1e84f3dd0314c0f7b2291e5b200ac8c7c3b92560405160405180910390a45050565b6000610cd9826115d7565b50670de0b6b3a764000090565b5490565b600061012f6115ea600c6115d7565b1061163c576040805162461bcd60e51b815260206004820152600c60248201527f444f4e45204d494e54494e470000000000000000000000000000000000000000604482015290519081900360640190fd5b611646600c611a08565b6000611652600c6115d7565b905061165e8482611a11565b610cd68184611b3f565b600061167382611528565b6116ae5760405162461bcd60e51b815260040180806020018281038252602c815260200180612380602c913960400191505060405180910390fd5b60006116b983610db6565b9050806001600160a01b0316846001600160a01b031614806116f45750836001600160a01b03166116e9846108b1565b6001600160a01b0316145b806117045750611704818561136b565b949350505050565b826001600160a01b031661171f82610db6565b6001600160a01b0316146117645760405162461bcd60e51b81526004018080602001828103825260298152602001806124b16029913960400191505060405180910390fd5b6001600160a01b0382166117a95760405162461bcd60e51b815260040180806020018281038252602481526020018061235c6024913960400191505060405180910390fd5b6117b48383836109e9565b6117bf600082611539565b6001600160a01b03831660009081526001602052604090206117e19082611ba2565b506001600160a01b03821660009081526001602052604090206118049082611bae565b5061181160028284611bba565b5080826001600160a01b0316846001600160a01b03167fddf252ad1be2c89b69c2b068fc378daa952ba7f163c4a11628f55a4df523b3ef60405160405180910390a4505050565b6000610cd68383611bd0565b60008080806118738686611c34565b9097909650945050505050565b6000611704848484611caf565b6103e8610417919091020490565b6118a684848461170c565b6118b284848484611d79565b6110a55760405162461bcd60e51b815260040180806020018281038252603281526020018061232a6032913960400191505060405180910390fd5b60608161192e575060408051808201909152600181527f300000000000000000000000000000000000000000000000000000000000000060208201526107f8565b8160005b811561194657600101600a82049150611932565b60608167ffffffffffffffff8111801561195f57600080fd5b506040519080825280601f01601f19166020018201604052801561198a576020820181803683370190505b50859350905060001982015b83156119f357600a840660300160f81b828280600190039350815181106119b957fe5b60200101907effffffffffffffffffffffffffffffffffffffffffffffffffffffffffffff1916908160001a905350600a84049350611996565b50949350505050565b6000610cd68383611f23565b80546001019055565b6001600160a01b038216611a6c576040805162461bcd60e51b815260206004820181905260248201527f4552433732313a206d696e7420746f20746865207a65726f2061646472657373604482015290519081900360640190fd5b611a7581611528565b15611ac7576040805162461bcd60e51b815260206004820152601c60248201527f4552433732313a20746f6b656e20616c7265616479206d696e74656400000000604482015290519081900360640190fd5b611ad3600083836109e9565b6001600160a01b0382166000908152600160205260409020611af59082611bae565b50611b0260028284611bba565b5060405181906001600160a01b038416906000907fddf252ad1be2c89b69c2b068fc378daa952ba7f163c4a11628f55a4df523b3ef908290a45050565b611b4882611528565b611b835760405162461bcd60e51b815260040180806020018281038252602c815260200180612485602c913960400191505060405180910390fd5b600082815260086020908152604090912082516109e992840190612274565b6000610cd68383611f3b565b6000610cd68383612001565b600061170484846001600160a01b03851661204b565b81546000908210611c125760405162461bcd60e51b81526004018080602001828103825260228152602001806123086022913960400191505060405180910390fd5b826000018281548110611c2157fe5b9060005260206000200154905092915050565b815460009081908310611c785760405162461bcd60e51b81526004018080602001828103825260228152602001806124376022913960400191505060405180910390fd5b6000846000018481548110611c8957fe5b906000526020600020906002020190508060000154816001015492509250509250929050565b60008281526001840160205260408120548281611d4a5760405162461bcd60e51b81526004018080602001828103825283818151815260200191508051906020019080838360005b83811015611d0f578181015183820152602001611cf7565b50505050905090810190601f168015611d3c5780820380516001836020036101000a031916815260200191505b509250505060405180910390fd5b50846000016001820381548110611d5d57fe5b9060005260206000209060020201600101549150509392505050565b6000611d8d846001600160a01b03166120e2565b611d9957506001611704565b6060611ed1630a85bd0160e11b611dae611535565b88878760405160240180856001600160a01b03168152602001846001600160a01b0316815260200183815260200180602001828103825283818151815260200191508051906020019080838360005b83811015611e15578181015183820152602001611dfd565b50505050905090810190601f168015611e425780820380516001836020036101000a031916815260200191505b5095505050505050604051602081830303815290604052907bffffffffffffffffffffffffffffffffffffffffffffffffffffffff19166020820180517bffffffffffffffffffffffffffffffffffffffffffffffffffffffff838183161783525050505060405180606001604052806032815260200161232a603291396001600160a01b03881691906120e8565b90506000818060200190516020811015611eea57600080fd5b50517fffffffff0000000000000000000000000000000000000000000000000000000016630a85bd0160e11b1492505050949350505050565b60009081526001919091016020526040902054151590565b60008181526001830160205260408120548015611ff75783546000198083019190810190600090879083908110611f6e57fe5b9060005260206000200154905080876000018481548110611f8b57fe5b600091825260208083209091019290925582815260018981019092526040902090840190558654879080611fbb57fe5b60019003818190600052602060002001600090559055866001016000878152602001908152602001600020600090556001945050505050610cd9565b6000915050610cd9565b600061200d8383611f23565b61204357508154600181810184556000848152602080822090930184905584548482528286019093526040902091909155610cd9565b506000610cd9565b6000828152600184016020526040812054806120b0575050604080518082018252838152602080820184815286546001818101895560008981528481209551600290930290950191825591519082015586548684528188019092529290912055611046565b828560000160018303815481106120c357fe5b9060005260206000209060020201600101819055506000915050611046565b3b151590565b60606117048484600085856120fc856120e2565b61214d576040805162461bcd60e51b815260206004820152601d60248201527f416464726573733a2063616c6c20746f206e6f6e2d636f6e7472616374000000604482015290519081900360640190fd5b60006060866001600160a01b031685876040518082805190602001908083835b6020831061218c5780518252601f19909201916020918201910161216d565b6001836020036101000a03801982511681845116808217855250505050505090500191505060006040518083038185875af1925050503d80600081146121ee576040519150601f19603f3d011682016040523d82523d6000602084013e6121f3565b606091505b509150915061220382828661220e565b979650505050505050565b6060831561221d575081611046565b82511561222d5782518084602001fd5b60405162461bcd60e51b8152602060048201818152845160248401528451859391928392604401919085019080838360008315611d0f578181015183820152602001611cf7565b828054600181600116156101000203166002900490600052602060002090601f016020900481019282601f106122b557805160ff19168380011785556122e2565b828001600101855582156122e2579182015b828111156122e25782518255916020019190600101906122c7565b506122ee9291506122f2565b5090565b5b808211156122ee57600081556001016122f356fe456e756d657261626c655365743a20696e646578206f7574206f6620626f756e64734552433732313a207472616e7366657220746f206e6f6e20455243373231526563656976657220696d706c656d656e7465724552433732313a207472616e7366657220746f20746865207a65726f20616464726573734552433732313a206f70657261746f7220717565727920666f72206e6f6e6578697374656e7420746f6b656e4552433732313a20617070726f76652063616c6c6572206973206e6f74206f776e6572206e6f7220617070726f76656420666f7220616c6c4552433732313a2062616c616e636520717565727920666f7220746865207a65726f20616464726573734552433732313a206f776e657220717565727920666f72206e6f6e6578697374656e7420746f6b656e456e756d657261626c654d61703a20696e646578206f7574206f6620626f756e64734552433732313a20617070726f76656420717565727920666f72206e6f6e6578697374656e7420746f6b656e4552433732314d657461646174613a2055524920736574206f66206e6f6e6578697374656e7420746f6b656e4552433732313a207472616e73666572206f6620746f6b656e2074686174206973206e6f74206f776e4552433732314d657461646174613a2055524920717565727920666f72206e6f6e6578697374656e7420746f6b656e4552433732313a20617070726f76616c20746f2063757272656e74206f776e65724552433732313a207472616e736665722063616c6c6572206973206e6f74206f776e6572206e6f7220617070726f766564a2646970667358221220dff3321cc7d4304b152a69f54dc564342eb6cd20b46a76a9bdc5dfca473fc82464736f6c6343000700003368747470733a2f2f676174657761792e70696e6174612e636c6f75642f697066732f516d64526d5a31555053414c4e56755859326d59506233543565786e39696e31414c337473656d613472593251462f6a736f6e2f456d616369617465645f526f6d5f5f726561645f6f6e6c795f6d656d6f72795f2e6a736f6e4e617374795f4661715f5f6672657175656e746c795f61736b65645f7175657374696f6e735f2e6a736f6e",
            "opcodes": "PUSH1 0x80 PUSH1 0x40 MSTORE CALLVALUE DUP1 ISZERO PUSH3 0x11 JUMPI PUSH1 0x0 DUP1 REVERT JUMPDEST POP PUSH1 0x40 MLOAD PUSH3 0x6AD3 CODESIZE SUB DUP1 PUSH3 0x6AD3 DUP4 CODECOPY DUP2 DUP2 ADD PUSH1 0x40 MSTORE PUSH1 0x20 DUP2 LT ISZERO PUSH3 0x37 JUMPI PUSH1 0x0 DUP1 REVERT JUMPDEST POP MLOAD PUSH1 0x40 DUP1 MLOAD DUP1 DUP3 ADD DUP3 MSTORE PUSH1 0xC DUP2 MSTORE PUSH12 0x4D6F6F6E53686F74426F7473 PUSH1 0xA0 SHL PUSH1 0x20 DUP3 DUP2 ADD SWAP2 SWAP1 SWAP2 MSTORE DUP3 MLOAD DUP1 DUP5 ADD SWAP1 SWAP4 MSTORE PUSH1 0x3 DUP4 MSTORE PUSH3 0x26A9A1 PUSH1 0xE9 SHL SWAP1 DUP4 ADD MSTORE SWAP1 PUSH3 0x89 PUSH4 0x1FFC9A7 PUSH1 0xE0 SHL PUSH3 0x41F8 JUMP JUMPDEST DUP2 MLOAD PUSH3 0x9E SWAP1 PUSH1 0x6 SWAP1 PUSH1 0x20 DUP6 ADD SWAP1 PUSH3 0x4296 JUMP JUMPDEST POP DUP1 MLOAD PUSH3 0xB4 SWAP1 PUSH1 0x7 SWAP1 PUSH1 0x20 DUP5 ADD SWAP1 PUSH3 0x4296 JUMP JUMPDEST POP PUSH3 0xC7 PUSH4 0x80AC58CD PUSH1 0xE0 SHL PUSH3 0x41F8 JUMP JUMPDEST PUSH3 0xD9 PUSH4 0x5B5E139F PUSH1 0xE0 SHL PUSH3 0x41F8 JUMP JUMPDEST PUSH3 0xEB PUSH4 0x780E9D63 PUSH1 0xE0 SHL PUSH3 0x41F8 JUMP JUMPDEST POP POP PUSH3 0x111 PUSH1 0x40 MLOAD DUP1 PUSH1 0x80 ADD PUSH1 0x40 MSTORE DUP1 PUSH1 0x56 DUP2 MSTORE PUSH1 0x20 ADD PUSH3 0x6A2D PUSH1 0x56 SWAP2 CODECOPY PUSH3 0x427D JUMP JUMPDEST PUSH1 0x40 MLOAD DUP1 PUSH2 0x25E0 ADD PUSH1 0x40 MSTORE DUP1 PUSH1 0x40 MLOAD DUP1 PUSH1 0x40 ADD PUSH1 0x40 MSTORE DUP1 PUSH1 0x12 DUP2 MSTORE PUSH1 0x20 ADD PUSH18 0x29BAB832B934B7B92FABB4B5B4973539B7B7 PUSH1 0x71 SHL DUP2 MSTORE POP DUP2 MSTORE PUSH1 0x20 ADD PUSH1 0x40 MLOAD DUP1 PUSH1 0x40 ADD PUSH1 0x40 MSTORE DUP1 PUSH1 0x1A DUP2 MSTORE PUSH1 0x20 ADD PUSH32 0x486F6D656C795F576F72645F70726F636573736F722E6A736F6E000000000000 DUP2 MSTORE POP DUP2 MSTORE PUSH1 0x20 ADD PUSH1 0x40 MLOAD DUP1 PUSH1 0x40 ADD PUSH1 0x40 MSTORE DUP1 PUSH1 0x11 DUP2 MSTORE PUSH1 0x20 ADD PUSH17 0x20B1393AB83A2FA830B9BA32973539B7B7 PUSH1 0x79 SHL DUP2 MSTORE POP DUP2 MSTORE PUSH1 0x20 ADD PUSH1 0x40 MLOAD DUP1 PUSH1 0x40 ADD PUSH1 0x40 MSTORE DUP1 PUSH1 0x11 DUP2 MSTORE PUSH1 0x20 ADD PUSH17 0x243AB733B93CAFA4B73137BC173539B7B7 PUSH1 0x79 SHL DUP2 MSTORE POP DUP2 MSTORE PUSH1 0x20 ADD PUSH1 0x40 MLOAD DUP1 PUSH1 0x40 ADD PUSH1 0x40 MSTORE DUP1 PUSH1 0x13 DUP2 MSTORE PUSH1 0x20 ADD PUSH32 0x4163696469635F4469676974616C2E6A736F6E00000000000000000000000000 DUP2 MSTORE POP DUP2 MSTORE PUSH1 0x20 ADD PUSH1 0x40 MLOAD DUP1 PUSH1 0x40 ADD PUSH1 0x40 MSTORE DUP1 PUSH1 0x13 DUP2 MSTORE PUSH1 0x20 ADD PUSH32 0x48756E6772795F57696E646F77732E6A736F6E00000000000000000000000000 DUP2 MSTORE POP DUP2 MSTORE PUSH1 0x20 ADD PUSH1 0x40 MLOAD DUP1 PUSH1 0x40 ADD PUSH1 0x40 MSTORE DUP1 PUSH1 0x15 DUP2 MSTORE PUSH1 0x20 ADD PUSH32 0x41646F7261626C655F4D616C776172652E6A736F6E0000000000000000000000 DUP2 MSTORE POP DUP2 MSTORE PUSH1 0x20 ADD PUSH1 0x40 MLOAD DUP1 PUSH1 0x40 ADD PUSH1 0x40 MSTORE DUP1 PUSH1 0xD DUP2 MSTORE PUSH1 0x20 ADD PUSH13 0x243AB93A2FA0B838173539B7B7 PUSH1 0x99 SHL DUP2 MSTORE POP DUP2 MSTORE PUSH1 0x20 ADD PUSH1 0x40 MLOAD DUP1 PUSH1 0x40 ADD PUSH1 0x40 MSTORE DUP1 PUSH1 0x16 DUP2 MSTORE PUSH1 0x20 ADD PUSH32 0x41646F7261626C655F506C6174666F726D2E6A736F6E00000000000000000000 DUP2 MSTORE POP DUP2 MSTORE PUSH1 0x20 ADD PUSH1 0x40 MLOAD DUP1 PUSH1 0x40 ADD PUSH1 0x40 MSTORE DUP1 PUSH1 0xD DUP2 MSTORE PUSH1 0x20 ADD PUSH13 0x243AB93A2FA13AB3973539B7B7 PUSH1 0x99 SHL DUP2 MSTORE POP DUP2 MSTORE PUSH1 0x20 ADD PUSH1 0x40 MLOAD DUP1 PUSH1 0x40 ADD PUSH1 0x40 MSTORE DUP1 PUSH1 0x15 DUP2 MSTORE PUSH1 0x20 ADD PUSH32 0x416476656E7475726F75735F4861636B2E6A736F6E0000000000000000000000 DUP2 MSTORE POP DUP2 MSTORE PUSH1 0x20 ADD PUSH1 0x40 MLOAD DUP1 PUSH1 0x40 ADD PUSH1 0x40 MSTORE DUP1 PUSH1 0xE DUP2 MSTORE PUSH1 0x20 ADD PUSH14 0x243AB93A2FA13CBA32973539B7B7 PUSH1 0x91 SHL DUP2 MSTORE POP DUP2 MSTORE PUSH1 0x20 ADD PUSH1 0x40 MLOAD DUP1 PUSH1 0x40 ADD PUSH1 0x40 MSTORE DUP1 PUSH1 0x16 DUP2 MSTORE PUSH1 0x20 ADD PUSH32 0x416767726573736976655F4B65726E656C2E6A736F6E00000000000000000000 DUP2 MSTORE POP DUP2 MSTORE PUSH1 0x20 ADD PUSH1 0x40 MLOAD DUP1 PUSH1 0x40 ADD PUSH1 0x40 MSTORE DUP1 PUSH1 0x11 DUP2 MSTORE PUSH1 0x20 ADD PUSH17 0x243AB93A2FA9B83CBBB0B932973539B7B7 PUSH1 0x79 SHL DUP2 MSTORE POP DUP2 MSTORE PUSH1 0x20 ADD PUSH1 0x40 MLOAD DUP1 PUSH1 0x40 ADD PUSH1 0x40 MSTORE DUP1 PUSH1 0x10 DUP2 MSTORE PUSH1 0x20 ADD PUSH16 0x20B632B93A2FA33630B9B4173539B7B7 PUSH1 0x81 SHL DUP2 MSTORE POP DUP2 MSTORE PUSH1 0x20 ADD PUSH1 0x40 MLOAD DUP1 PUSH1 0x40 ADD PUSH1 0x40 MSTORE DUP1 PUSH1 0x12 DUP2 MSTORE PUSH1 0x20 ADD PUSH18 0x24B1BCAFA43CB832B93634B735973539B7B7 PUSH1 0x71 SHL DUP2 MSTORE POP DUP2 MSTORE PUSH1 0x20 ADD PUSH1 0x40 MLOAD DUP1 PUSH1 0x40 ADD PUSH1 0x40 MSTORE DUP1 PUSH1 0x12 DUP2 MSTORE PUSH1 0x20 ADD PUSH18 0x20B632B93A2FA83934BB30B1BC973539B7B7 PUSH1 0x71 SHL DUP2 MSTORE POP DUP2 MSTORE PUSH1 0x20 ADD PUSH1 0x40 MLOAD DUP1 PUSH1 0x40 ADD PUSH1 0x40 MSTORE DUP1 PUSH1 0x12 DUP2 MSTORE PUSH1 0x20 ADD PUSH18 0x24B232B0B62FA1B0B83A31B430973539B7B7 PUSH1 0x71 SHL DUP2 MSTORE POP DUP2 MSTORE PUSH1 0x20 ADD PUSH1 0x40 MLOAD DUP1 PUSH1 0x40 ADD PUSH1 0x40 MSTORE DUP1 PUSH1 0x15 DUP2 MSTORE PUSH1 0x20 ADD PUSH32 0x416C6572745F5374617475735F6261722E6A736F6E0000000000000000000000 DUP2 MSTORE POP DUP2 MSTORE PUSH1 0x20 ADD PUSH1 0x40 MLOAD DUP1 PUSH1 0x40 ADD PUSH1 0x40 MSTORE DUP1 PUSH1 0xF DUP2 MSTORE PUSH1 0x20 ADD PUSH15 0x24B232B0B62FA737B232973539B7B7 PUSH1 0x89 SHL DUP2 MSTORE POP DUP2 MSTORE PUSH1 0x20 ADD PUSH1 0x40 MLOAD DUP1 PUSH1 0x40 ADD PUSH1 0x40 MSTORE DUP1 PUSH1 0xF DUP2 MSTORE PUSH1 0x20 ADD PUSH15 0x20B637B7B32FA230BA30973539B7B7 PUSH1 0x89 SHL DUP2 MSTORE POP DUP2 MSTORE PUSH1 0x20 ADD PUSH1 0x40 MLOAD DUP1 PUSH1 0x40 ADD PUSH1 0x40 MSTORE DUP1 PUSH1 0x12 DUP2 MSTORE PUSH1 0x20 ADD PUSH18 0x24B6B6B2B739B2AFA2B73A32B9173539B7B7 PUSH1 0x71 SHL DUP2 MSTORE POP DUP2 MSTORE PUSH1 0x20 ADD PUSH1 0x40 MLOAD DUP1 PUSH1 0x40 ADD PUSH1 0x40 MSTORE DUP1 PUSH1 0x16 DUP2 MSTORE PUSH1 0x20 ADD PUSH32 0x416C6F6F665F546578745F656469746F722E6A736F6E00000000000000000000 DUP2 MSTORE POP DUP2 MSTORE PUSH1 0x20 ADD PUSH1 0x40 MLOAD DUP1 PUSH1 0x40 ADD PUSH1 0x40 MSTORE DUP1 PUSH1 0x18 DUP2 MSTORE PUSH1 0x20 ADD PUSH32 0x496D7072657373696F6E61626C655F537572662E6A736F6E0000000000000000 DUP2 MSTORE POP DUP2 MSTORE PUSH1 0x20 ADD PUSH1 0x40 MLOAD DUP1 PUSH1 0x40 ADD PUSH1 0x40 MSTORE DUP1 PUSH1 0xE DUP2 MSTORE PUSH1 0x20 ADD PUSH14 0x20B637B7B32FAAB936173539B7B7 PUSH1 0x91 SHL DUP2 MSTORE POP DUP2 MSTORE PUSH1 0x20 ADD PUSH1 0x40 MLOAD DUP1 PUSH1 0x40 ADD PUSH1 0x40 MSTORE DUP1 PUSH1 0x16 DUP2 MSTORE PUSH1 0x20 ADD PUSH32 0x496E747269677565645F426C6F676765722E6A736F6E00000000000000000000 DUP2 MSTORE POP DUP2 MSTORE PUSH1 0x20 ADD PUSH1 0x40 MLOAD DUP1 PUSH1 0x40 ADD PUSH1 0x40 MSTORE DUP1 PUSH1 0x12 DUP2 MSTORE PUSH1 0x20 ADD PUSH18 0x20B6B4B0B13632AFA9B434B33A173539B7B7 PUSH1 0x71 SHL DUP2 MSTORE POP DUP2 MSTORE PUSH1 0x20 ADD PUSH1 0x40 MLOAD DUP1 PUSH1 0x40 ADD PUSH1 0x40 MSTORE DUP1 PUSH1 0x17 DUP2 MSTORE PUSH1 0x20 ADD PUSH32 0x496E747269677565645F44617461626173652E6A736F6E000000000000000000 DUP2 MSTORE POP DUP2 MSTORE PUSH1 0x20 ADD PUSH1 0x40 MLOAD DUP1 PUSH1 0x40 ADD PUSH1 0x40 MSTORE DUP1 PUSH1 0x17 DUP2 MSTORE PUSH1 0x20 ADD PUSH32 0x416E78696F75735F5374617475735F6261722E6A736F6E000000000000000000 DUP2 MSTORE POP DUP2 MSTORE PUSH1 0x20 ADD PUSH1 0x40 MLOAD DUP1 PUSH1 0x40 ADD PUSH1 0x40 MSTORE DUP1 PUSH1 0x12 DUP2 MSTORE PUSH1 0x20 ADD PUSH18 0x24B930BA32AFA9B1B0B73732B9173539B7B7 PUSH1 0x71 SHL DUP2 MSTORE POP DUP2 MSTORE PUSH1 0x20 ADD PUSH1 0x40 MLOAD DUP1 PUSH1 0x40 ADD PUSH1 0x40 MSTORE DUP1 PUSH1 0x17 DUP2 MSTORE PUSH1 0x20 ADD PUSH32 0x417070726568656E736976655F456D61696C2E6A736F6E000000000000000000 DUP2 MSTORE POP DUP2 MSTORE PUSH1 0x20 ADD PUSH1 0x40 MLOAD DUP1 PUSH1 0x40 ADD PUSH1 0x40 MSTORE DUP1 PUSH1 0x1E DUP2 MSTORE PUSH1 0x20 ADD PUSH32 0x497272697461626C655F436C6F75645F636F6D707574696E672E6A736F6E0000 DUP2 MSTORE POP DUP2 MSTORE PUSH1 0x20 ADD PUSH1 0x40 MLOAD DUP1 PUSH1 0x40 ADD PUSH1 0x40 MSTORE DUP1 PUSH1 0x19 DUP2 MSTORE PUSH1 0x20 ADD PUSH32 0x417070726568656E736976655F54656D696E616C2E6A736F6E00000000000000 DUP2 MSTORE POP DUP2 MSTORE PUSH1 0x20 ADD PUSH1 0x40 MLOAD DUP1 PUSH1 0x40 ADD PUSH1 0x40 MSTORE DUP1 PUSH1 0x12 DUP2 MSTORE PUSH1 0x20 ADD PUSH18 0x24B93934BA30B13632AFAC36B6173539B7B7 PUSH1 0x71 SHL DUP2 MSTORE POP DUP2 MSTORE PUSH1 0x20 ADD PUSH1 0x40 MLOAD DUP1 PUSH1 0x40 ADD PUSH1 0x40 MSTORE DUP1 PUSH1 0x12 DUP2 MSTORE PUSH1 0x20 ADD PUSH18 0x20B93937B3B0B73A2FA23739AF973539B7B7 PUSH1 0x71 SHL DUP2 MSTORE POP DUP2 MSTORE PUSH1 0x20 ADD PUSH1 0x40 MLOAD DUP1 PUSH1 0x40 ADD PUSH1 0x40 MSTORE DUP1 PUSH1 0x1C DUP2 MSTORE PUSH1 0x20 ADD PUSH32 0x49746368795F4E6F7465626F6F6B5F636F6D70757465722E6A736F6E00000000 DUP2 MSTORE POP DUP2 MSTORE PUSH1 0x20 ADD PUSH1 0x40 MLOAD DUP1 PUSH1 0x40 ADD PUSH1 0x40 MSTORE DUP1 PUSH1 0x13 DUP2 MSTORE PUSH1 0x20 ADD PUSH32 0x417368616D65645F4261636B75702E6A736F6E00000000000000000000000000 DUP2 MSTORE POP DUP2 MSTORE PUSH1 0x20 ADD PUSH1 0x40 MLOAD DUP1 PUSH1 0x40 ADD PUSH1 0x40 MSTORE DUP1 PUSH1 0x11 DUP2 MSTORE PUSH1 0x20 ADD PUSH17 0x2532B0B637BAB9AFA43A36B6173539B7B7 PUSH1 0x79 SHL DUP2 MSTORE POP DUP2 MSTORE PUSH1 0x20 ADD PUSH1 0x40 MLOAD DUP1 PUSH1 0x40 ADD PUSH1 0x40 MSTORE DUP1 PUSH1 0x15 DUP2 MSTORE PUSH1 0x20 ADD PUSH32 0x417368616D65645F50617373776F72642E6A736F6E0000000000000000000000 DUP2 MSTORE POP DUP2 MSTORE PUSH1 0x20 ADD PUSH1 0x40 MLOAD DUP1 PUSH1 0x40 ADD PUSH1 0x40 MSTORE DUP1 PUSH1 0x13 DUP2 MSTORE PUSH1 0x20 ADD PUSH32 0x4A6974746572795F5363726970742E6A736F6E00000000000000000000000000 DUP2 MSTORE POP DUP2 MSTORE PUSH1 0x20 ADD PUSH1 0x40 MLOAD DUP1 PUSH1 0x40 ADD PUSH1 0x40 MSTORE DUP1 PUSH1 0x15 DUP2 MSTORE PUSH1 0x20 ADD PUSH32 0x417665726167655F506C6174666F726D2E6A736F6E0000000000000000000000 DUP2 MSTORE POP DUP2 MSTORE PUSH1 0x20 ADD PUSH1 0x40 MLOAD DUP1 PUSH1 0x40 ADD PUSH1 0x40 MSTORE DUP1 PUSH1 0x16 DUP2 MSTORE PUSH1 0x20 ADD PUSH32 0x4A6F6C6C795F446F6D61696E5F6E616D652E6A736F6E00000000000000000000 DUP2 MSTORE POP DUP2 MSTORE PUSH1 0x20 ADD PUSH1 0x40 MLOAD DUP1 PUSH1 0x40 ADD PUSH1 0x40 MSTORE DUP1 PUSH1 0x13 DUP2 MSTORE PUSH1 0x20 ADD PUSH32 0x417665726167655F526F757465722E6A736F6E00000000000000000000000000 DUP2 MSTORE POP DUP2 MSTORE PUSH1 0x20 ADD PUSH1 0x40 MLOAD DUP1 PUSH1 0x40 ADD PUSH1 0x40 MSTORE DUP1 PUSH1 0x14 DUP2 MSTORE PUSH1 0x20 ADD PUSH32 0x4A6F6C6C795F5265616C2D74696D652E6A736F6E000000000000000000000000 DUP2 MSTORE POP DUP2 MSTORE PUSH1 0x20 ADD PUSH1 0x40 MLOAD DUP1 PUSH1 0x40 ADD PUSH1 0x40 MSTORE DUP1 PUSH1 0x15 DUP2 MSTORE PUSH1 0x20 ADD PUSH32 0x42617474795F43797068657270756E6B2E6A736F6E0000000000000000000000 DUP2 MSTORE POP DUP2 MSTORE PUSH1 0x20 ADD PUSH1 0x40 MLOAD DUP1 PUSH1 0x40 ADD PUSH1 0x40 MSTORE DUP1 PUSH1 0x11 DUP2 MSTORE PUSH1 0x20 ADD PUSH17 0x2537BCB7BAB9AFA8BAB2BAB2973539B7B7 PUSH1 0x79 SHL DUP2 MSTORE POP DUP2 MSTORE PUSH1 0x20 ADD PUSH1 0x40 MLOAD DUP1 PUSH1 0x40 ADD PUSH1 0x40 MSTORE DUP1 PUSH1 0x11 DUP2 MSTORE PUSH1 0x20 ADD PUSH17 0x2132B2B33CAFA134B730B93C973539B7B7 PUSH1 0x79 SHL DUP2 MSTORE POP DUP2 MSTORE PUSH1 0x20 ADD PUSH1 0x40 MLOAD DUP1 PUSH1 0x40 ADD PUSH1 0x40 MSTORE DUP1 PUSH1 0x14 DUP2 MSTORE PUSH1 0x20 ADD PUSH32 0x4A6F796F75735F53656375726974792E6A736F6E000000000000000000000000 DUP2 MSTORE POP DUP2 MSTORE PUSH1 0x20 ADD PUSH1 0x40 MLOAD DUP1 PUSH1 0x40 ADD PUSH1 0x40 MSTORE DUP1 PUSH1 0x11 DUP2 MSTORE PUSH1 0x20 ADD PUSH17 0x213630B7322FA237B6B0B4B7173539B7B7 PUSH1 0x79 SHL DUP2 MSTORE POP DUP2 MSTORE PUSH1 0x20 ADD PUSH1 0x40 MLOAD DUP1 PUSH1 0x40 ADD PUSH1 0x40 MSTORE DUP1 PUSH1 0x13 DUP2 MSTORE PUSH1 0x20 ADD PUSH32 0x4A756963795F54656D706C6174652E6A736F6E00000000000000000000000000 DUP2 MSTORE POP DUP2 MSTORE PUSH1 0x20 ADD PUSH1 0x40 MLOAD DUP1 PUSH1 0x40 ADD PUSH1 0x40 MSTORE DUP1 PUSH1 0x15 DUP2 MSTORE PUSH1 0x20 ADD PUSH32 0x426C757368696E675F4D616C776172652E6A736F6E0000000000000000000000 DUP2 MSTORE POP DUP2 MSTORE PUSH1 0x20 ADD PUSH1 0x40 MLOAD DUP1 PUSH1 0x40 ADD PUSH1 0x40 MSTORE DUP1 PUSH1 0x11 DUP2 MSTORE PUSH1 0x20 ADD PUSH17 0x253AB6B83CAFABB4B233B2BA173539B7B7 PUSH1 0x79 SHL DUP2 MSTORE POP DUP2 MSTORE PUSH1 0x20 ADD PUSH1 0x40 MLOAD DUP1 PUSH1 0x40 ADD PUSH1 0x40 MSTORE DUP1 PUSH1 0x16 DUP2 MSTORE PUSH1 0x20 ADD PUSH32 0x426C757368696E675F506C6174666F726D2E6A736F6E00000000000000000000 DUP2 MSTORE POP DUP2 MSTORE PUSH1 0x20 ADD PUSH1 0x40 MLOAD DUP1 PUSH1 0x40 ADD PUSH1 0x40 MSTORE DUP1 PUSH1 0x10 DUP2 MSTORE PUSH1 0x20 ADD PUSH16 0x25B4B7322FA1B216B937B6973539B7B7 PUSH1 0x81 SHL DUP2 MSTORE POP DUP2 MSTORE PUSH1 0x20 ADD PUSH1 0x40 MLOAD DUP1 PUSH1 0x40 ADD PUSH1 0x40 MSTORE DUP1 PUSH1 0x15 DUP2 MSTORE PUSH1 0x20 ADD PUSH32 0x426C757368696E675F53746F726167652E6A736F6E0000000000000000000000 DUP2 MSTORE POP DUP2 MSTORE PUSH1 0x20 ADD PUSH1 0x40 MLOAD DUP1 PUSH1 0x40 ADD PUSH1 0x40 MSTORE DUP1 PUSH1 0x1B DUP2 MSTORE PUSH1 0x20 ADD PUSH32 0x4C61636B61646169736963616C5F5068697368696E672E6A736F6E0000000000 DUP2 MSTORE POP DUP2 MSTORE PUSH1 0x20 ADD PUSH1 0x40 MLOAD DUP1 PUSH1 0x40 ADD PUSH1 0x40 MSTORE DUP1 PUSH1 0x13 DUP2 MSTORE PUSH1 0x20 ADD PUSH32 0x4272696768745F4C6F675F6F75742E6A736F6E00000000000000000000000000 DUP2 MSTORE POP DUP2 MSTORE PUSH1 0x20 ADD PUSH1 0x40 MLOAD DUP1 PUSH1 0x40 ADD PUSH1 0x40 MSTORE DUP1 PUSH1 0x1A DUP2 MSTORE PUSH1 0x20 ADD PUSH32 0x4C61636B61646169736963616C5F57696E646F77732E6A736F6E000000000000 DUP2 MSTORE POP DUP2 MSTORE PUSH1 0x20 ADD PUSH1 0x40 MLOAD DUP1 PUSH1 0x40 ADD PUSH1 0x40 MSTORE DUP1 PUSH1 0xF DUP2 MSTORE PUSH1 0x20 ADD PUSH15 0x213937B0B22FA9B0BB32973539B7B7 PUSH1 0x89 SHL DUP2 MSTORE POP DUP2 MSTORE PUSH1 0x20 ADD PUSH1 0x40 MLOAD DUP1 PUSH1 0x40 ADD PUSH1 0x40 MSTORE DUP1 PUSH1 0x16 DUP2 MSTORE PUSH1 0x20 ADD PUSH32 0x4C61636B61646169736963616C5F5A69702E6A736F6E00000000000000000000 DUP2 MSTORE POP DUP2 MSTORE PUSH1 0x20 ADD PUSH1 0x40 MLOAD DUP1 PUSH1 0x40 ADD PUSH1 0x40 MSTORE DUP1 PUSH1 0x14 DUP2 MSTORE PUSH1 0x20 ADD PUSH32 0x4275726C795F436F6E6669677572652E6A736F6E000000000000000000000000 DUP2 MSTORE POP DUP2 MSTORE PUSH1 0x20 ADD PUSH1 0x40 MLOAD DUP1 PUSH1 0x40 ADD PUSH1 0x40 MSTORE DUP1 PUSH1 0x10 DUP2 MSTORE PUSH1 0x20 ADD PUSH16 0x2630B933B2AFA634B73ABC173539B7B7 PUSH1 0x81 SHL DUP2 MSTORE POP DUP2 MSTORE PUSH1 0x20 ADD PUSH1 0x40 MLOAD DUP1 PUSH1 0x40 ADD PUSH1 0x40 MSTORE DUP1 PUSH1 0x12 DUP2 MSTORE PUSH1 0x20 ADD PUSH18 0x21B432B2B5BCAFA430B1B5B2B9173539B7B7 PUSH1 0x71 SHL DUP2 MSTORE POP DUP2 MSTORE PUSH1 0x20 ADD PUSH1 0x40 MLOAD DUP1 PUSH1 0x40 ADD PUSH1 0x40 MSTORE DUP1 PUSH1 0x10 DUP2 MSTORE PUSH1 0x20 ADD PUSH16 0x2630B933B2AFAA30B13632973539B7B7 PUSH1 0x81 SHL DUP2 MSTORE POP DUP2 MSTORE PUSH1 0x20 ADD PUSH1 0x40 MLOAD DUP1 PUSH1 0x40 ADD PUSH1 0x40 MSTORE DUP1 PUSH1 0x10 DUP2 MSTORE PUSH1 0x20 ADD PUSH16 0x21B432B2B5BCAFA9B830B6973539B7B7 PUSH1 0x81 SHL DUP2 MSTORE POP DUP2 MSTORE PUSH1 0x20 ADD PUSH1 0x40 MLOAD DUP1 PUSH1 0x40 ADD PUSH1 0x40 MSTORE DUP1 PUSH1 0xF DUP2 MSTORE PUSH1 0x20 ADD PUSH15 0x2630B933B2AFAAB73237973539B7B7 PUSH1 0x89 SHL DUP2 MSTORE POP DUP2 MSTORE PUSH1 0x20 ADD PUSH1 0x40 MLOAD DUP1 PUSH1 0x40 ADD PUSH1 0x40 MSTORE DUP1 PUSH1 0x11 DUP2 MSTORE PUSH1 0x20 ADD PUSH17 0x21B63AB2B632B9B9AFA0B838173539B7B7 PUSH1 0x79 SHL DUP2 MSTORE POP DUP2 MSTORE PUSH1 0x20 ADD PUSH1 0x40 MLOAD DUP1 PUSH1 0x40 ADD PUSH1 0x40 MSTORE DUP1 PUSH1 0x16 DUP2 MSTORE PUSH1 0x20 ADD PUSH32 0x4C6976656C795F5363726F6C6C5F6261722E6A736F6E00000000000000000000 DUP2 MSTORE POP DUP2 MSTORE PUSH1 0x20 ADD PUSH1 0x40 MLOAD DUP1 PUSH1 0x40 ADD PUSH1 0x40 MSTORE DUP1 PUSH1 0x1E DUP2 MSTORE PUSH1 0x20 ADD PUSH32 0x436C75656C6573735F4F7065726174696E675F73797374656D2E6A736F6E0000 DUP2 MSTORE POP DUP2 MSTORE PUSH1 0x20 ADD PUSH1 0x40 MLOAD DUP1 PUSH1 0x40 ADD PUSH1 0x40 MSTORE DUP1 PUSH1 0x14 DUP2 MSTORE PUSH1 0x20 ADD PUSH32 0x4C6976656C795F54656D706C6174652E6A736F6E000000000000000000000000 DUP2 MSTORE POP DUP2 MSTORE PUSH1 0x20 ADD PUSH1 0x40 MLOAD DUP1 PUSH1 0x40 ADD PUSH1 0x40 MSTORE DUP1 PUSH1 0x19 DUP2 MSTORE PUSH1 0x20 ADD PUSH32 0x436F6C6F7266756C5F446576656C6F706D656E742E6A736F6E00000000000000 DUP2 MSTORE POP DUP2 MSTORE PUSH1 0x20 ADD PUSH1 0x40 MLOAD DUP1 PUSH1 0x40 ADD PUSH1 0x40 MSTORE DUP1 PUSH1 0xE DUP2 MSTORE PUSH1 0x20 ADD PUSH14 0x263AB1B5BCAFAA30B3973539B7B7 PUSH1 0x91 SHL DUP2 MSTORE POP DUP2 MSTORE PUSH1 0x20 ADD PUSH1 0x40 MLOAD DUP1 PUSH1 0x40 ADD PUSH1 0x40 MSTORE DUP1 PUSH1 0x13 DUP2 MSTORE PUSH1 0x20 ADD PUSH32 0x436F6C6F7266756C5F456D61696C2E6A736F6E00000000000000000000000000 DUP2 MSTORE POP DUP2 MSTORE PUSH1 0x20 ADD PUSH1 0x40 MLOAD DUP1 PUSH1 0x40 ADD PUSH1 0x40 MSTORE DUP1 PUSH1 0xF DUP2 MSTORE PUSH1 0x20 ADD PUSH15 0x26B0B1B437AFA134BA32973539B7B7 PUSH1 0x89 SHL DUP2 MSTORE POP DUP2 MSTORE PUSH1 0x20 ADD PUSH1 0x40 MLOAD DUP1 PUSH1 0x40 ADD PUSH1 0x40 MSTORE DUP1 PUSH1 0x16 DUP2 MSTORE PUSH1 0x20 ADD PUSH32 0x436F6D6261746976655F4C6F675F6F75742E6A736F6E00000000000000000000 DUP2 MSTORE POP DUP2 MSTORE PUSH1 0x20 ADD PUSH1 0x40 MLOAD DUP1 PUSH1 0x40 ADD PUSH1 0x40 MSTORE DUP1 PUSH1 0x18 DUP2 MSTORE PUSH1 0x20 ADD PUSH32 0x4D61676E69666963656E745F436170746368612E6A736F6E0000000000000000 DUP2 MSTORE POP DUP2 MSTORE PUSH1 0x20 ADD PUSH1 0x40 MLOAD DUP1 PUSH1 0x40 ADD PUSH1 0x40 MSTORE DUP1 PUSH1 0x18 DUP2 MSTORE PUSH1 0x20 ADD PUSH32 0x436F6D6261746976655F5368617265776172652E6A736F6E0000000000000000 DUP2 MSTORE POP DUP2 MSTORE PUSH1 0x20 ADD PUSH1 0x40 MLOAD DUP1 PUSH1 0x40 ADD PUSH1 0x40 MSTORE DUP1 PUSH1 0x12 DUP2 MSTORE PUSH1 0x20 ADD PUSH18 0x26B0B734B0B1B0B62FA23739AF973539B7B7 PUSH1 0x71 SHL DUP2 MSTORE POP DUP2 MSTORE PUSH1 0x20 ADD PUSH1 0x40 MLOAD DUP1 PUSH1 0x40 ADD PUSH1 0x40 MSTORE DUP1 PUSH1 0x18 DUP2 MSTORE PUSH1 0x20 ADD PUSH32 0x436F6E64656D6E65645F42616E6477696474682E6A736F6E0000000000000000 DUP2 MSTORE POP DUP2 MSTORE PUSH1 0x20 ADD PUSH1 0x40 MLOAD DUP1 PUSH1 0x40 ADD PUSH1 0x40 MSTORE DUP1 PUSH1 0x12 DUP2 MSTORE PUSH1 0x20 ADD PUSH18 0x26B0B734B0B1B0B62FA9B1B0B7173539B7B7 PUSH1 0x71 SHL DUP2 MSTORE POP DUP2 MSTORE PUSH1 0x20 ADD PUSH1 0x40 MLOAD DUP1 PUSH1 0x40 ADD PUSH1 0x40 MSTORE DUP1 PUSH1 0x16 DUP2 MSTORE PUSH1 0x20 ADD PUSH32 0x436F6E64656D6E65645F4B6579776F72642E6A736F6E00000000000000000000 DUP2 MSTORE POP DUP2 MSTORE PUSH1 0x20 ADD PUSH1 0x40 MLOAD DUP1 PUSH1 0x40 ADD PUSH1 0x40 MSTORE DUP1 PUSH1 0x14 DUP2 MSTORE PUSH1 0x20 ADD PUSH32 0x4D6173736976655F42726F777365722E6A736F6E000000000000000000000000 DUP2 MSTORE POP DUP2 MSTORE PUSH1 0x20 ADD PUSH1 0x40 MLOAD DUP1 PUSH1 0x40 ADD PUSH1 0x40 MSTORE DUP1 PUSH1 0x19 DUP2 MSTORE PUSH1 0x20 ADD PUSH32 0x436F6E64657363656E64696E675F4B65726E656C2E6A736F6E00000000000000 DUP2 MSTORE POP DUP2 MSTORE PUSH1 0x20 ADD PUSH1 0x40 MLOAD DUP1 PUSH1 0x40 ADD PUSH1 0x40 MSTORE DUP1 PUSH1 0x14 DUP2 MSTORE PUSH1 0x20 ADD PUSH32 0x4D6173736976655F436170746368612E6A736F6E000000000000000000000000 DUP2 MSTORE POP DUP2 MSTORE PUSH1 0x20 ADD PUSH1 0x40 MLOAD DUP1 PUSH1 0x40 ADD PUSH1 0x40 MSTORE DUP1 PUSH1 0x19 DUP2 MSTORE PUSH1 0x20 ADD PUSH32 0x436F6E64657363656E64696E675F5177657274792E6A736F6E00000000000000 DUP2 MSTORE POP DUP2 MSTORE PUSH1 0x20 ADD PUSH1 0x40 MLOAD DUP1 PUSH1 0x40 ADD PUSH1 0x40 MSTORE DUP1 PUSH1 0x12 DUP2 MSTORE PUSH1 0x20 ADD PUSH18 0x26B0B9B9B4BB32AFA637B3B4B7173539B7B7 PUSH1 0x71 SHL DUP2 MSTORE POP DUP2 MSTORE PUSH1 0x20 ADD PUSH1 0x40 MLOAD DUP1 PUSH1 0x40 ADD PUSH1 0x40 MSTORE DUP1 PUSH1 0x1C DUP2 MSTORE PUSH1 0x20 ADD PUSH32 0x436F6E74656D706C61746976655F44617368626F6172642E6A736F6E00000000 DUP2 MSTORE POP DUP2 MSTORE PUSH1 0x20 ADD PUSH1 0x40 MLOAD DUP1 PUSH1 0x40 ADD PUSH1 0x40 MSTORE DUP1 PUSH1 0x14 DUP2 MSTORE PUSH1 0x20 ADD PUSH32 0x4D6173736976655F4F66666C696E652E6A736F6E000000000000000000000000 DUP2 MSTORE POP DUP2 MSTORE PUSH1 0x20 ADD PUSH1 0x40 MLOAD DUP1 PUSH1 0x40 ADD PUSH1 0x40 MSTORE DUP1 PUSH1 0x15 DUP2 MSTORE PUSH1 0x20 ADD PUSH32 0x436F6E76696E63696E675F466C6173682E6A736F6E0000000000000000000000 DUP2 MSTORE POP DUP2 MSTORE PUSH1 0x20 ADD PUSH1 0x40 MLOAD DUP1 PUSH1 0x40 ADD PUSH1 0x40 MSTORE DUP1 PUSH1 0x16 DUP2 MSTORE PUSH1 0x20 ADD PUSH32 0x4D656C616E63686F6C795F4275666665722E6A736F6E00000000000000000000 DUP2 MSTORE POP DUP2 MSTORE PUSH1 0x20 ADD PUSH1 0x40 MLOAD DUP1 PUSH1 0x40 ADD PUSH1 0x40 MSTORE DUP1 PUSH1 0x17 DUP2 MSTORE PUSH1 0x20 ADD PUSH32 0x436F6E76696E63696E675F4C75726B696E672E6A736F6E000000000000000000 DUP2 MSTORE POP DUP2 MSTORE PUSH1 0x20 ADD PUSH1 0x40 MLOAD DUP1 PUSH1 0x40 ADD PUSH1 0x40 MSTORE DUP1 PUSH1 0x13 DUP2 MSTORE PUSH1 0x20 ADD PUSH32 0x4D656C616E63686F6C795F4275732E6A736F6E00000000000000000000000000 DUP2 MSTORE POP DUP2 MSTORE PUSH1 0x20 ADD PUSH1 0x40 MLOAD DUP1 PUSH1 0x40 ADD PUSH1 0x40 MSTORE DUP1 PUSH1 0x19 DUP2 MSTORE PUSH1 0x20 ADD PUSH32 0x436F6F70657261746976655F436F6D70757465722E6A736F6E00000000000000 DUP2 MSTORE POP DUP2 MSTORE PUSH1 0x20 ADD PUSH1 0x40 MLOAD DUP1 PUSH1 0x40 ADD PUSH1 0x40 MSTORE DUP1 PUSH1 0x19 DUP2 MSTORE PUSH1 0x20 ADD PUSH32 0x4D656C616E63686F6C795F53686966745F6B65792E6A736F6E00000000000000 DUP2 MSTORE POP DUP2 MSTORE PUSH1 0x20 ADD PUSH1 0x40 MLOAD DUP1 PUSH1 0x40 ADD PUSH1 0x40 MSTORE DUP1 PUSH1 0x17 DUP2 MSTORE PUSH1 0x20 ADD PUSH32 0x436F6F70657261746976655F53637265656E2E6A736F6E000000000000000000 DUP2 MSTORE POP DUP2 MSTORE PUSH1 0x20 ADD PUSH1 0x40 MLOAD DUP1 PUSH1 0x40 ADD PUSH1 0x40 MSTORE DUP1 PUSH1 0x13 DUP2 MSTORE PUSH1 0x20 ADD PUSH32 0x4D696E6961747572655F4A6176612E6A736F6E00000000000000000000000000 DUP2 MSTORE POP DUP2 MSTORE PUSH1 0x20 ADD PUSH1 0x40 MLOAD DUP1 PUSH1 0x40 ADD PUSH1 0x40 MSTORE DUP1 PUSH1 0x13 DUP2 MSTORE PUSH1 0x20 ADD PUSH32 0x436F726E795F496E7465726E65742E6A736F6E00000000000000000000000000 DUP2 MSTORE POP DUP2 MSTORE PUSH1 0x20 ADD PUSH1 0x40 MLOAD DUP1 PUSH1 0x40 ADD PUSH1 0x40 MSTORE DUP1 PUSH1 0xF DUP2 MSTORE PUSH1 0x20 ADD PUSH15 0x26B4B9BA3CAFA23930B3973539B7B7 PUSH1 0x89 SHL DUP2 MSTORE POP DUP2 MSTORE PUSH1 0x20 ADD PUSH1 0x40 MLOAD DUP1 PUSH1 0x40 ADD PUSH1 0x40 MSTORE DUP1 PUSH1 0x16 DUP2 MSTORE PUSH1 0x20 ADD PUSH32 0x436F726E795F4D6F74686572626F6172642E6A736F6E00000000000000000000 DUP2 MSTORE POP DUP2 MSTORE PUSH1 0x20 ADD PUSH1 0x40 MLOAD DUP1 PUSH1 0x40 ADD PUSH1 0x40 MSTORE DUP1 PUSH1 0xE DUP2 MSTORE PUSH1 0x20 ADD PUSH14 0x26B4B9BA3CAFAD34B8173539B7B7 PUSH1 0x91 SHL DUP2 MSTORE POP DUP2 MSTORE PUSH1 0x20 ADD PUSH1 0x40 MLOAD DUP1 PUSH1 0x40 ADD PUSH1 0x40 MSTORE DUP1 PUSH1 0x11 DUP2 MSTORE PUSH1 0x20 ADD PUSH17 0x21B930B1313CAFA6B0B1B937973539B7B7 PUSH1 0x79 SHL DUP2 MSTORE POP DUP2 MSTORE PUSH1 0x20 ADD PUSH1 0x40 MLOAD DUP1 PUSH1 0x40 ADD PUSH1 0x40 MSTORE DUP1 PUSH1 0x11 DUP2 MSTORE PUSH1 0x20 ADD PUSH17 0x26BAB2323CAFA130B1B5BAB8173539B7B7 PUSH1 0x79 SHL DUP2 MSTORE POP DUP2 MSTORE PUSH1 0x20 ADD PUSH1 0x40 MLOAD DUP1 PUSH1 0x40 ADD PUSH1 0x40 MSTORE DUP1 PUSH1 0x12 DUP2 MSTORE PUSH1 0x20 ADD PUSH18 0x21B937B7B5B2B22FAB34B93AB9973539B7B7 PUSH1 0x71 SHL DUP2 MSTORE POP DUP2 MSTORE PUSH1 0x20 ADD PUSH1 0x40 MLOAD DUP1 PUSH1 0x40 ADD PUSH1 0x40 MSTORE DUP1 PUSH1 0x12 DUP2 MSTORE PUSH1 0x20 ADD PUSH18 0x2730B93937BBAFA430B1B5B2B9173539B7B7 PUSH1 0x71 SHL DUP2 MSTORE POP DUP2 MSTORE PUSH1 0x20 ADD PUSH1 0x40 MLOAD DUP1 PUSH1 0x40 ADD PUSH1 0x40 MSTORE DUP1 PUSH1 0xF DUP2 MSTORE PUSH1 0x20 ADD PUSH15 0x21B93AB2B62FA23739AF973539B7B7 PUSH1 0x89 SHL DUP2 MSTORE POP DUP2 MSTORE PUSH1 0x20 ADD PUSH1 0x40 MLOAD DUP1 PUSH1 0x40 ADD PUSH1 0x40 MSTORE DUP1 PUSH1 0x15 DUP2 MSTORE PUSH1 0x20 ADD PUSH32 0x4E6172726F775F4879706572746578742E6A736F6E0000000000000000000000 DUP2 MSTORE POP DUP2 MSTORE PUSH1 0x20 ADD PUSH1 0x40 MLOAD DUP1 PUSH1 0x40 ADD PUSH1 0x40 MSTORE DUP1 PUSH1 0x14 DUP2 MSTORE PUSH1 0x20 ADD PUSH32 0x43756D626572736F6D655F576F726D2E6A736F6E000000000000000000000000 DUP2 MSTORE POP DUP2 MSTORE PUSH1 0x20 ADD PUSH1 0x40 MLOAD DUP1 PUSH1 0x60 ADD PUSH1 0x40 MSTORE DUP1 PUSH1 0x2B DUP2 MSTORE PUSH1 0x20 ADD PUSH3 0x6AA8 PUSH1 0x2B SWAP2 CODECOPY DUP2 MSTORE PUSH1 0x40 DUP1 MLOAD DUP1 DUP3 ADD DUP3 MSTORE PUSH1 0x14 DUP1 DUP3 MSTORE PUSH32 0x43796E6963616C5F4465736B746F702E6A736F6E000000000000000000000000 PUSH1 0x20 DUP4 DUP2 ADD SWAP2 SWAP1 SWAP2 MSTORE DUP1 DUP6 ADD SWAP3 SWAP1 SWAP3 MSTORE DUP3 MLOAD DUP1 DUP5 ADD DUP5 MSTORE PUSH1 0x11 DUP1 DUP3 MSTORE PUSH17 0x2730B9BA3CAFA834B930BA32973539B7B7 PUSH1 0x79 SHL DUP3 DUP6 ADD MSTORE DUP5 DUP7 ADD SWAP2 SWAP1 SWAP2 MSTORE DUP4 MLOAD DUP1 DUP6 ADD DUP6 MSTORE PUSH1 0x15 DUP1 DUP3 MSTORE PUSH32 0x44617368696E675F436C69705F6172742E6A736F6E0000000000000000000000 DUP3 DUP7 ADD MSTORE PUSH1 0x60 DUP1 DUP9 ADD SWAP3 SWAP1 SWAP3 MSTORE DUP6 MLOAD DUP1 DUP8 ADD DUP8 MSTORE PUSH1 0x13 DUP1 DUP3 MSTORE PUSH32 0x4E6175676874795F4261636B75702E6A736F6E00000000000000000000000000 DUP3 DUP9 ADD MSTORE PUSH1 0x80 DUP10 ADD SWAP2 SWAP1 SWAP2 MSTORE DUP7 MLOAD DUP1 DUP9 ADD DUP9 MSTORE DUP5 DUP2 MSTORE PUSH17 0x2230B9B434B733AFA1B83AAF973539B7B7 PUSH1 0x79 SHL DUP2 DUP9 ADD MSTORE PUSH1 0xA0 DUP10 ADD MSTORE DUP7 MLOAD DUP1 DUP9 ADD DUP9 MSTORE PUSH1 0x12 DUP1 DUP3 MSTORE PUSH18 0x2730BAB3B43A3CAFA637B3B4B1973539B7B7 PUSH1 0x71 SHL DUP3 DUP10 ADD MSTORE PUSH1 0xC0 DUP11 ADD SWAP2 SWAP1 SWAP2 MSTORE DUP8 MLOAD DUP1 DUP10 ADD DUP10 MSTORE PUSH1 0x18 DUP1 DUP3 MSTORE PUSH32 0x44617368696E675F446174615F6D696E696E672E6A736F6E0000000000000000 DUP3 DUP11 ADD MSTORE PUSH1 0xE0 DUP12 ADD SWAP2 SWAP1 SWAP2 MSTORE DUP9 MLOAD DUP1 DUP11 ADD DUP11 MSTORE DUP5 DUP2 MSTORE PUSH32 0x4E6175676874795F576972656C6573732E6A736F6E0000000000000000000000 DUP2 DUP11 ADD MSTORE PUSH2 0x100 DUP12 ADD MSTORE DUP9 MLOAD DUP1 DUP11 ADD DUP11 MSTORE PUSH1 0x16 DUP1 DUP3 MSTORE PUSH32 0x44617368696E675F496E746572666163652E6A736F6E00000000000000000000 DUP3 DUP12 ADD MSTORE PUSH2 0x120 DUP13 ADD SWAP2 SWAP1 SWAP2 MSTORE DUP10 MLOAD DUP1 DUP12 ADD DUP12 MSTORE DUP8 DUP2 MSTORE PUSH17 0x2732B93B37BAB9AFA43A36B6173539B7B7 PUSH1 0x79 SHL DUP2 DUP12 ADD MSTORE PUSH2 0x140 DUP13 ADD MSTORE DUP10 MLOAD DUP1 DUP12 ADD DUP12 MSTORE DUP4 DUP2 MSTORE PUSH18 0x2232B1B2B4BA333AB62FA13AB9973539B7B7 PUSH1 0x71 SHL DUP2 DUP12 ADD MSTORE PUSH2 0x160 DUP13 ADD MSTORE DUP10 MLOAD DUP1 DUP12 ADD DUP12 MSTORE PUSH1 0x17 DUP1 DUP3 MSTORE PUSH32 0x4E6F6E6368616C616E745F4C6F675F6F75742E6A736F6E000000000000000000 DUP3 DUP13 ADD MSTORE PUSH2 0x180 DUP14 ADD SWAP2 SWAP1 SWAP2 MSTORE DUP11 MLOAD DUP1 DUP13 ADD DUP13 MSTORE DUP3 DUP2 MSTORE PUSH32 0x44656365697466756C5F4C6F675F6F75742E6A736F6E00000000000000000000 DUP2 DUP13 ADD MSTORE PUSH2 0x1A0 DUP14 ADD MSTORE DUP11 MLOAD DUP1 DUP13 ADD DUP13 MSTORE DUP2 DUP2 MSTORE PUSH32 0x4E6F6E73656E736963616C5F4261636B75702E6A736F6E000000000000000000 DUP2 DUP13 ADD MSTORE PUSH2 0x1C0 DUP14 ADD MSTORE DUP11 MLOAD DUP1 DUP13 ADD DUP13 MSTORE SWAP4 DUP5 MSTORE PUSH18 0x2232B332B0BA32B22FA437B9BA173539B7B7 PUSH1 0x71 SHL DUP5 DUP12 ADD MSTORE PUSH2 0x1E0 DUP13 ADD SWAP4 SWAP1 SWAP4 MSTORE DUP10 MLOAD DUP1 DUP12 ADD DUP12 MSTORE PUSH1 0x19 DUP2 MSTORE PUSH32 0x4E6F6E73656E736963616C5F47696761627974652E6A736F6E00000000000000 DUP2 DUP12 ADD MSTORE PUSH2 0x200 DUP13 ADD MSTORE DUP10 MLOAD DUP1 DUP12 ADD DUP12 MSTORE DUP6 DUP2 MSTORE PUSH32 0x44656C6963696F75735F5769646765742E6A736F6E0000000000000000000000 DUP2 DUP12 ADD MSTORE PUSH2 0x220 DUP13 ADD MSTORE DUP10 MLOAD DUP1 DUP12 ADD DUP12 MSTORE PUSH1 0x1B DUP2 MSTORE PUSH32 0x4E7574726974696F75735F466C6173685F64726976652E6A736F6E0000000000 DUP2 DUP12 ADD MSTORE PUSH2 0x240 DUP13 ADD MSTORE DUP10 MLOAD DUP1 DUP12 ADD DUP12 MSTORE DUP5 DUP2 MSTORE PUSH32 0x44656C6967687466756C5F4170702E6A736F6E00000000000000000000000000 DUP2 DUP12 ADD MSTORE PUSH2 0x260 DUP13 ADD MSTORE DUP10 MLOAD DUP1 DUP12 ADD DUP12 MSTORE DUP5 DUP2 MSTORE PUSH32 0x4F64645F436C69705F626F6172642E6A736F6E00000000000000000000000000 DUP2 DUP12 ADD MSTORE PUSH2 0x280 DUP13 ADD MSTORE DUP10 MLOAD DUP1 DUP12 ADD DUP12 MSTORE SWAP2 DUP3 MSTORE PUSH32 0x44656C6967687466756C5F44617461626173652E6A736F6E0000000000000000 DUP3 DUP11 ADD MSTORE PUSH2 0x2A0 DUP12 ADD SWAP2 SWAP1 SWAP2 MSTORE DUP9 MLOAD DUP1 DUP11 ADD DUP11 MSTORE DUP7 DUP2 MSTORE PUSH17 0x27B2322FA3B4B3B0B13CBA32973539B7B7 PUSH1 0x79 SHL DUP2 DUP11 ADD MSTORE PUSH2 0x2C0 DUP12 ADD MSTORE DUP9 MLOAD DUP1 DUP11 ADD DUP11 MSTORE SWAP1 DUP2 MSTORE PUSH32 0x44656C6967687466756C5F4861636B65722E6A736F6E00000000000000000000 DUP2 DUP10 ADD MSTORE PUSH2 0x2E0 DUP11 ADD MSTORE DUP8 MLOAD DUP1 DUP10 ADD DUP10 MSTORE PUSH1 0x1C DUP2 MSTORE PUSH32 0x4F6C642D66617368696F6E65645F42726F616462616E642E6A736F6E00000000 DUP2 DUP10 ADD MSTORE PUSH2 0x300 DUP11 ADD MSTORE DUP8 MLOAD DUP1 DUP10 ADD DUP10 MSTORE DUP6 DUP2 MSTORE PUSH17 0x2234B9BA34B731BA2FAAB936173539B7B7 PUSH1 0x79 SHL DUP2 DUP10 ADD MSTORE PUSH2 0x320 DUP11 ADD MSTORE DUP8 MLOAD DUP1 DUP10 ADD DUP10 MSTORE SWAP6 DUP7 MSTORE PUSH32 0x50616E69636B795F4B6579776F72642E6A736F6E000000000000000000000000 DUP7 DUP9 ADD MSTORE PUSH2 0x340 DUP10 ADD SWAP6 SWAP1 SWAP6 MSTORE DUP7 MLOAD DUP1 DUP9 ADD DUP9 MSTORE PUSH1 0x1A DUP2 MSTORE PUSH32 0x4469737475726265645F446F6D61696E5F6E616D652E6A736F6E000000000000 DUP2 DUP9 ADD MSTORE PUSH2 0x360 DUP10 ADD MSTORE DUP7 MLOAD DUP1 DUP9 ADD DUP9 MSTORE DUP5 DUP2 MSTORE PUSH17 0x2830B734B1B5BCAFAAB9B2B9173539B7B7 PUSH1 0x79 SHL DUP2 DUP9 ADD MSTORE PUSH2 0x380 DUP10 ADD MSTORE DUP7 MLOAD DUP1 DUP9 ADD DUP9 MSTORE PUSH1 0x10 DUP1 DUP3 MSTORE PUSH16 0x22B0B3B2B92FA33930B6B2973539B7B7 PUSH1 0x81 SHL DUP3 DUP10 ADD MSTORE PUSH2 0x3A0 DUP11 ADD SWAP2 SWAP1 SWAP2 MSTORE DUP8 MLOAD DUP1 DUP10 ADD DUP10 MSTORE SWAP1 DUP2 MSTORE PUSH16 0x2832BA34BA32AFABB7B936973539B7B7 PUSH1 0x81 SHL DUP2 DUP9 ADD MSTORE PUSH2 0x3C0 DUP10 ADD MSTORE DUP7 MLOAD DUP1 DUP9 ADD DUP9 MSTORE DUP3 DUP2 MSTORE PUSH32 0x45637374617469635F56657273696F6E2E6A736F6E0000000000000000000000 DUP2 DUP9 ADD MSTORE PUSH2 0x3E0 DUP10 ADD MSTORE DUP7 MLOAD DUP1 DUP9 ADD DUP9 MSTORE DUP2 DUP2 MSTORE PUSH32 0x50657474795F436C69705F6172742E6A736F6E00000000000000000000000000 DUP2 DUP9 ADD MSTORE PUSH2 0x400 DUP10 ADD MSTORE DUP7 MLOAD DUP1 DUP9 ADD DUP9 MSTORE DUP5 DUP2 MSTORE PUSH17 0x22B1B9BA30BA34B1AFAD34B8173539B7B7 PUSH1 0x79 SHL DUP2 DUP9 ADD MSTORE PUSH2 0x420 DUP10 ADD MSTORE DUP7 MLOAD DUP1 DUP9 ADD DUP9 MSTORE PUSH1 0xD DUP2 MSTORE PUSH13 0x283630B4B72FA1B2173539B7B7 PUSH1 0x99 SHL DUP2 DUP9 ADD MSTORE PUSH2 0x440 DUP10 ADD MSTORE DUP7 MLOAD DUP1 DUP9 ADD DUP9 MSTORE PUSH1 0xF DUP2 MSTORE PUSH15 0x22B630BA32B22FA13AB3973539B7B7 PUSH1 0x89 SHL DUP2 DUP9 ADD MSTORE PUSH2 0x460 DUP10 ADD MSTORE DUP7 MLOAD DUP1 DUP9 ADD DUP9 MSTORE DUP2 DUP2 MSTORE PUSH32 0x506C61696E5F4669726D776172652E6A736F6E00000000000000000000000000 DUP2 DUP9 ADD MSTORE PUSH2 0x480 DUP10 ADD MSTORE DUP7 MLOAD DUP1 DUP9 ADD DUP9 MSTORE SWAP5 DUP6 MSTORE PUSH32 0x456C617465645F446174615F6D696E696E672E6A736F6E000000000000000000 DUP6 DUP8 ADD MSTORE PUSH2 0x4A0 DUP9 ADD SWAP5 SWAP1 SWAP5 MSTORE DUP6 MLOAD DUP1 DUP8 ADD DUP8 MSTORE DUP2 DUP2 MSTORE PUSH32 0x506C61696E5F4D756C74696D656469612E6A736F6E0000000000000000000000 DUP2 DUP8 ADD MSTORE PUSH2 0x4C0 DUP9 ADD MSTORE DUP6 MLOAD DUP1 DUP8 ADD DUP8 MSTORE DUP4 DUP2 MSTORE PUSH17 0x22B632B3B0B73A2FABB4B5B4973539B7B7 PUSH1 0x79 SHL DUP2 DUP8 ADD MSTORE PUSH2 0x4E0 DUP9 ADD MSTORE DUP6 MLOAD DUP1 DUP8 ADD DUP8 MSTORE SWAP1 DUP2 MSTORE PUSH32 0x506C656173616E745F466C616D696E672E6A736F6E0000000000000000000000 DUP2 DUP7 ADD MSTORE PUSH2 0x500 DUP8 ADD MSTORE DUP5 MLOAD DUP1 DUP7 ADD DUP7 MSTORE SWAP3 DUP4 MSTORE PUSH32 0x456D616369617465645F506167652E6A736F6E00000000000000000000000000 DUP4 DUP6 ADD MSTORE PUSH2 0x520 DUP7 ADD SWAP3 SWAP1 SWAP3 MSTORE DUP4 MLOAD DUP1 DUP6 ADD DUP6 MSTORE SWAP1 DUP2 MSTORE PUSH17 0x283632B0B9B0B73A2FAA30B3973539B7B7 PUSH1 0x79 SHL DUP2 DUP5 ADD MSTORE PUSH2 0x540 DUP6 ADD MSTORE DUP3 MLOAD SWAP1 DUP2 ADD SWAP1 SWAP3 MSTORE PUSH1 0x25 DUP1 DUP4 MSTORE PUSH2 0x560 SWAP1 SWAP4 ADD SWAP3 SWAP1 PUSH3 0x6A83 SWAP1 DUP4 ADD CODECOPY DUP2 MSTORE PUSH1 0x20 ADD PUSH1 0x40 MLOAD DUP1 PUSH1 0x40 ADD PUSH1 0x40 MSTORE DUP1 PUSH1 0x11 DUP2 MSTORE PUSH1 0x20 ADD PUSH17 0x2837B4B9B2B22FA9B432B636173539B7B7 PUSH1 0x79 SHL DUP2 MSTORE POP DUP2 MSTORE PUSH1 0x20 ADD PUSH1 0x40 MLOAD DUP1 PUSH1 0x40 ADD PUSH1 0x40 MSTORE DUP1 PUSH1 0x17 DUP2 MSTORE PUSH1 0x20 ADD PUSH32 0x456D6261727261737365645F5365727665722E6A736F6E000000000000000000 DUP2 MSTORE POP DUP2 MSTORE PUSH1 0x20 ADD PUSH1 0x40 MLOAD DUP1 PUSH1 0x40 ADD PUSH1 0x40 MSTORE DUP1 PUSH1 0x18 DUP2 MSTORE PUSH1 0x20 ADD PUSH32 0x506F697365645F54726F6A616E5F686F7273652E6A736F6E0000000000000000 DUP2 MSTORE POP DUP2 MSTORE PUSH1 0x20 ADD PUSH1 0x40 MLOAD DUP1 PUSH1 0x40 ADD PUSH1 0x40 MSTORE DUP1 PUSH1 0x17 DUP2 MSTORE PUSH1 0x20 ADD PUSH32 0x456E6368616E74696E675F507269766163792E6A736F6E000000000000000000 DUP2 MSTORE POP DUP2 MSTORE PUSH1 0x20 ADD PUSH1 0x40 MLOAD DUP1 PUSH1 0x40 ADD PUSH1 0x40 MSTORE DUP1 PUSH1 0x10 DUP2 MSTORE PUSH1 0x20 ADD PUSH16 0x2837B4B9B2B22FAAB9B2B9173539B7B7 PUSH1 0x81 SHL DUP2 MSTORE POP DUP2 MSTORE PUSH1 0x20 ADD PUSH1 0x40 MLOAD DUP1 PUSH1 0x40 ADD PUSH1 0x40 MSTORE DUP1 PUSH1 0x16 DUP2 MSTORE PUSH1 0x20 ADD PUSH32 0x456E6F726D6F75735F54656D706C6174652E6A736F6E00000000000000000000 DUP2 MSTORE POP DUP2 MSTORE PUSH1 0x20 ADD PUSH1 0x40 MLOAD DUP1 PUSH1 0x40 ADD PUSH1 0x40 MSTORE DUP1 PUSH1 0x16 DUP2 MSTORE PUSH1 0x20 ADD PUSH32 0x50726563696F75735F436F6D70757465722E6A736F6E00000000000000000000 DUP2 MSTORE POP DUP2 MSTORE PUSH1 0x20 ADD PUSH1 0x40 MLOAD DUP1 PUSH1 0x40 ADD PUSH1 0x40 MSTORE DUP1 PUSH1 0x16 DUP2 MSTORE PUSH1 0x20 ADD PUSH32 0x456E746875736961737469635F4469736B2E6A736F6E00000000000000000000 DUP2 MSTORE POP DUP2 MSTORE PUSH1 0x20 ADD PUSH1 0x40 MLOAD DUP1 PUSH1 0x40 ADD PUSH1 0x40 MSTORE DUP1 PUSH1 0x13 DUP2 MSTORE PUSH1 0x20 ADD PUSH32 0x50726563696F75735F4C6F6769632E6A736F6E00000000000000000000000000 DUP2 MSTORE POP DUP2 MSTORE PUSH1 0x20 ADD PUSH1 0x40 MLOAD DUP1 PUSH1 0x40 ADD PUSH1 0x40 MSTORE DUP1 PUSH1 0x18 DUP2 MSTORE PUSH1 0x20 ADD PUSH32 0x45786173706572617465645F456E63727970742E6A736F6E0000000000000000 DUP2 MSTORE POP DUP2 MSTORE PUSH1 0x20 ADD PUSH1 0x40 MLOAD DUP1 PUSH1 0x40 ADD PUSH1 0x40 MSTORE DUP1 PUSH1 0x1A DUP2 MSTORE PUSH1 0x20 ADD PUSH32 0x507269636B6C795F5375706572636F6D70757465722E6A736F6E000000000000 DUP2 MSTORE POP DUP2 MSTORE PUSH1 0x20 ADD PUSH1 0x40 MLOAD DUP1 PUSH1 0x40 ADD PUSH1 0x40 MSTORE DUP1 PUSH1 0x17 DUP2 MSTORE PUSH1 0x20 ADD PUSH32 0x45786173706572617465645F46696E6465722E6A736F6E000000000000000000 DUP2 MSTORE POP DUP2 MSTORE PUSH1 0x20 ADD PUSH1 0x40 MLOAD DUP1 PUSH1 0x40 ADD PUSH1 0x40 MSTORE DUP1 PUSH1 0x12 DUP2 MSTORE PUSH1 0x20 ADD PUSH18 0x283937BAB22FA9BA37B930B3B2973539B7B7 PUSH1 0x71 SHL DUP2 MSTORE POP DUP2 MSTORE PUSH1 0x20 ADD PUSH1 0x40 MLOAD DUP1 PUSH1 0x40 ADD PUSH1 0x40 MSTORE DUP1 PUSH1 0x13 DUP2 MSTORE PUSH1 0x20 ADD PUSH32 0x457863697465645F4861636B65722E6A736F6E00000000000000000000000000 DUP2 MSTORE POP DUP2 MSTORE PUSH1 0x20 ADD PUSH1 0x40 MLOAD DUP1 PUSH1 0x40 ADD PUSH1 0x40 MSTORE DUP1 PUSH1 0x18 DUP2 MSTORE PUSH1 0x20 ADD PUSH32 0x50756E67656E745F466C6F7070795F6469736B2E6A736F6E0000000000000000 DUP2 MSTORE POP DUP2 MSTORE PUSH1 0x20 ADD PUSH1 0x40 MLOAD DUP1 PUSH1 0x40 ADD PUSH1 0x40 MSTORE DUP1 PUSH1 0x16 DUP2 MSTORE PUSH1 0x20 ADD PUSH32 0x457863697465645F486F6D655F706167652E6A736F6E00000000000000000000 DUP2 MSTORE POP DUP2 MSTORE PUSH1 0x20 ADD PUSH1 0x40 MLOAD DUP1 PUSH1 0x40 ADD PUSH1 0x40 MSTORE DUP1 PUSH1 0x10 DUP2 MSTORE PUSH1 0x20 ADD PUSH16 0x283AB73CAFA6B4B93937B9173539B7B7 PUSH1 0x81 SHL DUP2 MSTORE POP DUP2 MSTORE PUSH1 0x20 ADD PUSH1 0x40 MLOAD DUP1 PUSH1 0x40 ADD PUSH1 0x40 MSTORE DUP1 PUSH1 0x16 DUP2 MSTORE PUSH1 0x20 ADD PUSH32 0x457874656E736976655F506C75672D696E2E6A736F6E00000000000000000000 DUP2 MSTORE POP DUP2 MSTORE PUSH1 0x20 ADD PUSH1 0x40 MLOAD DUP1 PUSH1 0x40 ADD PUSH1 0x40 MSTORE DUP1 PUSH1 0xF DUP2 MSTORE PUSH1 0x20 ADD PUSH15 0x28BAB0B4B73A2FA13AB9973539B7B7 PUSH1 0x89 SHL DUP2 MSTORE POP DUP2 MSTORE PUSH1 0x20 ADD PUSH1 0x40 MLOAD DUP1 PUSH1 0x40 ADD PUSH1 0x40 MSTORE DUP1 PUSH1 0x18 DUP2 MSTORE PUSH1 0x20 ADD PUSH32 0x457875626572616E745F42726F616462616E642E6A736F6E0000000000000000 DUP2 MSTORE POP DUP2 MSTORE PUSH1 0x20 ADD PUSH1 0x40 MLOAD DUP1 PUSH1 0x40 ADD PUSH1 0x40 MSTORE DUP1 PUSH1 0x11 DUP2 MSTORE PUSH1 0x20 ADD PUSH17 0x28BAB0B4B73A2FA9B432B636173539B7B7 PUSH1 0x79 SHL DUP2 MSTORE POP DUP2 MSTORE PUSH1 0x20 ADD PUSH1 0x40 MLOAD DUP1 PUSH1 0x40 ADD PUSH1 0x40 MSTORE DUP1 PUSH1 0x15 DUP2 MSTORE PUSH1 0x20 ADD PUSH32 0x457875626572616E745F4B65726E656C2E6A736F6E0000000000000000000000 DUP2 MSTORE POP DUP2 MSTORE PUSH1 0x20 ADD PUSH1 0x40 MLOAD DUP1 PUSH1 0x40 ADD PUSH1 0x40 MSTORE DUP1 PUSH1 0x16 DUP2 MSTORE PUSH1 0x20 ADD PUSH32 0x5175697A7A6963616C5F537079776172652E6A736F6E00000000000000000000 DUP2 MSTORE POP DUP2 MSTORE PUSH1 0x20 ADD PUSH1 0x40 MLOAD DUP1 PUSH1 0x40 ADD PUSH1 0x40 MSTORE DUP1 PUSH1 0x14 DUP2 MSTORE PUSH1 0x20 ADD PUSH32 0x46616E7461737469635F4C696E75782E6A736F6E000000000000000000000000 DUP2 MSTORE POP DUP2 MSTORE PUSH1 0x20 ADD PUSH1 0x40 MLOAD DUP1 PUSH1 0x40 ADD PUSH1 0x40 MSTORE DUP1 PUSH1 0x15 DUP2 MSTORE PUSH1 0x20 ADD PUSH32 0x526570756C736976655F416E616C6F672E6A736F6E0000000000000000000000 DUP2 MSTORE POP DUP2 MSTORE PUSH1 0x20 ADD PUSH1 0x40 MLOAD DUP1 PUSH1 0x40 ADD PUSH1 0x40 MSTORE DUP1 PUSH1 0x19 DUP2 MSTORE PUSH1 0x20 ADD PUSH32 0x46616E7461737469635F53637265656E73686F742E6A736F6E00000000000000 DUP2 MSTORE POP DUP2 MSTORE PUSH1 0x20 ADD PUSH1 0x40 MLOAD DUP1 PUSH1 0x40 ADD PUSH1 0x40 MSTORE DUP1 PUSH1 0x16 DUP2 MSTORE PUSH1 0x20 ADD PUSH32 0x526573706F6E736976655F4B65726E656C2E6A736F6E00000000000000000000 DUP2 MSTORE POP DUP2 MSTORE PUSH1 0x20 ADD PUSH1 0x40 MLOAD DUP1 PUSH1 0x40 ADD PUSH1 0x40 MSTORE DUP1 PUSH1 0x10 DUP2 MSTORE PUSH1 0x20 ADD PUSH16 0x233630BA2FA837B93A30B6173539B7B7 PUSH1 0x81 SHL DUP2 MSTORE POP DUP2 MSTORE PUSH1 0x20 ADD PUSH1 0x40 MLOAD DUP1 PUSH1 0x40 ADD PUSH1 0x40 MSTORE DUP1 PUSH1 0x16 DUP2 MSTORE PUSH1 0x20 ADD PUSH32 0x526573706F6E736976655F4F75747075742E6A736F6E00000000000000000000 DUP2 MSTORE POP DUP2 MSTORE PUSH1 0x20 ADD PUSH1 0x40 MLOAD DUP1 PUSH1 0x40 ADD PUSH1 0x40 MSTORE DUP1 PUSH1 0x1B DUP2 MSTORE PUSH1 0x20 ADD PUSH32 0x466C6F7070795F436C6F75645F636F6D707574696E672E6A736F6E0000000000 DUP2 MSTORE POP DUP2 MSTORE PUSH1 0x20 ADD PUSH1 0x40 MLOAD DUP1 PUSH1 0x40 ADD PUSH1 0x40 MSTORE DUP1 PUSH1 0x15 DUP2 MSTORE PUSH1 0x20 ADD PUSH32 0x526573706F6E736976655F5368656C6C2E6A736F6E0000000000000000000000 DUP2 MSTORE POP DUP2 MSTORE PUSH1 0x20 ADD PUSH1 0x40 MLOAD DUP1 PUSH1 0x40 ADD PUSH1 0x40 MSTORE DUP1 PUSH1 0x15 DUP2 MSTORE PUSH1 0x20 ADD PUSH32 0x466C6F7070795F496E746572666163652E6A736F6E0000000000000000000000 DUP2 MSTORE POP DUP2 MSTORE PUSH1 0x20 ADD PUSH1 0x40 MLOAD DUP1 PUSH1 0x40 ADD PUSH1 0x40 MSTORE DUP1 PUSH1 0x13 DUP2 MSTORE PUSH1 0x20 ADD PUSH32 0x526573706F6E736976655F5461672E6A736F6E00000000000000000000000000 DUP2 MSTORE POP DUP2 MSTORE PUSH1 0x20 ADD PUSH1 0x40 MLOAD DUP1 PUSH1 0x40 ADD PUSH1 0x40 MSTORE DUP1 PUSH1 0x17 DUP2 MSTORE PUSH1 0x20 ADD PUSH32 0x466C7574746572696E675F496E74656765722E6A736F6E000000000000000000 DUP2 MSTORE POP DUP2 MSTORE PUSH1 0x20 ADD PUSH1 0x40 MLOAD DUP1 PUSH1 0x40 ADD PUSH1 0x40 MSTORE DUP1 PUSH1 0x15 DUP2 MSTORE PUSH1 0x20 ADD PUSH32 0x526F627573745F496E746572666163652E6A736F6E0000000000000000000000 DUP2 MSTORE POP DUP2 MSTORE PUSH1 0x20 ADD PUSH1 0x40 MLOAD DUP1 PUSH1 0x40 ADD PUSH1 0x40 MSTORE DUP1 PUSH1 0x16 DUP2 MSTORE PUSH1 0x20 ADD PUSH32 0x466C7574746572696E675F55706C6F61642E6A736F6E00000000000000000000 DUP2 MSTORE POP DUP2 MSTORE PUSH1 0x20 ADD PUSH1 0x40 MLOAD DUP1 PUSH1 0x40 ADD PUSH1 0x40 MSTORE DUP1 PUSH1 0x11 DUP2 MSTORE PUSH1 0x20 ADD PUSH17 0x2937BAB7322FA334B73232B9173539B7B7 PUSH1 0x79 SHL DUP2 MSTORE POP DUP2 MSTORE PUSH1 0x20 ADD PUSH1 0x40 MLOAD DUP1 PUSH1 0x40 ADD PUSH1 0x40 MSTORE DUP1 PUSH1 0x13 DUP2 MSTORE PUSH1 0x20 ADD PUSH32 0x466F6F6C6973685F4B65726E656C2E6A736F6E00000000000000000000000000 DUP2 MSTORE POP DUP2 MSTORE PUSH1 0x20 ADD PUSH1 0x40 MLOAD DUP1 PUSH1 0x40 ADD PUSH1 0x40 MSTORE DUP1 PUSH1 0x13 DUP2 MSTORE PUSH1 0x20 ADD PUSH32 0x526F756E645F557365726E616D652E6A736F6E00000000000000000000000000 DUP2 MSTORE POP DUP2 MSTORE PUSH1 0x20 ADD PUSH1 0x40 MLOAD DUP1 PUSH1 0x40 ADD PUSH1 0x40 MSTORE DUP1 PUSH1 0x14 DUP2 MSTORE PUSH1 0x20 ADD PUSH32 0x466F6F6C6973685F4E6574776F726B2E6A736F6E000000000000000000000000 DUP2 MSTORE POP DUP2 MSTORE PUSH1 0x20 ADD PUSH1 0x40 MLOAD DUP1 PUSH1 0x40 ADD PUSH1 0x40 MSTORE DUP1 PUSH1 0x15 DUP2 MSTORE PUSH1 0x20 ADD PUSH32 0x53616C74795F43796265726372696D652E6A736F6E0000000000000000000000 DUP2 MSTORE POP DUP2 MSTORE PUSH1 0x20 ADD PUSH1 0x40 MLOAD DUP1 PUSH1 0x40 ADD PUSH1 0x40 MSTORE DUP1 PUSH1 0x11 DUP2 MSTORE PUSH1 0x20 ADD PUSH17 0x233930B73A34B1AFA530BB30973539B7B7 PUSH1 0x79 SHL DUP2 MSTORE POP DUP2 MSTORE PUSH1 0x20 ADD PUSH1 0x40 MLOAD DUP1 PUSH1 0x40 ADD PUSH1 0x40 MSTORE DUP1 PUSH1 0x14 DUP2 MSTORE PUSH1 0x20 ADD PUSH32 0x53616C74795F53686966745F6B65792E6A736F6E000000000000000000000000 DUP2 MSTORE POP DUP2 MSTORE PUSH1 0x20 ADD PUSH1 0x40 MLOAD DUP1 PUSH1 0x40 ADD PUSH1 0x40 MSTORE DUP1 PUSH1 0x16 DUP2 MSTORE PUSH1 0x20 ADD PUSH32 0x46726573685F446F6D61696E5F6E616D652E6A736F6E00000000000000000000 DUP2 MSTORE POP DUP2 MSTORE PUSH1 0x20 ADD PUSH1 0x40 MLOAD DUP1 PUSH1 0x40 ADD PUSH1 0x40 MSTORE DUP1 PUSH1 0x16 DUP2 MSTORE PUSH1 0x20 ADD PUSH32 0x5361726361737469635F4465736B746F702E6A736F6E00000000000000000000 DUP2 MSTORE POP DUP2 MSTORE PUSH1 0x20 ADD PUSH1 0x40 MLOAD DUP1 PUSH1 0x40 ADD PUSH1 0x40 MSTORE DUP1 PUSH1 0x11 DUP2 MSTORE PUSH1 0x20 ADD PUSH17 0x233932B9B42FA630B83A37B8173539B7B7 PUSH1 0x79 SHL DUP2 MSTORE POP DUP2 MSTORE PUSH1 0x20 ADD PUSH1 0x40 MLOAD DUP1 PUSH1 0x40 ADD PUSH1 0x40 MSTORE DUP1 PUSH1 0x13 DUP2 MSTORE PUSH1 0x20 ADD PUSH32 0x5361726361737469635F536176652E6A736F6E00000000000000000000000000 DUP2 MSTORE POP DUP2 MSTORE PUSH1 0x20 ADD PUSH1 0x40 MLOAD DUP1 PUSH1 0x40 ADD PUSH1 0x40 MSTORE DUP1 PUSH1 0x13 DUP2 MSTORE PUSH1 0x20 ADD PUSH32 0x46726573685F50617373776F72642E6A736F6E00000000000000000000000000 DUP2 MSTORE POP DUP2 MSTORE PUSH1 0x20 ADD PUSH1 0x40 MLOAD DUP1 PUSH1 0x40 ADD PUSH1 0x40 MSTORE DUP1 PUSH1 0x11 DUP2 MSTORE PUSH1 0x20 ADD PUSH17 0x29B1B0B93CAFA937BABA32B9173539B7B7 PUSH1 0x79 SHL DUP2 MSTORE POP DUP2 MSTORE PUSH1 0x20 ADD PUSH1 0x40 MLOAD DUP1 PUSH1 0x40 ADD PUSH1 0x40 MSTORE DUP1 PUSH1 0xE DUP2 MSTORE PUSH1 0x20 ADD PUSH14 0x233932B9B42FA930B6973539B7B7 PUSH1 0x91 SHL DUP2 MSTORE POP DUP2 MSTORE PUSH1 0x20 ADD PUSH1 0x40 MLOAD DUP1 PUSH1 0x40 ADD PUSH1 0x40 MSTORE DUP1 PUSH1 0x11 DUP2 MSTORE PUSH1 0x20 ADD PUSH17 0x29B430B5BCAFA7BABA383ABA173539B7B7 PUSH1 0x79 SHL DUP2 MSTORE POP DUP2 MSTORE PUSH1 0x20 ADD PUSH1 0x40 MLOAD DUP1 PUSH1 0x40 ADD PUSH1 0x40 MSTORE DUP1 PUSH1 0x14 DUP2 MSTORE PUSH1 0x20 ADD PUSH32 0x46726573685F5368617265776172652E6A736F6E000000000000000000000000 DUP2 MSTORE POP DUP2 MSTORE PUSH1 0x20 ADD PUSH1 0x40 MLOAD DUP1 PUSH1 0x40 ADD PUSH1 0x40 MSTORE DUP1 PUSH1 0x11 DUP2 MSTORE PUSH1 0x20 ADD PUSH17 0x29B430B63637BBAFA634B735973539B7B7 PUSH1 0x79 SHL DUP2 MSTORE POP DUP2 MSTORE PUSH1 0x20 ADD PUSH1 0x40 MLOAD DUP1 PUSH1 0x40 ADD PUSH1 0x40 MSTORE DUP1 PUSH1 0x14 DUP2 MSTORE PUSH1 0x20 ADD PUSH32 0x4672757374726174696E675F4275672E6A736F6E000000000000000000000000 DUP2 MSTORE POP DUP2 MSTORE PUSH1 0x20 ADD PUSH1 0x40 MLOAD DUP1 PUSH1 0x40 ADD PUSH1 0x40 MSTORE DUP1 PUSH1 0xE DUP2 MSTORE PUSH1 0x20 ADD PUSH14 0x29B4B635BCAFA237BA173539B7B7 PUSH1 0x91 SHL DUP2 MSTORE POP DUP2 MSTORE PUSH1 0x20 ADD PUSH1 0x40 MLOAD DUP1 PUSH1 0x40 ADD PUSH1 0x40 MSTORE DUP1 PUSH1 0x11 DUP2 MSTORE PUSH1 0x20 ADD PUSH17 0x233AB7373CAFA134BA36B0B8173539B7B7 PUSH1 0x79 SHL DUP2 MSTORE POP DUP2 MSTORE PUSH1 0x20 ADD PUSH1 0x40 MLOAD DUP1 PUSH1 0x40 ADD PUSH1 0x40 MSTORE DUP1 PUSH1 0x15 DUP2 MSTORE PUSH1 0x20 ADD PUSH32 0x53696C6B795F53637265656E73686F742E6A736F6E0000000000000000000000 DUP2 MSTORE POP DUP2 MSTORE PUSH1 0x20 ADD PUSH1 0x40 MLOAD DUP1 PUSH1 0x40 ADD PUSH1 0x40 MSTORE DUP1 PUSH1 0x14 DUP2 MSTORE PUSH1 0x20 ADD PUSH32 0x46756E6E795F5265616C2D74696D652E6A736F6E000000000000000000000000 DUP2 MSTORE POP DUP2 MSTORE PUSH1 0x20 ADD PUSH1 0x40 MLOAD DUP1 PUSH1 0x40 ADD PUSH1 0x40 MSTORE DUP1 PUSH1 0x10 DUP2 MSTORE PUSH1 0x20 ADD PUSH16 0x29B4B635BCAFAA3930B9B4173539B7B7 PUSH1 0x81 SHL DUP2 MSTORE POP DUP2 MSTORE PUSH1 0x20 ADD PUSH1 0x40 MLOAD DUP1 PUSH1 0x40 ADD PUSH1 0x40 MSTORE DUP1 PUSH1 0x11 DUP2 MSTORE PUSH1 0x20 ADD PUSH17 0x233ABD3D3CAFA13AB33332B9173539B7B7 PUSH1 0x79 SHL DUP2 MSTORE POP DUP2 MSTORE PUSH1 0x20 ADD PUSH1 0x40 MLOAD DUP1 PUSH1 0x40 ADD PUSH1 0x40 MSTORE DUP1 PUSH1 0x11 DUP2 MSTORE PUSH1 0x20 ADD PUSH17 0x29B634B6BCAFA8BBB2B93A3C973539B7B7 PUSH1 0x79 SHL DUP2 MSTORE POP DUP2 MSTORE PUSH1 0x20 ADD PUSH1 0x40 MLOAD DUP1 PUSH1 0x40 ADD PUSH1 0x40 MSTORE DUP1 PUSH1 0x12 DUP2 MSTORE PUSH1 0x20 ADD PUSH18 0x233ABD3D3CAFAB34B93A3AB0B6173539B7B7 PUSH1 0x71 SHL DUP2 MSTORE POP DUP2 MSTORE PUSH1 0x20 ADD PUSH1 0x40 MLOAD DUP1 PUSH1 0x40 ADD PUSH1 0x40 MSTORE DUP1 PUSH1 0x13 DUP2 MSTORE PUSH1 0x20 ADD PUSH32 0x536D616C6C5F496E7465726E65742E6A736F6E00000000000000000000000000 DUP2 MSTORE POP DUP2 MSTORE PUSH1 0x20 ADD PUSH1 0x40 MLOAD DUP1 PUSH1 0x40 ADD PUSH1 0x40 MSTORE DUP1 PUSH1 0x16 DUP2 MSTORE PUSH1 0x20 ADD PUSH32 0x47617564795F446174615F6D696E696E672E6A736F6E00000000000000000000 DUP2 MSTORE POP DUP2 MSTORE PUSH1 0x20 ADD PUSH1 0x40 MLOAD DUP1 PUSH1 0x40 ADD PUSH1 0x40 MSTORE DUP1 PUSH1 0xF DUP2 MSTORE PUSH1 0x20 ADD PUSH15 0x29B6B0B6362FA830BA34173539B7B7 PUSH1 0x89 SHL DUP2 MSTORE POP DUP2 MSTORE PUSH1 0x20 ADD PUSH1 0x40 MLOAD DUP1 PUSH1 0x40 ADD PUSH1 0x40 MSTORE DUP1 PUSH1 0x13 DUP2 MSTORE PUSH1 0x20 ADD PUSH32 0x47656E746C655F4D616C776172652E6A736F6E00000000000000000000000000 DUP2 MSTORE POP DUP2 MSTORE PUSH1 0x20 ADD PUSH1 0x40 MLOAD DUP1 PUSH1 0x40 ADD PUSH1 0x40 MSTORE DUP1 PUSH1 0x13 DUP2 MSTORE PUSH1 0x20 ADD PUSH32 0x536D61726D795F44796E616D69632E6A736F6E00000000000000000000000000 DUP2 MSTORE POP DUP2 MSTORE PUSH1 0x20 ADD PUSH1 0x40 MLOAD DUP1 PUSH1 0x40 ADD PUSH1 0x40 MSTORE DUP1 PUSH1 0x15 DUP2 MSTORE PUSH1 0x20 ADD PUSH32 0x47686173746C795F4A6F79737469636B2E6A736F6E0000000000000000000000 DUP2 MSTORE POP DUP2 MSTORE PUSH1 0x20 ADD PUSH1 0x40 MLOAD DUP1 PUSH1 0x40 ADD PUSH1 0x40 MSTORE DUP1 PUSH1 0x13 DUP2 MSTORE PUSH1 0x20 ADD PUSH32 0x536D6F6767795F4D6F6E69746F722E6A736F6E00000000000000000000000000 DUP2 MSTORE POP DUP2 MSTORE PUSH1 0x20 ADD PUSH1 0x40 MLOAD DUP1 PUSH1 0x40 ADD PUSH1 0x40 MSTORE DUP1 PUSH1 0x14 DUP2 MSTORE PUSH1 0x20 ADD PUSH32 0x47686173746C795F506F64636173742E6A736F6E000000000000000000000000 DUP2 MSTORE POP DUP2 MSTORE PUSH1 0x20 ADD PUSH1 0x40 MLOAD DUP1 PUSH1 0x40 ADD PUSH1 0x40 MSTORE DUP1 PUSH1 0xF DUP2 MSTORE PUSH1 0x20 ADD PUSH15 0x29B7B3B3BCAFA937B7BA173539B7B7 PUSH1 0x89 SHL DUP2 MSTORE POP DUP2 MSTORE PUSH1 0x20 ADD PUSH1 0x40 MLOAD DUP1 PUSH1 0x40 ADD PUSH1 0x40 MSTORE DUP1 PUSH1 0x13 DUP2 MSTORE PUSH1 0x20 ADD PUSH32 0x47686173746C795F506F702D75702E6A736F6E00000000000000000000000000 DUP2 MSTORE POP DUP2 MSTORE PUSH1 0x20 ADD PUSH1 0x40 MLOAD DUP1 PUSH1 0x40 ADD PUSH1 0x40 MSTORE DUP1 PUSH1 0xF DUP2 MSTORE PUSH1 0x20 ADD PUSH15 0x29B7BAB92FA830B9BA32973539B7B7 PUSH1 0x89 SHL DUP2 MSTORE POP DUP2 MSTORE PUSH1 0x20 ADD PUSH1 0x40 MLOAD DUP1 PUSH1 0x40 ADD PUSH1 0x40 MSTORE DUP1 PUSH1 0x17 DUP2 MSTORE PUSH1 0x20 ADD PUSH32 0x47686173746C795F5374617475735F6261722E6A736F6E000000000000000000 DUP2 MSTORE POP DUP2 MSTORE PUSH1 0x20 ADD PUSH1 0x40 MLOAD DUP1 PUSH1 0x40 ADD PUSH1 0x40 MSTORE DUP1 PUSH1 0x10 DUP2 MSTORE PUSH1 0x20 ADD PUSH16 0x29B834B1BCAFA0B93930BC973539B7B7 PUSH1 0x81 SHL DUP2 MSTORE POP DUP2 MSTORE PUSH1 0x20 ADD PUSH1 0x40 MLOAD DUP1 PUSH1 0x40 ADD PUSH1 0x40 MSTORE DUP1 PUSH1 0x14 DUP2 MSTORE PUSH1 0x20 ADD PUSH32 0x47686173746C795F56657273696F6E2E6A736F6E000000000000000000000000 DUP2 MSTORE POP DUP2 MSTORE PUSH1 0x20 ADD PUSH1 0x40 MLOAD DUP1 PUSH1 0x40 ADD PUSH1 0x40 MSTORE DUP1 PUSH1 0x13 DUP2 MSTORE PUSH1 0x20 ADD PUSH32 0x53706963795F44617461626173652E6A736F6E00000000000000000000000000 DUP2 MSTORE POP DUP2 MSTORE PUSH1 0x20 ADD PUSH1 0x40 MLOAD DUP1 PUSH1 0x40 ADD PUSH1 0x40 MSTORE DUP1 PUSH1 0x13 DUP2 MSTORE PUSH1 0x20 ADD PUSH32 0x47696464795F436F6D70757465722E6A736F6E00000000000000000000000000 DUP2 MSTORE POP DUP2 MSTORE PUSH1 0x20 ADD PUSH1 0x40 MLOAD DUP1 PUSH1 0x40 ADD PUSH1 0x40 MSTORE DUP1 PUSH1 0x13 DUP2 MSTORE PUSH1 0x20 ADD PUSH32 0x5374616C655F446F776E6C6F61642E6A736F6E00000000000000000000000000 DUP2 MSTORE POP DUP2 MSTORE PUSH1 0x20 ADD PUSH1 0x40 MLOAD DUP1 PUSH1 0x40 ADD PUSH1 0x40 MSTORE DUP1 PUSH1 0x11 DUP2 MSTORE PUSH1 0x20 ADD PUSH17 0x23B4B2323CAFA630B83A37B8173539B7B7 PUSH1 0x79 SHL DUP2 MSTORE POP DUP2 MSTORE PUSH1 0x20 ADD PUSH1 0x40 MLOAD DUP1 PUSH1 0x40 ADD PUSH1 0x40 MSTORE DUP1 PUSH1 0x11 DUP2 MSTORE PUSH1 0x20 ADD PUSH17 0x29BA32B0B23CAFA6B7B232B6973539B7B7 PUSH1 0x79 SHL DUP2 MSTORE POP DUP2 MSTORE PUSH1 0x20 ADD PUSH1 0x40 MLOAD DUP1 PUSH1 0x40 ADD PUSH1 0x40 MSTORE DUP1 PUSH1 0x11 DUP2 MSTORE PUSH1 0x20 ADD PUSH17 0x23B4B3B0B73A34B1AFA13AB3973539B7B7 PUSH1 0x79 SHL DUP2 MSTORE POP DUP2 MSTORE PUSH1 0x20 ADD PUSH1 0x40 MLOAD DUP1 PUSH1 0x40 ADD PUSH1 0x40 MSTORE DUP1 PUSH1 0x13 DUP2 MSTORE PUSH1 0x20 ADD PUSH32 0x5374656164795F507269766163792E6A736F6E00000000000000000000000000 DUP2 MSTORE POP DUP2 MSTORE PUSH1 0x20 ADD PUSH1 0x40 MLOAD DUP1 PUSH1 0x40 ADD PUSH1 0x40 MSTORE DUP1 PUSH1 0x15 DUP2 MSTORE PUSH1 0x20 ADD PUSH32 0x476967616E7469635F4C6F675F6F75742E6A736F6E0000000000000000000000 DUP2 MSTORE POP DUP2 MSTORE PUSH1 0x20 ADD PUSH1 0x40 MLOAD DUP1 PUSH1 0x40 ADD PUSH1 0x40 MSTORE DUP1 PUSH1 0x10 DUP2 MSTORE PUSH1 0x20 ADD PUSH16 0x29BA34B1B5BCAFA337B73A173539B7B7 PUSH1 0x81 SHL DUP2 MSTORE POP DUP2 MSTORE PUSH1 0x20 ADD PUSH1 0x40 MLOAD DUP1 PUSH1 0x40 ADD PUSH1 0x40 MSTORE DUP1 PUSH1 0x16 DUP2 MSTORE PUSH1 0x20 ADD PUSH32 0x476C616D6F726F75735F4465736B746F702E6A736F6E00000000000000000000 DUP2 MSTORE POP DUP2 MSTORE PUSH1 0x20 ADD PUSH1 0x40 MLOAD DUP1 PUSH1 0x40 ADD PUSH1 0x40 MSTORE DUP1 PUSH1 0xF DUP2 MSTORE PUSH1 0x20 ADD PUSH15 0x29BA37B936BCAFAAB936173539B7B7 PUSH1 0x89 SHL DUP2 MSTORE POP DUP2 MSTORE PUSH1 0x20 ADD PUSH1 0x40 MLOAD DUP1 PUSH1 0x40 ADD PUSH1 0x40 MSTORE DUP1 PUSH1 0x12 DUP2 MSTORE PUSH1 0x20 ADD PUSH18 0x23B632B0B6B4B733AFA13CBA32973539B7B7 PUSH1 0x71 SHL DUP2 MSTORE POP DUP2 MSTORE PUSH1 0x20 ADD PUSH1 0x40 MLOAD DUP1 PUSH1 0x40 ADD PUSH1 0x40 MSTORE DUP1 PUSH1 0x1A DUP2 MSTORE PUSH1 0x20 ADD PUSH32 0x53746F75745F436C6F75645F636F6D707574696E672E6A736F6E000000000000 DUP2 MSTORE POP DUP2 MSTORE PUSH1 0x20 ADD PUSH1 0x40 MLOAD DUP1 PUSH1 0x40 ADD PUSH1 0x40 MSTORE DUP1 PUSH1 0x15 DUP2 MSTORE PUSH1 0x20 ADD PUSH32 0x476C65616D696E675F50726F636573732E6A736F6E0000000000000000000000 DUP2 MSTORE POP DUP2 MSTORE PUSH1 0x20 ADD PUSH1 0x40 MLOAD DUP1 PUSH1 0x40 ADD PUSH1 0x40 MSTORE DUP1 PUSH1 0x18 DUP2 MSTORE PUSH1 0x20 ADD PUSH32 0x5374756E6E696E675F50726F6772616D6D65722E6A736F6E0000000000000000 DUP2 MSTORE POP DUP2 MSTORE PUSH1 0x20 ADD PUSH1 0x40 MLOAD DUP1 PUSH1 0x40 ADD PUSH1 0x40 MSTORE DUP1 PUSH1 0x12 DUP2 MSTORE PUSH1 0x20 ADD PUSH18 0x23B632B0B6B4B733AFA9B1B0B7173539B7B7 PUSH1 0x71 SHL DUP2 MSTORE POP DUP2 MSTORE PUSH1 0x20 ADD PUSH1 0x40 MLOAD DUP1 PUSH1 0x40 ADD PUSH1 0x40 MSTORE DUP1 PUSH1 0x18 DUP2 MSTORE PUSH1 0x20 ADD PUSH32 0x5375627374616E7469616C5F4D6F6E69746F722E6A736F6E0000000000000000 DUP2 MSTORE POP DUP2 MSTORE PUSH1 0x20 ADD PUSH1 0x40 MLOAD DUP1 PUSH1 0x40 ADD PUSH1 0x40 MSTORE DUP1 PUSH1 0x15 DUP2 MSTORE PUSH1 0x20 ADD PUSH32 0x476C6F72696F75735F496E74656765722E6A736F6E0000000000000000000000 DUP2 MSTORE POP DUP2 MSTORE PUSH1 0x20 ADD PUSH1 0x40 MLOAD DUP1 PUSH1 0x40 ADD PUSH1 0x40 MSTORE DUP1 PUSH1 0x13 DUP2 MSTORE PUSH1 0x20 ADD PUSH32 0x53756363756C656E745F49636F6E2E6A736F6E00000000000000000000000000 DUP2 MSTORE POP DUP2 MSTORE PUSH1 0x20 ADD PUSH1 0x40 MLOAD DUP1 PUSH1 0x40 ADD PUSH1 0x40 MSTORE DUP1 PUSH1 0x18 DUP2 MSTORE PUSH1 0x20 ADD PUSH32 0x476C6F72696F75735F50726F6772616D6D65722E6A736F6E0000000000000000 DUP2 MSTORE POP DUP2 MSTORE PUSH1 0x20 ADD PUSH1 0x40 MLOAD DUP1 PUSH1 0x40 ADD PUSH1 0x40 MSTORE DUP1 PUSH1 0x16 DUP2 MSTORE PUSH1 0x20 ADD PUSH32 0x537570657266696369616C5F41727261792E6A736F6E00000000000000000000 DUP2 MSTORE POP DUP2 MSTORE PUSH1 0x20 ADD PUSH1 0x40 MLOAD DUP1 PUSH1 0x40 ADD PUSH1 0x40 MSTORE DUP1 PUSH1 0x14 DUP2 MSTORE PUSH1 0x20 ADD PUSH32 0x476F7267656F75735F5069726163792E6A736F6E000000000000000000000000 DUP2 MSTORE POP DUP2 MSTORE PUSH1 0x20 ADD PUSH1 0x40 MLOAD DUP1 PUSH1 0x40 ADD PUSH1 0x40 MSTORE DUP1 PUSH1 0x16 DUP2 MSTORE PUSH1 0x20 ADD PUSH32 0x477261636566756C5F53656375726974792E6A736F6E00000000000000000000 DUP2 MSTORE POP DUP2 MSTORE PUSH1 0x20 ADD PUSH1 0x40 MLOAD DUP1 PUSH1 0x40 ADD PUSH1 0x40 MSTORE DUP1 PUSH1 0x18 DUP2 MSTORE PUSH1 0x20 ADD PUSH32 0x5377616E6B795F54726F6A616E5F686F7273652E6A736F6E0000000000000000 DUP2 MSTORE POP DUP2 MSTORE PUSH1 0x20 ADD PUSH1 0x40 MLOAD DUP1 PUSH1 0x40 ADD PUSH1 0x40 MSTORE DUP1 PUSH1 0x16 DUP2 MSTORE PUSH1 0x20 ADD PUSH32 0x477261636566756C5F536F6674776172652E6A736F6E00000000000000000000 DUP2 MSTORE POP DUP2 MSTORE PUSH1 0x20 ADD PUSH1 0x40 MLOAD DUP1 PUSH1 0x40 ADD PUSH1 0x40 MSTORE DUP1 PUSH1 0xF DUP2 MSTORE PUSH1 0x20 ADD PUSH15 0x29BBB2B2BA2FA437B9BA173539B7B7 PUSH1 0x89 SHL DUP2 MSTORE POP DUP2 MSTORE PUSH1 0x20 ADD PUSH1 0x40 MLOAD DUP1 PUSH1 0x40 ADD PUSH1 0x40 MSTORE DUP1 PUSH1 0xF DUP2 MSTORE PUSH1 0x20 ADD PUSH15 0x23B932B0B9BCAFA13AB9973539B7B7 PUSH1 0x89 SHL DUP2 MSTORE POP DUP2 MSTORE PUSH1 0x20 ADD PUSH1 0x40 MLOAD DUP1 PUSH1 0x40 ADD PUSH1 0x40 MSTORE DUP1 PUSH1 0xE DUP2 MSTORE PUSH1 0x20 ADD PUSH14 0x2A30B9BA3CAFAAB936173539B7B7 PUSH1 0x91 SHL DUP2 MSTORE POP DUP2 MSTORE PUSH1 0x20 ADD PUSH1 0x40 MLOAD DUP1 PUSH1 0x40 ADD PUSH1 0x40 MSTORE DUP1 PUSH1 0x13 DUP2 MSTORE PUSH1 0x20 ADD PUSH32 0x4772656173795F4469676974616C2E6A736F6E00000000000000000000000000 DUP2 MSTORE POP DUP2 MSTORE PUSH1 0x20 ADD PUSH1 0x40 MLOAD DUP1 PUSH1 0x40 ADD PUSH1 0x40 MSTORE DUP1 PUSH1 0x12 DUP2 MSTORE PUSH1 0x20 ADD PUSH18 0x2A32B739B2AFA13637B3B3B2B9173539B7B7 PUSH1 0x71 SHL DUP2 MSTORE POP DUP2 MSTORE PUSH1 0x20 ADD PUSH1 0x40 MLOAD DUP1 PUSH1 0x40 ADD PUSH1 0x40 MSTORE DUP1 PUSH1 0x16 DUP2 MSTORE PUSH1 0x20 ADD PUSH32 0x4772696576696E675F46726565776172652E6A736F6E00000000000000000000 DUP2 MSTORE POP DUP2 MSTORE PUSH1 0x20 ADD PUSH1 0x40 MLOAD DUP1 PUSH1 0x40 ADD PUSH1 0x40 MSTORE DUP1 PUSH1 0x17 DUP2 MSTORE PUSH1 0x20 ADD PUSH32 0x5465727269626C655F53686966745F6B65792E6A736F6E000000000000000000 DUP2 MSTORE POP DUP2 MSTORE PUSH1 0x20 ADD PUSH1 0x40 MLOAD DUP1 PUSH1 0x40 ADD PUSH1 0x40 MSTORE DUP1 PUSH1 0x17 DUP2 MSTORE PUSH1 0x20 ADD PUSH32 0x47726F7465737175655F436C69705F6172742E6A736F6E000000000000000000 DUP2 MSTORE POP DUP2 MSTORE PUSH1 0x20 ADD PUSH1 0x40 MLOAD DUP1 PUSH1 0x40 ADD PUSH1 0x40 MSTORE DUP1 PUSH1 0x15 DUP2 MSTORE PUSH1 0x20 ADD PUSH32 0x54686F756768746C6573735F48746D6C2E6A736F6E0000000000000000000000 DUP2 MSTORE POP DUP2 MSTORE PUSH1 0x20 ADD PUSH1 0x40 MLOAD DUP1 PUSH1 0x40 ADD PUSH1 0x40 MSTORE DUP1 PUSH1 0x17 DUP2 MSTORE PUSH1 0x20 ADD PUSH32 0x47726F7465737175655F50617373776F72642E6A736F6E000000000000000000 DUP2 MSTORE POP DUP2 MSTORE PUSH1 0x20 ADD PUSH1 0x40 MLOAD DUP1 PUSH1 0x40 ADD PUSH1 0x40 MSTORE DUP1 PUSH1 0x10 DUP2 MSTORE PUSH1 0x20 ADD PUSH16 0x2AB732BB32B72FA9B830B6973539B7B7 PUSH1 0x81 SHL DUP2 MSTORE POP DUP2 MSTORE PUSH1 0x20 ADD PUSH1 0x40 MLOAD DUP1 PUSH1 0x40 ADD PUSH1 0x40 MSTORE DUP1 PUSH1 0x14 DUP2 MSTORE PUSH1 0x20 ADD PUSH32 0x4772756262795F436F6D70757465722E6A736F6E000000000000000000000000 DUP2 MSTORE POP DUP2 MSTORE PUSH1 0x20 ADD PUSH1 0x40 MLOAD DUP1 PUSH1 0x40 ADD PUSH1 0x40 MSTORE DUP1 PUSH1 0x17 DUP2 MSTORE PUSH1 0x20 ADD PUSH32 0x556E6576656E5F576F726B73746174696F6E2E6A736F6E000000000000000000 DUP2 MSTORE POP DUP2 MSTORE PUSH1 0x20 ADD PUSH1 0x40 MLOAD DUP1 PUSH1 0x40 ADD PUSH1 0x40 MSTORE DUP1 PUSH1 0x11 DUP2 MSTORE PUSH1 0x20 ADD PUSH17 0x23B93AB1313CAFA6B2B234B0973539B7B7 PUSH1 0x79 SHL DUP2 MSTORE POP DUP2 MSTORE PUSH1 0x20 ADD PUSH1 0x40 MLOAD DUP1 PUSH1 0x40 ADD PUSH1 0x40 MSTORE DUP1 PUSH1 0x15 DUP2 MSTORE PUSH1 0x20 ADD PUSH32 0x556E73696768746C795F4261636B75702E6A736F6E0000000000000000000000 DUP2 MSTORE POP DUP2 MSTORE PUSH1 0x20 ADD PUSH1 0x40 MLOAD DUP1 PUSH1 0x40 ADD PUSH1 0x40 MSTORE DUP1 PUSH1 0x10 DUP2 MSTORE PUSH1 0x20 ADD PUSH16 0x23B93AB6B83CAFA134BA32973539B7B7 PUSH1 0x81 SHL DUP2 MSTORE POP DUP2 MSTORE PUSH1 0x20 ADD PUSH1 0x40 MLOAD DUP1 PUSH1 0x40 ADD PUSH1 0x40 MSTORE DUP1 PUSH1 0x16 DUP2 MSTORE PUSH1 0x20 ADD PUSH32 0x556E73696768746C795F4E6574776F726B2E6A736F6E00000000000000000000 DUP2 MSTORE POP DUP2 MSTORE PUSH1 0x20 ADD PUSH1 0x40 MLOAD DUP1 PUSH1 0x40 ADD PUSH1 0x40 MSTORE DUP1 PUSH1 0x12 DUP2 MSTORE PUSH1 0x20 ADD PUSH18 0x23B93AB6B83CAFA9B1B934B83A173539B7B7 PUSH1 0x71 SHL DUP2 MSTORE POP DUP2 MSTORE PUSH1 0x20 ADD PUSH1 0x40 MLOAD DUP1 PUSH1 0x40 ADD PUSH1 0x40 MSTORE DUP1 PUSH1 0x1D DUP2 MSTORE PUSH1 0x20 ADD PUSH32 0x556E73696768746C795F576F72645F70726F636573736F722E6A736F6E000000 DUP2 MSTORE POP DUP2 MSTORE PUSH1 0x20 ADD PUSH1 0x40 MLOAD DUP1 PUSH1 0x40 ADD PUSH1 0x40 MSTORE DUP1 PUSH1 0x13 DUP2 MSTORE PUSH1 0x20 ADD PUSH32 0x4772756D70795F54656D696E616C2E6A736F6E00000000000000000000000000 DUP2 MSTORE POP DUP2 MSTORE PUSH1 0x20 ADD PUSH1 0x40 MLOAD DUP1 PUSH1 0x40 ADD PUSH1 0x40 MSTORE DUP1 PUSH1 0x12 DUP2 MSTORE PUSH1 0x20 ADD PUSH18 0x2AB839B2BA2FA93AB73A34B6B2973539B7B7 PUSH1 0x71 SHL DUP2 MSTORE POP DUP2 MSTORE PUSH1 0x20 ADD PUSH1 0x40 MLOAD DUP1 PUSH1 0x40 ADD PUSH1 0x40 MSTORE DUP1 PUSH1 0xF DUP2 MSTORE PUSH1 0x20 ADD PUSH15 0x23B93AB6B83CAFAAB936173539B7B7 PUSH1 0x89 SHL DUP2 MSTORE POP DUP2 MSTORE PUSH1 0x20 ADD PUSH1 0x40 MLOAD DUP1 PUSH1 0x40 ADD PUSH1 0x40 MSTORE DUP1 PUSH1 0x14 DUP2 MSTORE PUSH1 0x20 ADD PUSH32 0x557074696768745F526573746F72652E6A736F6E000000000000000000000000 DUP2 MSTORE POP DUP2 MSTORE PUSH1 0x20 ADD PUSH1 0x40 MLOAD DUP1 PUSH1 0x40 ADD PUSH1 0x40 MSTORE DUP1 PUSH1 0x12 DUP2 MSTORE PUSH1 0x20 ADD PUSH18 0x2430B73239B7B6B2AFABB7B936973539B7B7 PUSH1 0x71 SHL DUP2 MSTORE POP DUP2 MSTORE PUSH1 0x20 ADD PUSH1 0x40 MLOAD DUP1 PUSH1 0x40 ADD PUSH1 0x40 MSTORE DUP1 PUSH1 0x18 DUP2 MSTORE PUSH1 0x20 ADD PUSH32 0x557074696768745F546578745F656469746F722E6A736F6E0000000000000000 DUP2 MSTORE POP DUP2 MSTORE PUSH1 0x20 ADD PUSH1 0x40 MLOAD DUP1 PUSH1 0x40 ADD PUSH1 0x40 MSTORE DUP1 PUSH1 0x11 DUP2 MSTORE PUSH1 0x20 ADD PUSH17 0x2430B8383CAFA232B632BA32973539B7B7 PUSH1 0x79 SHL DUP2 MSTORE POP DUP2 MSTORE PUSH1 0x20 ADD PUSH1 0x40 MLOAD DUP1 PUSH1 0x40 ADD PUSH1 0x40 MSTORE DUP1 PUSH1 0x19 DUP2 MSTORE PUSH1 0x20 ADD PUSH32 0x566173745F436C6F75645F636F6D707574696E672E6A736F6E00000000000000 DUP2 MSTORE POP DUP2 MSTORE PUSH1 0x20 ADD PUSH1 0x40 MLOAD DUP1 PUSH1 0x40 ADD PUSH1 0x40 MSTORE DUP1 PUSH1 0xF DUP2 MSTORE PUSH1 0x20 ADD PUSH15 0x2430B8383CAFA23930B3973539B7B7 PUSH1 0x89 SHL DUP2 MSTORE POP DUP2 MSTORE PUSH1 0x20 ADD PUSH1 0x40 MLOAD DUP1 PUSH1 0x40 ADD PUSH1 0x40 MSTORE DUP1 PUSH1 0x11 DUP2 MSTORE PUSH1 0x20 ADD PUSH17 0x2B30B9BA2FA1B7B6B834B632973539B7B7 PUSH1 0x79 SHL DUP2 MSTORE POP DUP2 MSTORE PUSH1 0x20 ADD PUSH1 0x40 MLOAD DUP1 PUSH1 0x40 ADD PUSH1 0x40 MSTORE DUP1 PUSH1 0x10 DUP2 MSTORE PUSH1 0x20 ADD PUSH16 0x2430B8383CAFA6B0B1B937973539B7B7 PUSH1 0x81 SHL DUP2 MSTORE POP DUP2 MSTORE PUSH1 0x20 ADD PUSH1 0x40 MLOAD DUP1 PUSH1 0x40 ADD PUSH1 0x40 MSTORE DUP1 PUSH1 0x1A DUP2 MSTORE PUSH1 0x20 ADD PUSH32 0x566963746F72696F75735F437962657273706163652E6A736F6E000000000000 DUP2 MSTORE POP DUP2 MSTORE PUSH1 0x20 ADD PUSH1 0x40 MLOAD DUP1 PUSH1 0x40 ADD PUSH1 0x40 MSTORE DUP1 PUSH1 0x17 DUP2 MSTORE PUSH1 0x20 ADD PUSH32 0x4865616C7468795F456E6372797074696F6E2E6A736F6E000000000000000000 DUP2 MSTORE POP DUP2 MSTORE PUSH1 0x20 ADD PUSH1 0x40 MLOAD DUP1 PUSH1 0x40 ADD PUSH1 0x40 MSTORE DUP1 PUSH1 0x1B DUP2 MSTORE PUSH1 0x20 ADD PUSH32 0x566963746F72696F75735F4D6F74686572626F6172642E6A736F6E0000000000 DUP2 MSTORE POP DUP2 MSTORE PUSH1 0x20 ADD PUSH1 0x40 MLOAD DUP1 PUSH1 0x40 ADD PUSH1 0x40 MSTORE DUP1 PUSH1 0x14 DUP2 MSTORE PUSH1 0x20 ADD PUSH32 0x48656C7066756C5F56657273696F6E2E6A736F6E000000000000000000000000 DUP2 MSTORE POP DUP2 MSTORE PUSH1 0x20 ADD PUSH1 0x40 MLOAD DUP1 PUSH1 0x40 ADD PUSH1 0x40 MSTORE DUP1 PUSH1 0x12 DUP2 MSTORE PUSH1 0x20 ADD PUSH18 0x2B34BB30B1B4B7BAB9AFA13AB3973539B7B7 PUSH1 0x71 SHL DUP2 MSTORE POP DUP2 MSTORE PUSH1 0x20 ADD PUSH1 0x40 MLOAD DUP1 PUSH1 0x40 ADD PUSH1 0x40 MSTORE DUP1 PUSH1 0x17 DUP2 MSTORE PUSH1 0x20 ADD PUSH32 0x48656C706C6573735F466C6F7763686172742E6A736F6E000000000000000000 DUP2 MSTORE POP DUP2 MSTORE PUSH1 0x20 ADD PUSH1 0x40 MLOAD DUP1 PUSH1 0x40 ADD PUSH1 0x40 MSTORE DUP1 PUSH1 0x16 DUP2 MSTORE PUSH1 0x20 ADD PUSH32 0x56697669645F446F6D61696E5F6E616D652E6A736F6E00000000000000000000 DUP2 MSTORE POP DUP2 MSTORE PUSH1 0x20 ADD PUSH1 0x40 MLOAD DUP1 PUSH1 0x40 ADD PUSH1 0x40 MSTORE DUP1 PUSH1 0x14 DUP2 MSTORE PUSH1 0x20 ADD PUSH32 0x48656C706C6573735F4C6170746F702E6A736F6E000000000000000000000000 DUP2 MSTORE POP DUP2 MSTORE PUSH1 0x20 ADD PUSH1 0x40 MLOAD DUP1 PUSH1 0x40 ADD PUSH1 0x40 MSTORE DUP1 PUSH1 0xF DUP2 MSTORE PUSH1 0x20 ADD PUSH15 0x2BB0B1B5BCAFA1B83AAF973539B7B7 PUSH1 0x89 SHL DUP2 MSTORE POP DUP2 MSTORE PUSH1 0x20 ADD PUSH1 0x40 MLOAD DUP1 PUSH1 0x40 ADD PUSH1 0x40 MSTORE DUP1 PUSH1 0x14 DUP2 MSTORE PUSH1 0x20 ADD PUSH32 0x48656C706C6573735F5069726174652E6A736F6E000000000000000000000000 DUP2 MSTORE POP DUP2 MSTORE PUSH1 0x20 ADD PUSH1 0x40 MLOAD DUP1 PUSH1 0x40 ADD PUSH1 0x40 MSTORE DUP1 PUSH1 0x10 DUP2 MSTORE PUSH1 0x20 ADD PUSH16 0x2BB0B1B5BCAFA637B3B4B1973539B7B7 PUSH1 0x81 SHL DUP2 MSTORE POP DUP2 MSTORE PUSH1 0x20 ADD PUSH1 0x40 MLOAD DUP1 PUSH1 0x40 ADD PUSH1 0x40 MSTORE DUP1 PUSH1 0x13 DUP2 MSTORE PUSH1 0x20 ADD PUSH32 0x48656C706C6573735F5368656C6C2E6A736F6E00000000000000000000000000 DUP2 MSTORE POP DUP2 MSTORE PUSH1 0x20 ADD PUSH1 0x40 MLOAD DUP1 PUSH1 0x40 ADD PUSH1 0x40 MSTORE DUP1 PUSH1 0x15 DUP2 MSTORE PUSH1 0x20 ADD PUSH32 0x5768696D736963616C5F5069726174652E6A736F6E0000000000000000000000 DUP2 MSTORE POP DUP2 MSTORE PUSH1 0x20 ADD PUSH1 0x40 MLOAD DUP1 PUSH1 0x40 ADD PUSH1 0x40 MSTORE DUP1 PUSH1 0x20 DUP2 MSTORE PUSH1 0x20 ADD PUSH32 0x486967685F526F6D5F5F726561645F6F6E6C795F6D656D6F72795F2E6A736F6E DUP2 MSTORE POP DUP2 MSTORE PUSH1 0x20 ADD PUSH1 0x40 MLOAD DUP1 PUSH1 0x40 ADD PUSH1 0x40 MSTORE DUP1 PUSH1 0x14 DUP2 MSTORE PUSH1 0x20 ADD PUSH32 0x57686F7070696E675F53637265656E2E6A736F6E000000000000000000000000 DUP2 MSTORE POP DUP2 MSTORE PUSH1 0x20 ADD PUSH1 0x40 MLOAD DUP1 PUSH1 0x40 ADD PUSH1 0x40 MSTORE DUP1 PUSH1 0x15 DUP2 MSTORE PUSH1 0x20 ADD PUSH32 0x486F6C6C6F775F496E746572666163652E6A736F6E0000000000000000000000 DUP2 MSTORE POP DUP2 MSTORE PUSH1 0x20 ADD PUSH1 0x40 MLOAD DUP1 PUSH1 0x40 ADD PUSH1 0x40 MSTORE DUP1 PUSH1 0x17 DUP2 MSTORE PUSH1 0x20 ADD PUSH32 0x5769636B65645F446576656C6F706D656E742E6A736F6E000000000000000000 DUP2 MSTORE POP DUP2 MSTORE PUSH1 0x20 ADD PUSH1 0x40 MLOAD DUP1 PUSH1 0x40 ADD PUSH1 0x40 MSTORE DUP1 PUSH1 0x12 DUP2 MSTORE PUSH1 0x20 ADD PUSH18 0x2437B63637BBAFA5B2B93732B6173539B7B7 PUSH1 0x71 SHL DUP2 MSTORE POP DUP2 MSTORE PUSH1 0x20 ADD PUSH1 0x40 MLOAD DUP1 PUSH1 0x40 ADD PUSH1 0x40 MSTORE DUP1 PUSH1 0xF DUP2 MSTORE PUSH1 0x20 ADD PUSH15 0x2BB4B1B5B2B22FA5B2BC973539B7B7 PUSH1 0x89 SHL DUP2 MSTORE POP DUP2 MSTORE PUSH1 0x20 ADD PUSH1 0x40 MLOAD DUP1 PUSH1 0x40 ADD PUSH1 0x40 MSTORE DUP1 PUSH1 0x13 DUP2 MSTORE PUSH1 0x20 ADD PUSH32 0x486F6C6C6F775F5370616D6D65722E6A736F6E00000000000000000000000000 DUP2 MSTORE POP DUP2 MSTORE PUSH1 0x20 ADD PUSH1 0x40 MLOAD DUP1 PUSH1 0x40 ADD PUSH1 0x40 MSTORE DUP1 PUSH1 0x12 DUP2 MSTORE PUSH1 0x20 ADD PUSH18 0x2BB4B1B5B2B22FA7B73634B732973539B7B7 PUSH1 0x71 SHL DUP2 MSTORE POP DUP2 MSTORE POP PUSH1 0xD SWAP1 PUSH2 0x12F PUSH3 0x4095 SWAP3 SWAP2 SWAP1 PUSH3 0x431B JUMP JUMPDEST POP PUSH1 0xA DUP1 SLOAD PUSH1 0x1 PUSH1 0x1 PUSH1 0xA0 SHL SUB NOT AND PUSH1 0x1 PUSH1 0x1 PUSH1 0xA0 SHL SUB DUP4 AND OR DUP2 SSTORE PUSH1 0xB SSTORE PUSH1 0x40 DUP1 MLOAD PUSH1 0xE0 DUP2 ADD DUP3 MSTORE PUSH1 0x6 PUSH1 0xA0 DUP3 ADD DUP2 DUP2 MSTORE PUSH6 0x686F6F646965 PUSH1 0xD0 SHL PUSH1 0xC0 DUP5 ADD MSTORE DUP3 MSTORE DUP3 MLOAD DUP1 DUP5 ADD DUP5 MSTORE SWAP1 DUP2 MSTORE PUSH6 0x1A9858DAD95D PUSH1 0xD2 SHL PUSH1 0x20 DUP1 DUP4 ADD SWAP2 SWAP1 SWAP2 MSTORE DUP1 DUP4 ADD SWAP2 SWAP1 SWAP2 MSTORE DUP3 MLOAD DUP1 DUP5 ADD DUP5 MSTORE PUSH1 0x7 DUP2 MSTORE PUSH7 0x20706C75736879 PUSH1 0xC8 SHL DUP2 DUP4 ADD MSTORE DUP3 DUP5 ADD MSTORE DUP3 MLOAD DUP1 DUP5 ADD DUP5 MSTORE PUSH1 0x3 DUP1 DUP3 MSTORE PUSH3 0x63757 PUSH1 0xEC SHL DUP3 DUP5 ADD MSTORE PUSH1 0x60 DUP5 ADD SWAP2 SWAP1 SWAP2 MSTORE DUP4 MLOAD DUP1 DUP6 ADD SWAP1 SWAP5 MSTORE DUP4 MSTORE PUSH3 0x1A185D PUSH1 0xEA SHL SWAP1 DUP4 ADD MSTORE PUSH1 0x80 DUP2 ADD SWAP2 SWAP1 SWAP2 MSTORE PUSH7 0xBB9551FC24000 SWAP1 PUSH9 0x340AAD21B3B700000 SWAP1 PUSH3 0x417A SWAP1 PUSH1 0xE SWAP1 PUSH1 0x5 PUSH3 0x437B JUMP JUMPDEST POP PUSH1 0x40 MLOAD DUP1 PUSH1 0xA0 ADD PUSH1 0x40 MSTORE DUP1 DUP4 DUP2 MSTORE PUSH1 0x20 ADD DUP4 DUP2 MSTORE PUSH1 0x20 ADD DUP4 DUP2 MSTORE PUSH1 0x20 ADD DUP4 DUP2 MSTORE PUSH1 0x20 ADD DUP4 DUP2 MSTORE POP PUSH1 0xF SWAP1 PUSH1 0x5 PUSH3 0x41B4 SWAP3 SWAP2 SWAP1 PUSH3 0x43CD JUMP JUMPDEST POP PUSH1 0x40 MLOAD DUP1 PUSH1 0xA0 ADD PUSH1 0x40 MSTORE DUP1 DUP3 DUP2 MSTORE PUSH1 0x20 ADD DUP3 DUP2 MSTORE PUSH1 0x20 ADD DUP3 DUP2 MSTORE PUSH1 0x20 ADD DUP3 DUP2 MSTORE PUSH1 0x20 ADD DUP3 DUP2 MSTORE POP PUSH1 0x10 SWAP1 PUSH1 0x5 PUSH3 0x41EE SWAP3 SWAP2 SWAP1 PUSH3 0x43CD JUMP JUMPDEST POP POP POP POP PUSH3 0x448D JUMP JUMPDEST PUSH1 0x1 PUSH1 0x1 PUSH1 0xE0 SHL SUB NOT DUP1 DUP3 AND EQ ISZERO PUSH3 0x4258 JUMPI PUSH1 0x40 DUP1 MLOAD PUSH3 0x461BCD PUSH1 0xE5 SHL DUP2 MSTORE PUSH1 0x20 PUSH1 0x4 DUP3 ADD MSTORE PUSH1 0x1C PUSH1 0x24 DUP3 ADD MSTORE PUSH32 0x4552433136353A20696E76616C696420696E7465726661636520696400000000 PUSH1 0x44 DUP3 ADD MSTORE SWAP1 MLOAD SWAP1 DUP2 SWAP1 SUB PUSH1 0x64 ADD SWAP1 REVERT JUMPDEST PUSH1 0x1 PUSH1 0x1 PUSH1 0xE0 SHL SUB NOT AND PUSH1 0x0 SWAP1 DUP2 MSTORE PUSH1 0x20 DUP2 SWAP1 MSTORE PUSH1 0x40 SWAP1 KECCAK256 DUP1 SLOAD PUSH1 0xFF NOT AND PUSH1 0x1 OR SWAP1 SSTORE JUMP JUMPDEST DUP1 MLOAD PUSH3 0x4292 SWAP1 PUSH1 0x9 SWAP1 PUSH1 0x20 DUP5 ADD SWAP1 PUSH3 0x4296 JUMP JUMPDEST POP POP JUMP JUMPDEST DUP3 DUP1 SLOAD PUSH1 0x1 DUP2 PUSH1 0x1 AND ISZERO PUSH2 0x100 MUL SUB AND PUSH1 0x2 SWAP1 DIV SWAP1 PUSH1 0x0 MSTORE PUSH1 0x20 PUSH1 0x0 KECCAK256 SWAP1 PUSH1 0x1F ADD PUSH1 0x20 SWAP1 DIV DUP2 ADD SWAP3 DUP3 PUSH1 0x1F LT PUSH3 0x42D9 JUMPI DUP1 MLOAD PUSH1 0xFF NOT AND DUP4 DUP1 ADD OR DUP6 SSTORE PUSH3 0x4309 JUMP JUMPDEST DUP3 DUP1 ADD PUSH1 0x1 ADD DUP6 SSTORE DUP3 ISZERO PUSH3 0x4309 JUMPI SWAP2 DUP3 ADD JUMPDEST DUP3 DUP2 GT ISZERO PUSH3 0x4309 JUMPI DUP3 MLOAD DUP3 SSTORE SWAP2 PUSH1 0x20 ADD SWAP2 SWAP1 PUSH1 0x1 ADD SWAP1 PUSH3 0x42EC JUMP JUMPDEST POP PUSH3 0x4317 SWAP3 SWAP2 POP PUSH3 0x440A JUMP JUMPDEST POP SWAP1 JUMP JUMPDEST DUP3 DUP1 SLOAD DUP3 DUP3 SSTORE SWAP1 PUSH1 0x0 MSTORE PUSH1 0x20 PUSH1 0x0 KECCAK256 SWAP1 DUP2 ADD SWAP3 DUP3 ISZERO PUSH3 0x436D JUMPI SWAP2 PUSH1 0x20 MUL DUP3 ADD JUMPDEST DUP3 DUP2 GT ISZERO PUSH3 0x436D JUMPI DUP3 MLOAD DUP1 MLOAD PUSH3 0x435C SWAP2 DUP5 SWAP2 PUSH1 0x20 SWAP1 SWAP2 ADD SWAP1 PUSH3 0x4296 JUMP JUMPDEST POP SWAP2 PUSH1 0x20 ADD SWAP2 SWAP1 PUSH1 0x1 ADD SWAP1 PUSH3 0x433C JUMP JUMPDEST POP PUSH3 0x4317 SWAP3 SWAP2 POP PUSH3 0x4421 JUMP JUMPDEST DUP3 DUP1 SLOAD DUP3 DUP3 SSTORE SWAP1 PUSH1 0x0 MSTORE PUSH1 0x20 PUSH1 0x0 KECCAK256 SWAP1 DUP2 ADD SWAP3 DUP3 ISZERO PUSH3 0x436D JUMPI SWAP2 PUSH1 0x20 MUL DUP3 ADD JUMPDEST DUP3 DUP2 GT ISZERO PUSH3 0x436D JUMPI DUP3 MLOAD DUP1 MLOAD PUSH3 0x43BC SWAP2 DUP5 SWAP2 PUSH1 0x20 SWAP1 SWAP2 ADD SWAP1 PUSH3 0x4296 JUMP JUMPDEST POP SWAP2 PUSH1 0x20 ADD SWAP2 SWAP1 PUSH1 0x1 ADD SWAP1 PUSH3 0x439C JUMP JUMPDEST DUP3 DUP1 SLOAD DUP3 DUP3 SSTORE SWAP1 PUSH1 0x0 MSTORE PUSH1 0x20 PUSH1 0x0 KECCAK256 SWAP1 DUP2 ADD SWAP3 DUP3 ISZERO PUSH3 0x4309 JUMPI SWAP2 PUSH1 0x20 MUL DUP3 ADD DUP3 DUP2 GT ISZERO PUSH3 0x4309 JUMPI DUP3 MLOAD DUP3 SSTORE SWAP2 PUSH1 0x20 ADD SWAP2 SWAP1 PUSH1 0x1 ADD SWAP1 PUSH3 0x42EC JUMP JUMPDEST JUMPDEST DUP1 DUP3 GT ISZERO PUSH3 0x4317 JUMPI PUSH1 0x0 DUP2 SSTORE PUSH1 0x1 ADD PUSH3 0x440B JUMP JUMPDEST DUP1 DUP3 GT ISZERO PUSH3 0x4317 JUMPI PUSH1 0x0 PUSH3 0x4438 DUP3 DUP3 PUSH3 0x4442 JUMP JUMPDEST POP PUSH1 0x1 ADD PUSH3 0x4421 JUMP JUMPDEST POP DUP1 SLOAD PUSH1 0x1 DUP2 PUSH1 0x1 AND ISZERO PUSH2 0x100 MUL SUB AND PUSH1 0x2 SWAP1 DIV PUSH1 0x0 DUP3 SSTORE DUP1 PUSH1 0x1F LT PUSH3 0x446A JUMPI POP PUSH3 0x448A JUMP JUMPDEST PUSH1 0x1F ADD PUSH1 0x20 SWAP1 DIV SWAP1 PUSH1 0x0 MSTORE PUSH1 0x20 PUSH1 0x0 KECCAK256 SWAP1 DUP2 ADD SWAP1 PUSH3 0x448A SWAP2 SWAP1 PUSH3 0x440A JUMP JUMPDEST POP JUMP JUMPDEST PUSH2 0x2590 DUP1 PUSH3 0x449D PUSH1 0x0 CODECOPY PUSH1 0x0 RETURN INVALID PUSH1 0x80 PUSH1 0x40 MSTORE PUSH1 0x4 CALLDATASIZE LT PUSH2 0x1B7 JUMPI PUSH1 0x0 CALLDATALOAD PUSH1 0xE0 SHR DUP1 PUSH4 0x6352211E GT PUSH2 0xEC JUMPI DUP1 PUSH4 0xAC7808D8 GT PUSH2 0x8A JUMPI DUP1 PUSH4 0xC87B56DD GT PUSH2 0x64 JUMPI DUP1 PUSH4 0xC87B56DD EQ PUSH2 0x707 JUMPI DUP1 PUSH4 0xDB65AA19 EQ PUSH2 0x731 JUMPI DUP1 PUSH4 0xE985E9C5 EQ PUSH2 0x75B JUMPI DUP1 PUSH4 0xFF322BA1 EQ PUSH2 0x796 JUMPI PUSH2 0x1B7 JUMP JUMPDEST DUP1 PUSH4 0xAC7808D8 EQ PUSH2 0x5F5 JUMPI DUP1 PUSH4 0xB88D4FDE EQ PUSH2 0x61F JUMPI DUP1 PUSH4 0xC7A82420 EQ PUSH2 0x6F2 JUMPI PUSH2 0x1B7 JUMP JUMPDEST DUP1 PUSH4 0x776CF2AF GT PUSH2 0xC6 JUMPI DUP1 PUSH4 0x776CF2AF EQ PUSH2 0x566 JUMPI DUP1 PUSH4 0x95D89B41 EQ PUSH2 0x590 JUMPI DUP1 PUSH4 0xA22CB465 EQ PUSH2 0x5A5 JUMPI DUP1 PUSH4 0xA4D66DAF EQ PUSH2 0x5E0 JUMPI PUSH2 0x1B7 JUMP JUMPDEST DUP1 PUSH4 0x6352211E EQ PUSH2 0x4F4 JUMPI DUP1 PUSH4 0x6C0360EB EQ PUSH2 0x51E JUMPI DUP1 PUSH4 0x70A08231 EQ PUSH2 0x533 JUMPI PUSH2 0x1B7 JUMP JUMPDEST DUP1 PUSH4 0x18160DDD GT PUSH2 0x159 JUMPI DUP1 PUSH4 0x2F745C59 GT PUSH2 0x133 JUMPI DUP1 PUSH4 0x2F745C59 EQ PUSH2 0x424 JUMPI DUP1 PUSH4 0x393B4508 EQ PUSH2 0x45D JUMPI DUP1 PUSH4 0x42842E0E EQ PUSH2 0x487 JUMPI DUP1 PUSH4 0x4F6CCCE7 EQ PUSH2 0x4CA JUMPI PUSH2 0x1B7 JUMP JUMPDEST DUP1 PUSH4 0x18160DDD EQ PUSH2 0x38D JUMPI DUP1 PUSH4 0x1F8A9D05 EQ PUSH2 0x3A2 JUMPI DUP1 PUSH4 0x23B872DD EQ PUSH2 0x3E1 JUMPI PUSH2 0x1B7 JUMP JUMPDEST DUP1 PUSH4 0x751D4D1 GT PUSH2 0x195 JUMPI DUP1 PUSH4 0x751D4D1 EQ PUSH2 0x2D7 JUMPI DUP1 PUSH4 0x81812FC EQ PUSH2 0x2FE JUMPI DUP1 PUSH4 0x95EA7B3 EQ PUSH2 0x328 JUMPI DUP1 PUSH4 0x1160846B EQ PUSH2 0x363 JUMPI PUSH2 0x1B7 JUMP JUMPDEST DUP1 PUSH4 0x1FFC9A7 EQ PUSH2 0x1BC JUMPI DUP1 PUSH4 0x5F02FF2 EQ PUSH2 0x21C JUMPI DUP1 PUSH4 0x6FDDE03 EQ PUSH2 0x24D JUMPI JUMPDEST PUSH1 0x0 DUP1 REVERT JUMPDEST CALLVALUE DUP1 ISZERO PUSH2 0x1C8 JUMPI PUSH1 0x0 DUP1 REVERT JUMPDEST POP PUSH2 0x208 PUSH1 0x4 DUP1 CALLDATASIZE SUB PUSH1 0x20 DUP2 LT ISZERO PUSH2 0x1DF JUMPI PUSH1 0x0 DUP1 REVERT JUMPDEST POP CALLDATALOAD PUSH32 0xFFFFFFFF00000000000000000000000000000000000000000000000000000000 AND PUSH2 0x7C2 JUMP JUMPDEST PUSH1 0x40 DUP1 MLOAD SWAP2 ISZERO ISZERO DUP3 MSTORE MLOAD SWAP1 DUP2 SWAP1 SUB PUSH1 0x20 ADD SWAP1 RETURN JUMPDEST CALLVALUE DUP1 ISZERO PUSH2 0x228 JUMPI PUSH1 0x0 DUP1 REVERT JUMPDEST POP PUSH2 0x231 PUSH2 0x7FD JUMP JUMPDEST PUSH1 0x40 DUP1 MLOAD PUSH1 0x1 PUSH1 0x1 PUSH1 0xA0 SHL SUB SWAP1 SWAP3 AND DUP3 MSTORE MLOAD SWAP1 DUP2 SWAP1 SUB PUSH1 0x20 ADD SWAP1 RETURN JUMPDEST CALLVALUE DUP1 ISZERO PUSH2 0x259 JUMPI PUSH1 0x0 DUP1 REVERT JUMPDEST POP PUSH2 0x262 PUSH2 0x815 JUMP JUMPDEST PUSH1 0x40 DUP1 MLOAD PUSH1 0x20 DUP1 DUP3 MSTORE DUP4 MLOAD DUP2 DUP4 ADD MSTORE DUP4 MLOAD SWAP2 SWAP3 DUP4 SWAP3 SWAP1 DUP4 ADD SWAP2 DUP6 ADD SWAP1 DUP1 DUP4 DUP4 PUSH1 0x0 JUMPDEST DUP4 DUP2 LT ISZERO PUSH2 0x29C JUMPI DUP2 DUP2 ADD MLOAD DUP4 DUP3 ADD MSTORE PUSH1 0x20 ADD PUSH2 0x284 JUMP JUMPDEST POP POP POP POP SWAP1 POP SWAP1 DUP2 ADD SWAP1 PUSH1 0x1F AND DUP1 ISZERO PUSH2 0x2C9 JUMPI DUP1 DUP3 SUB DUP1 MLOAD PUSH1 0x1 DUP4 PUSH1 0x20 SUB PUSH2 0x100 EXP SUB NOT AND DUP2 MSTORE PUSH1 0x20 ADD SWAP2 POP JUMPDEST POP SWAP3 POP POP POP PUSH1 0x40 MLOAD DUP1 SWAP2 SUB SWAP1 RETURN JUMPDEST CALLVALUE DUP1 ISZERO PUSH2 0x2E3 JUMPI PUSH1 0x0 DUP1 REVERT JUMPDEST POP PUSH2 0x2EC PUSH2 0x8AB JUMP JUMPDEST PUSH1 0x40 DUP1 MLOAD SWAP2 DUP3 MSTORE MLOAD SWAP1 DUP2 SWAP1 SUB PUSH1 0x20 ADD SWAP1 RETURN JUMPDEST CALLVALUE DUP1 ISZERO PUSH2 0x30A JUMPI PUSH1 0x0 DUP1 REVERT JUMPDEST POP PUSH2 0x231 PUSH1 0x4 DUP1 CALLDATASIZE SUB PUSH1 0x20 DUP2 LT ISZERO PUSH2 0x321 JUMPI PUSH1 0x0 DUP1 REVERT JUMPDEST POP CALLDATALOAD PUSH2 0x8B1 JUMP JUMPDEST CALLVALUE DUP1 ISZERO PUSH2 0x334 JUMPI PUSH1 0x0 DUP1 REVERT JUMPDEST POP PUSH2 0x361 PUSH1 0x4 DUP1 CALLDATASIZE SUB PUSH1 0x40 DUP2 LT ISZERO PUSH2 0x34B JUMPI PUSH1 0x0 DUP1 REVERT JUMPDEST POP PUSH1 0x1 PUSH1 0x1 PUSH1 0xA0 SHL SUB DUP2 CALLDATALOAD AND SWAP1 PUSH1 0x20 ADD CALLDATALOAD PUSH2 0x913 JUMP JUMPDEST STOP JUMPDEST CALLVALUE DUP1 ISZERO PUSH2 0x36F JUMPI PUSH1 0x0 DUP1 REVERT JUMPDEST POP PUSH2 0x2EC PUSH1 0x4 DUP1 CALLDATASIZE SUB PUSH1 0x20 DUP2 LT ISZERO PUSH2 0x386 JUMPI PUSH1 0x0 DUP1 REVERT JUMPDEST POP CALLDATALOAD PUSH2 0x9EE JUMP JUMPDEST CALLVALUE DUP1 ISZERO PUSH2 0x399 JUMPI PUSH1 0x0 DUP1 REVERT JUMPDEST POP PUSH2 0x2EC PUSH2 0xA0C JUMP JUMPDEST CALLVALUE DUP1 ISZERO PUSH2 0x3AE JUMPI PUSH1 0x0 DUP1 REVERT JUMPDEST POP PUSH2 0x361 PUSH1 0x4 DUP1 CALLDATASIZE SUB PUSH1 0x60 DUP2 LT ISZERO PUSH2 0x3C5 JUMPI PUSH1 0x0 DUP1 REVERT JUMPDEST POP DUP1 CALLDATALOAD SWAP1 PUSH1 0x1 PUSH1 0x1 PUSH1 0xA0 SHL SUB PUSH1 0x20 DUP3 ADD CALLDATALOAD AND SWAP1 PUSH1 0x40 ADD CALLDATALOAD PUSH2 0xA1D JUMP JUMPDEST CALLVALUE DUP1 ISZERO PUSH2 0x3ED JUMPI PUSH1 0x0 DUP1 REVERT JUMPDEST POP PUSH2 0x361 PUSH1 0x4 DUP1 CALLDATASIZE SUB PUSH1 0x60 DUP2 LT ISZERO PUSH2 0x404 JUMPI PUSH1 0x0 DUP1 REVERT JUMPDEST POP PUSH1 0x1 PUSH1 0x1 PUSH1 0xA0 SHL SUB DUP2 CALLDATALOAD DUP2 AND SWAP2 PUSH1 0x20 DUP2 ADD CALLDATALOAD SWAP1 SWAP2 AND SWAP1 PUSH1 0x40 ADD CALLDATALOAD PUSH2 0xC5D JUMP JUMPDEST CALLVALUE DUP1 ISZERO PUSH2 0x430 JUMPI PUSH1 0x0 DUP1 REVERT JUMPDEST POP PUSH2 0x2EC PUSH1 0x4 DUP1 CALLDATASIZE SUB PUSH1 0x40 DUP2 LT ISZERO PUSH2 0x447 JUMPI PUSH1 0x0 DUP1 REVERT JUMPDEST POP PUSH1 0x1 PUSH1 0x1 PUSH1 0xA0 SHL SUB DUP2 CALLDATALOAD AND SWAP1 PUSH1 0x20 ADD CALLDATALOAD PUSH2 0xCB4 JUMP JUMPDEST CALLVALUE DUP1 ISZERO PUSH2 0x469 JUMPI PUSH1 0x0 DUP1 REVERT JUMPDEST POP PUSH2 0x262 PUSH1 0x4 DUP1 CALLDATASIZE SUB PUSH1 0x20 DUP2 LT ISZERO PUSH2 0x480 JUMPI PUSH1 0x0 DUP1 REVERT JUMPDEST POP CALLDATALOAD PUSH2 0xCDF JUMP JUMPDEST CALLVALUE DUP1 ISZERO PUSH2 0x493 JUMPI PUSH1 0x0 DUP1 REVERT JUMPDEST POP PUSH2 0x361 PUSH1 0x4 DUP1 CALLDATASIZE SUB PUSH1 0x60 DUP2 LT ISZERO PUSH2 0x4AA JUMPI PUSH1 0x0 DUP1 REVERT JUMPDEST POP PUSH1 0x1 PUSH1 0x1 PUSH1 0xA0 SHL SUB DUP2 CALLDATALOAD DUP2 AND SWAP2 PUSH1 0x20 DUP2 ADD CALLDATALOAD SWAP1 SWAP2 AND SWAP1 PUSH1 0x40 ADD CALLDATALOAD PUSH2 0xD85 JUMP JUMPDEST CALLVALUE DUP1 ISZERO PUSH2 0x4D6 JUMPI PUSH1 0x0 DUP1 REVERT JUMPDEST POP PUSH2 0x2EC PUSH1 0x4 DUP1 CALLDATASIZE SUB PUSH1 0x20 DUP2 LT ISZERO PUSH2 0x4ED JUMPI PUSH1 0x0 DUP1 REVERT JUMPDEST POP CALLDATALOAD PUSH2 0xDA0 JUMP JUMPDEST CALLVALUE DUP1 ISZERO PUSH2 0x500 JUMPI PUSH1 0x0 DUP1 REVERT JUMPDEST POP PUSH2 0x231 PUSH1 0x4 DUP1 CALLDATASIZE SUB PUSH1 0x20 DUP2 LT ISZERO PUSH2 0x517 JUMPI PUSH1 0x0 DUP1 REVERT JUMPDEST POP CALLDATALOAD PUSH2 0xDB6 JUMP JUMPDEST CALLVALUE DUP1 ISZERO PUSH2 0x52A JUMPI PUSH1 0x0 DUP1 REVERT JUMPDEST POP PUSH2 0x262 PUSH2 0xDDE JUMP JUMPDEST CALLVALUE DUP1 ISZERO PUSH2 0x53F JUMPI PUSH1 0x0 DUP1 REVERT JUMPDEST POP PUSH2 0x2EC PUSH1 0x4 DUP1 CALLDATASIZE SUB PUSH1 0x20 DUP2 LT ISZERO PUSH2 0x556 JUMPI PUSH1 0x0 DUP1 REVERT JUMPDEST POP CALLDATALOAD PUSH1 0x1 PUSH1 0x1 PUSH1 0xA0 SHL SUB AND PUSH2 0xE3F JUMP JUMPDEST CALLVALUE DUP1 ISZERO PUSH2 0x572 JUMPI PUSH1 0x0 DUP1 REVERT JUMPDEST POP PUSH2 0x2EC PUSH1 0x4 DUP1 CALLDATASIZE SUB PUSH1 0x20 DUP2 LT ISZERO PUSH2 0x589 JUMPI PUSH1 0x0 DUP1 REVERT JUMPDEST POP CALLDATALOAD PUSH2 0xEA7 JUMP JUMPDEST CALLVALUE DUP1 ISZERO PUSH2 0x59C JUMPI PUSH1 0x0 DUP1 REVERT JUMPDEST POP PUSH2 0x262 PUSH2 0xEB4 JUMP JUMPDEST CALLVALUE DUP1 ISZERO PUSH2 0x5B1 JUMPI PUSH1 0x0 DUP1 REVERT JUMPDEST POP PUSH2 0x361 PUSH1 0x4 DUP1 CALLDATASIZE SUB PUSH1 0x40 DUP2 LT ISZERO PUSH2 0x5C8 JUMPI PUSH1 0x0 DUP1 REVERT JUMPDEST POP PUSH1 0x1 PUSH1 0x1 PUSH1 0xA0 SHL SUB DUP2 CALLDATALOAD AND SWAP1 PUSH1 0x20 ADD CALLDATALOAD ISZERO ISZERO PUSH2 0xF15 JUMP JUMPDEST CALLVALUE DUP1 ISZERO PUSH2 0x5EC JUMPI PUSH1 0x0 DUP1 REVERT JUMPDEST POP PUSH2 0x2EC PUSH2 0x101A JUMP JUMPDEST CALLVALUE DUP1 ISZERO PUSH2 0x601 JUMPI PUSH1 0x0 DUP1 REVERT JUMPDEST POP PUSH2 0x2EC PUSH1 0x4 DUP1 CALLDATASIZE SUB PUSH1 0x20 DUP2 LT ISZERO PUSH2 0x618 JUMPI PUSH1 0x0 DUP1 REVERT JUMPDEST POP CALLDATALOAD PUSH2 0x1020 JUMP JUMPDEST CALLVALUE DUP1 ISZERO PUSH2 0x62B JUMPI PUSH1 0x0 DUP1 REVERT JUMPDEST POP PUSH2 0x361 PUSH1 0x4 DUP1 CALLDATASIZE SUB PUSH1 0x80 DUP2 LT ISZERO PUSH2 0x642 JUMPI PUSH1 0x0 DUP1 REVERT JUMPDEST PUSH1 0x1 PUSH1 0x1 PUSH1 0xA0 SHL SUB DUP3 CALLDATALOAD DUP2 AND SWAP3 PUSH1 0x20 DUP2 ADD CALLDATALOAD SWAP1 SWAP2 AND SWAP2 PUSH1 0x40 DUP3 ADD CALLDATALOAD SWAP2 SWAP1 DUP2 ADD SWAP1 PUSH1 0x80 DUP2 ADD PUSH1 0x60 DUP3 ADD CALLDATALOAD PUSH5 0x100000000 DUP2 GT ISZERO PUSH2 0x67D JUMPI PUSH1 0x0 DUP1 REVERT JUMPDEST DUP3 ADD DUP4 PUSH1 0x20 DUP3 ADD GT ISZERO PUSH2 0x68F JUMPI PUSH1 0x0 DUP1 REVERT JUMPDEST DUP1 CALLDATALOAD SWAP1 PUSH1 0x20 ADD SWAP2 DUP5 PUSH1 0x1 DUP4 MUL DUP5 ADD GT PUSH5 0x100000000 DUP4 GT OR ISZERO PUSH2 0x6B1 JUMPI PUSH1 0x0 DUP1 REVERT JUMPDEST SWAP2 SWAP1 DUP1 DUP1 PUSH1 0x1F ADD PUSH1 0x20 DUP1 SWAP2 DIV MUL PUSH1 0x20 ADD PUSH1 0x40 MLOAD SWAP1 DUP2 ADD PUSH1 0x40 MSTORE DUP1 SWAP4 SWAP3 SWAP2 SWAP1 DUP2 DUP2 MSTORE PUSH1 0x20 ADD DUP4 DUP4 DUP1 DUP3 DUP5 CALLDATACOPY PUSH1 0x0 SWAP3 ADD SWAP2 SWAP1 SWAP2 MSTORE POP SWAP3 SWAP6 POP PUSH2 0x104D SWAP5 POP POP POP POP POP JUMP JUMPDEST CALLVALUE DUP1 ISZERO PUSH2 0x6FE JUMPI PUSH1 0x0 DUP1 REVERT JUMPDEST POP PUSH2 0x231 PUSH2 0x10AB JUMP JUMPDEST CALLVALUE DUP1 ISZERO PUSH2 0x713 JUMPI PUSH1 0x0 DUP1 REVERT JUMPDEST POP PUSH2 0x262 PUSH1 0x4 DUP1 CALLDATASIZE SUB PUSH1 0x20 DUP2 LT ISZERO PUSH2 0x72A JUMPI PUSH1 0x0 DUP1 REVERT JUMPDEST POP CALLDATALOAD PUSH2 0x10BA JUMP JUMPDEST CALLVALUE DUP1 ISZERO PUSH2 0x73D JUMPI PUSH1 0x0 DUP1 REVERT JUMPDEST POP PUSH2 0x2EC PUSH1 0x4 DUP1 CALLDATASIZE SUB PUSH1 0x20 DUP2 LT ISZERO PUSH2 0x754 JUMPI PUSH1 0x0 DUP1 REVERT JUMPDEST POP CALLDATALOAD PUSH2 0x133D JUMP JUMPDEST CALLVALUE DUP1 ISZERO PUSH2 0x767 JUMPI PUSH1 0x0 DUP1 REVERT JUMPDEST POP PUSH2 0x208 PUSH1 0x4 DUP1 CALLDATASIZE SUB PUSH1 0x40 DUP2 LT ISZERO PUSH2 0x77E JUMPI PUSH1 0x0 DUP1 REVERT JUMPDEST POP PUSH1 0x1 PUSH1 0x1 PUSH1 0xA0 SHL SUB DUP2 CALLDATALOAD DUP2 AND SWAP2 PUSH1 0x20 ADD CALLDATALOAD AND PUSH2 0x136B JUMP JUMPDEST PUSH2 0x361 PUSH1 0x4 DUP1 CALLDATASIZE SUB PUSH1 0x40 DUP2 LT ISZERO PUSH2 0x7AC JUMPI PUSH1 0x0 DUP1 REVERT JUMPDEST POP DUP1 CALLDATALOAD SWAP1 PUSH1 0x20 ADD CALLDATALOAD PUSH1 0x1 PUSH1 0x1 PUSH1 0xA0 SHL SUB AND PUSH2 0x1399 JUMP JUMPDEST PUSH32 0xFFFFFFFF00000000000000000000000000000000000000000000000000000000 DUP2 AND PUSH1 0x0 SWAP1 DUP2 MSTORE PUSH1 0x20 DUP2 SWAP1 MSTORE PUSH1 0x40 SWAP1 KECCAK256 SLOAD PUSH1 0xFF AND JUMPDEST SWAP2 SWAP1 POP JUMP JUMPDEST PUSH20 0xDE21F729137C5AF1B01D73AF1DC21EFFA2B8A0D6 DUP2 JUMP JUMPDEST PUSH1 0x6 DUP1 SLOAD PUSH1 0x40 DUP1 MLOAD PUSH1 0x20 PUSH1 0x1F PUSH1 0x2 PUSH1 0x0 NOT PUSH2 0x100 PUSH1 0x1 DUP9 AND ISZERO MUL ADD SWAP1 SWAP6 AND SWAP5 SWAP1 SWAP5 DIV SWAP4 DUP5 ADD DUP2 SWAP1 DIV DUP2 MUL DUP3 ADD DUP2 ADD SWAP1 SWAP3 MSTORE DUP3 DUP2 MSTORE PUSH1 0x60 SWAP4 SWAP1 SWAP3 SWAP1 SWAP2 DUP4 ADD DUP3 DUP3 DUP1 ISZERO PUSH2 0x8A1 JUMPI DUP1 PUSH1 0x1F LT PUSH2 0x876 JUMPI PUSH2 0x100 DUP1 DUP4 SLOAD DIV MUL DUP4 MSTORE SWAP2 PUSH1 0x20 ADD SWAP2 PUSH2 0x8A1 JUMP JUMPDEST DUP3 ADD SWAP2 SWAP1 PUSH1 0x0 MSTORE PUSH1 0x20 PUSH1 0x0 KECCAK256 SWAP1 JUMPDEST DUP2 SLOAD DUP2 MSTORE SWAP1 PUSH1 0x1 ADD SWAP1 PUSH1 0x20 ADD DUP1 DUP4 GT PUSH2 0x884 JUMPI DUP3 SWAP1 SUB PUSH1 0x1F AND DUP3 ADD SWAP2 JUMPDEST POP POP POP POP POP SWAP1 POP SWAP1 JUMP JUMPDEST PUSH1 0xB SLOAD DUP2 JUMP JUMPDEST PUSH1 0x0 PUSH2 0x8BC DUP3 PUSH2 0x1528 JUMP JUMPDEST PUSH2 0x8F7 JUMPI PUSH1 0x40 MLOAD PUSH3 0x461BCD PUSH1 0xE5 SHL DUP2 MSTORE PUSH1 0x4 ADD DUP1 DUP1 PUSH1 0x20 ADD DUP3 DUP2 SUB DUP3 MSTORE PUSH1 0x2C DUP2 MSTORE PUSH1 0x20 ADD DUP1 PUSH2 0x2459 PUSH1 0x2C SWAP2 CODECOPY PUSH1 0x40 ADD SWAP2 POP POP PUSH1 0x40 MLOAD DUP1 SWAP2 SUB SWAP1 REVERT JUMPDEST POP PUSH1 0x0 SWAP1 DUP2 MSTORE PUSH1 0x4 PUSH1 0x20 MSTORE PUSH1 0x40 SWAP1 KECCAK256 SLOAD PUSH1 0x1 PUSH1 0x1 PUSH1 0xA0 SHL SUB AND SWAP1 JUMP JUMPDEST PUSH1 0x0 PUSH2 0x91E DUP3 PUSH2 0xDB6 JUMP JUMPDEST SWAP1 POP DUP1 PUSH1 0x1 PUSH1 0x1 PUSH1 0xA0 SHL SUB AND DUP4 PUSH1 0x1 PUSH1 0x1 PUSH1 0xA0 SHL SUB AND EQ ISZERO PUSH2 0x971 JUMPI PUSH1 0x40 MLOAD PUSH3 0x461BCD PUSH1 0xE5 SHL DUP2 MSTORE PUSH1 0x4 ADD DUP1 DUP1 PUSH1 0x20 ADD DUP3 DUP2 SUB DUP3 MSTORE PUSH1 0x21 DUP2 MSTORE PUSH1 0x20 ADD DUP1 PUSH2 0x2509 PUSH1 0x21 SWAP2 CODECOPY PUSH1 0x40 ADD SWAP2 POP POP PUSH1 0x40 MLOAD DUP1 SWAP2 SUB SWAP1 REVERT JUMPDEST DUP1 PUSH1 0x1 PUSH1 0x1 PUSH1 0xA0 SHL SUB AND PUSH2 0x983 PUSH2 0x1535 JUMP JUMPDEST PUSH1 0x1 PUSH1 0x1 PUSH1 0xA0 SHL SUB AND EQ DUP1 PUSH2 0x9A4 JUMPI POP PUSH2 0x9A4 DUP2 PUSH2 0x99F PUSH2 0x1535 JUMP JUMPDEST PUSH2 0x136B JUMP JUMPDEST PUSH2 0x9DF JUMPI PUSH1 0x40 MLOAD PUSH3 0x461BCD PUSH1 0xE5 SHL DUP2 MSTORE PUSH1 0x4 ADD DUP1 DUP1 PUSH1 0x20 ADD DUP3 DUP2 SUB DUP3 MSTORE PUSH1 0x38 DUP2 MSTORE PUSH1 0x20 ADD DUP1 PUSH2 0x23AC PUSH1 0x38 SWAP2 CODECOPY PUSH1 0x40 ADD SWAP2 POP POP PUSH1 0x40 MLOAD DUP1 SWAP2 SUB SWAP1 REVERT JUMPDEST PUSH2 0x9E9 DUP4 DUP4 PUSH2 0x1539 JUMP JUMPDEST POP POP POP JUMP JUMPDEST PUSH1 0xF DUP2 DUP2 SLOAD DUP2 LT PUSH2 0x9FB JUMPI INVALID JUMPDEST PUSH1 0x0 SWAP2 DUP3 MSTORE PUSH1 0x20 SWAP1 SWAP2 KECCAK256 ADD SLOAD SWAP1 POP DUP2 JUMP JUMPDEST PUSH1 0x0 PUSH2 0xA18 PUSH1 0x2 PUSH2 0x15BF JUMP JUMPDEST SWAP1 POP SWAP1 JUMP JUMPDEST PUSH1 0x0 PUSH1 0x10 DUP5 DUP2 SLOAD DUP2 LT PUSH2 0xA2C JUMPI INVALID JUMPDEST SWAP1 PUSH1 0x0 MSTORE PUSH1 0x20 PUSH1 0x0 KECCAK256 ADD SLOAD SWAP1 POP PUSH2 0xA42 DUP2 PUSH2 0x15CA JUMP JUMPDEST SWAP1 SUB DUP1 DUP3 LT ISZERO PUSH2 0xA86 JUMPI PUSH1 0x40 DUP1 MLOAD PUSH3 0x461BCD PUSH1 0xE5 SHL DUP2 MSTORE PUSH1 0x20 PUSH1 0x4 DUP3 ADD MSTORE PUSH1 0xA PUSH1 0x24 DUP3 ADD MSTORE PUSH10 0x9C9EA8408A9C9EAA8E9 PUSH1 0xB3 SHL PUSH1 0x44 DUP3 ADD MSTORE SWAP1 MLOAD SWAP1 DUP2 SWAP1 SUB PUSH1 0x64 ADD SWAP1 REVERT JUMPDEST PUSH1 0xA SLOAD PUSH1 0x40 DUP1 MLOAD PUSH32 0x23B872DD00000000000000000000000000000000000000000000000000000000 DUP2 MSTORE CALLER PUSH1 0x4 DUP3 ADD MSTORE PUSH20 0xDE21F729137C5AF1B01D73AF1DC21EFFA2B8A0D6 PUSH1 0x24 DUP3 ADD MSTORE PUSH1 0x44 DUP2 ADD DUP5 SWAP1 MSTORE SWAP1 MLOAD PUSH1 0x1 PUSH1 0x1 PUSH1 0xA0 SHL SUB SWAP1 SWAP3 AND SWAP2 PUSH4 0x23B872DD SWAP2 PUSH1 0x64 DUP1 DUP3 ADD SWAP3 PUSH1 0x20 SWAP3 SWAP1 SWAP2 SWAP1 DUP3 SWAP1 SUB ADD DUP2 PUSH1 0x0 DUP8 DUP1 EXTCODESIZE ISZERO DUP1 ISZERO PUSH2 0xB0D JUMPI PUSH1 0x0 DUP1 REVERT JUMPDEST POP GAS CALL ISZERO DUP1 ISZERO PUSH2 0xB21 JUMPI RETURNDATASIZE PUSH1 0x0 DUP1 RETURNDATACOPY RETURNDATASIZE PUSH1 0x0 REVERT JUMPDEST POP POP POP POP PUSH1 0x40 MLOAD RETURNDATASIZE PUSH1 0x20 DUP2 LT ISZERO PUSH2 0xB37 JUMPI PUSH1 0x0 DUP1 REVERT JUMPDEST POP MLOAD PUSH2 0xB8A JUMPI PUSH1 0x40 DUP1 MLOAD PUSH3 0x461BCD PUSH1 0xE5 SHL DUP2 MSTORE PUSH1 0x20 PUSH1 0x4 DUP3 ADD MSTORE PUSH1 0x15 PUSH1 0x24 DUP3 ADD MSTORE PUSH32 0x5472616E736665722063616E6479206661696C65640000000000000000000000 PUSH1 0x44 DUP3 ADD MSTORE SWAP1 MLOAD SWAP1 DUP2 SWAP1 SUB PUSH1 0x64 ADD SWAP1 REVERT JUMPDEST PUSH2 0xC3C DUP4 PUSH1 0xD PUSH2 0xB9A PUSH1 0xC PUSH2 0x15D7 JUMP JUMPDEST DUP2 SLOAD DUP2 LT PUSH2 0xBA4 JUMPI INVALID JUMPDEST PUSH1 0x0 SWAP2 DUP3 MSTORE PUSH1 0x20 SWAP2 DUP3 SWAP1 KECCAK256 ADD DUP1 SLOAD PUSH1 0x40 DUP1 MLOAD PUSH1 0x1F PUSH1 0x2 PUSH1 0x0 NOT PUSH2 0x100 PUSH1 0x1 DUP8 AND ISZERO MUL ADD SWAP1 SWAP5 AND SWAP4 SWAP1 SWAP4 DIV SWAP3 DUP4 ADD DUP6 SWAP1 DIV DUP6 MUL DUP2 ADD DUP6 ADD SWAP1 SWAP2 MSTORE DUP2 DUP2 MSTORE SWAP3 DUP4 ADD DUP3 DUP3 DUP1 ISZERO PUSH2 0xC32 JUMPI DUP1 PUSH1 0x1F LT PUSH2 0xC07 JUMPI PUSH2 0x100 DUP1 DUP4 SLOAD DIV MUL DUP4 MSTORE SWAP2 PUSH1 0x20 ADD SWAP2 PUSH2 0xC32 JUMP JUMPDEST DUP3 ADD SWAP2 SWAP1 PUSH1 0x0 MSTORE PUSH1 0x20 PUSH1 0x0 KECCAK256 SWAP1 JUMPDEST DUP2 SLOAD DUP2 MSTORE SWAP1 PUSH1 0x1 ADD SWAP1 PUSH1 0x20 ADD DUP1 DUP4 GT PUSH2 0xC15 JUMPI DUP3 SWAP1 SUB PUSH1 0x1F AND DUP3 ADD SWAP2 JUMPDEST POP POP POP POP POP PUSH2 0x15DB JUMP JUMPDEST POP DUP1 PUSH1 0x10 DUP6 DUP2 SLOAD DUP2 LT PUSH2 0xC4B JUMPI INVALID JUMPDEST PUSH1 0x0 SWAP2 DUP3 MSTORE PUSH1 0x20 SWAP1 SWAP2 KECCAK256 ADD SSTORE POP POP POP POP JUMP JUMPDEST PUSH2 0xC6E PUSH2 0xC68 PUSH2 0x1535 JUMP JUMPDEST DUP3 PUSH2 0x1668 JUMP JUMPDEST PUSH2 0xCA9 JUMPI PUSH1 0x40 MLOAD PUSH3 0x461BCD PUSH1 0xE5 SHL DUP2 MSTORE PUSH1 0x4 ADD DUP1 DUP1 PUSH1 0x20 ADD DUP3 DUP2 SUB DUP3 MSTORE PUSH1 0x31 DUP2 MSTORE PUSH1 0x20 ADD DUP1 PUSH2 0x252A PUSH1 0x31 SWAP2 CODECOPY PUSH1 0x40 ADD SWAP2 POP POP PUSH1 0x40 MLOAD DUP1 SWAP2 SUB SWAP1 REVERT JUMPDEST PUSH2 0x9E9 DUP4 DUP4 DUP4 PUSH2 0x170C JUMP JUMPDEST PUSH1 0x1 PUSH1 0x1 PUSH1 0xA0 SHL SUB DUP3 AND PUSH1 0x0 SWAP1 DUP2 MSTORE PUSH1 0x1 PUSH1 0x20 MSTORE PUSH1 0x40 DUP2 KECCAK256 PUSH2 0xCD6 SWAP1 DUP4 PUSH2 0x1858 JUMP JUMPDEST SWAP1 POP JUMPDEST SWAP3 SWAP2 POP POP JUMP JUMPDEST PUSH1 0xE DUP2 DUP2 SLOAD DUP2 LT PUSH2 0xCEC JUMPI INVALID JUMPDEST PUSH1 0x0 SWAP2 DUP3 MSTORE PUSH1 0x20 SWAP2 DUP3 SWAP1 KECCAK256 ADD DUP1 SLOAD PUSH1 0x40 DUP1 MLOAD PUSH1 0x1F PUSH1 0x2 PUSH1 0x0 NOT PUSH2 0x100 PUSH1 0x1 DUP8 AND ISZERO MUL ADD SWAP1 SWAP5 AND SWAP4 SWAP1 SWAP4 DIV SWAP3 DUP4 ADD DUP6 SWAP1 DIV DUP6 MUL DUP2 ADD DUP6 ADD SWAP1 SWAP2 MSTORE DUP2 DUP2 MSTORE SWAP4 POP SWAP1 SWAP2 DUP4 ADD DUP3 DUP3 DUP1 ISZERO PUSH2 0xD7D JUMPI DUP1 PUSH1 0x1F LT PUSH2 0xD52 JUMPI PUSH2 0x100 DUP1 DUP4 SLOAD DIV MUL DUP4 MSTORE SWAP2 PUSH1 0x20 ADD SWAP2 PUSH2 0xD7D JUMP JUMPDEST DUP3 ADD SWAP2 SWAP1 PUSH1 0x0 MSTORE PUSH1 0x20 PUSH1 0x0 KECCAK256 SWAP1 JUMPDEST DUP2 SLOAD DUP2 MSTORE SWAP1 PUSH1 0x1 ADD SWAP1 PUSH1 0x20 ADD DUP1 DUP4 GT PUSH2 0xD60 JUMPI DUP3 SWAP1 SUB PUSH1 0x1F AND DUP3 ADD SWAP2 JUMPDEST POP POP POP POP POP DUP2 JUMP JUMPDEST PUSH2 0x9E9 DUP4 DUP4 DUP4 PUSH1 0x40 MLOAD DUP1 PUSH1 0x20 ADD PUSH1 0x40 MSTORE DUP1 PUSH1 0x0 DUP2 MSTORE POP PUSH2 0x104D JUMP JUMPDEST PUSH1 0x0 DUP1 PUSH2 0xDAE PUSH1 0x2 DUP5 PUSH2 0x1864 JUMP JUMPDEST POP SWAP4 SWAP3 POP POP POP JUMP JUMPDEST PUSH1 0x0 PUSH2 0xCD9 DUP3 PUSH1 0x40 MLOAD DUP1 PUSH1 0x60 ADD PUSH1 0x40 MSTORE DUP1 PUSH1 0x29 DUP2 MSTORE PUSH1 0x20 ADD PUSH2 0x240E PUSH1 0x29 SWAP2 CODECOPY PUSH1 0x2 SWAP2 SWAP1 PUSH2 0x1880 JUMP JUMPDEST PUSH1 0x9 DUP1 SLOAD PUSH1 0x40 DUP1 MLOAD PUSH1 0x20 PUSH1 0x1F PUSH1 0x2 PUSH1 0x0 NOT PUSH2 0x100 PUSH1 0x1 DUP9 AND ISZERO MUL ADD SWAP1 SWAP6 AND SWAP5 SWAP1 SWAP5 DIV SWAP4 DUP5 ADD DUP2 SWAP1 DIV DUP2 MUL DUP3 ADD DUP2 ADD SWAP1 SWAP3 MSTORE DUP3 DUP2 MSTORE PUSH1 0x60 SWAP4 SWAP1 SWAP3 SWAP1 SWAP2 DUP4 ADD DUP3 DUP3 DUP1 ISZERO PUSH2 0x8A1 JUMPI DUP1 PUSH1 0x1F LT PUSH2 0x876 JUMPI PUSH2 0x100 DUP1 DUP4 SLOAD DIV MUL DUP4 MSTORE SWAP2 PUSH1 0x20 ADD SWAP2 PUSH2 0x8A1 JUMP JUMPDEST PUSH1 0x0 PUSH1 0x1 PUSH1 0x1 PUSH1 0xA0 SHL SUB DUP3 AND PUSH2 0xE86 JUMPI PUSH1 0x40 MLOAD PUSH3 0x461BCD PUSH1 0xE5 SHL DUP2 MSTORE PUSH1 0x4 ADD DUP1 DUP1 PUSH1 0x20 ADD DUP3 DUP2 SUB DUP3 MSTORE PUSH1 0x2A DUP2 MSTORE PUSH1 0x20 ADD DUP1 PUSH2 0x23E4 PUSH1 0x2A SWAP2 CODECOPY PUSH1 0x40 ADD SWAP2 POP POP PUSH1 0x40 MLOAD DUP1 SWAP2 SUB SWAP1 REVERT JUMPDEST PUSH1 0x1 PUSH1 0x1 PUSH1 0xA0 SHL SUB DUP3 AND PUSH1 0x0 SWAP1 DUP2 MSTORE PUSH1 0x1 PUSH1 0x20 MSTORE PUSH1 0x40 SWAP1 KECCAK256 PUSH2 0xCD9 SWAP1 PUSH2 0x15BF JUMP JUMPDEST PUSH1 0x10 DUP2 DUP2 SLOAD DUP2 LT PUSH2 0x9FB JUMPI INVALID JUMPDEST PUSH1 0x7 DUP1 SLOAD PUSH1 0x40 DUP1 MLOAD PUSH1 0x20 PUSH1 0x1F PUSH1 0x2 PUSH1 0x0 NOT PUSH2 0x100 PUSH1 0x1 DUP9 AND ISZERO MUL ADD SWAP1 SWAP6 AND SWAP5 SWAP1 SWAP5 DIV SWAP4 DUP5 ADD DUP2 SWAP1 DIV DUP2 MUL DUP3 ADD DUP2 ADD SWAP1 SWAP3 MSTORE DUP3 DUP2 MSTORE PUSH1 0x60 SWAP4 SWAP1 SWAP3 SWAP1 SWAP2 DUP4 ADD DUP3 DUP3 DUP1 ISZERO PUSH2 0x8A1 JUMPI DUP1 PUSH1 0x1F LT PUSH2 0x876 JUMPI PUSH2 0x100 DUP1 DUP4 SLOAD DIV MUL DUP4 MSTORE SWAP2 PUSH1 0x20 ADD SWAP2 PUSH2 0x8A1 JUMP JUMPDEST PUSH2 0xF1D PUSH2 0x1535 JUMP JUMPDEST PUSH1 0x1 PUSH1 0x1 PUSH1 0xA0 SHL SUB AND DUP3 PUSH1 0x1 PUSH1 0x1 PUSH1 0xA0 SHL SUB AND EQ ISZERO PUSH2 0xF83 JUMPI PUSH1 0x40 DUP1 MLOAD PUSH3 0x461BCD PUSH1 0xE5 SHL DUP2 MSTORE PUSH1 0x20 PUSH1 0x4 DUP3 ADD MSTORE PUSH1 0x19 PUSH1 0x24 DUP3 ADD MSTORE PUSH32 0x4552433732313A20617070726F766520746F2063616C6C657200000000000000 PUSH1 0x44 DUP3 ADD MSTORE SWAP1 MLOAD SWAP1 DUP2 SWAP1 SUB PUSH1 0x64 ADD SWAP1 REVERT JUMPDEST DUP1 PUSH1 0x5 PUSH1 0x0 PUSH2 0xF90 PUSH2 0x1535 JUMP JUMPDEST PUSH1 0x1 PUSH1 0x1 PUSH1 0xA0 SHL SUB SWAP1 DUP2 AND DUP3 MSTORE PUSH1 0x20 DUP1 DUP4 ADD SWAP4 SWAP1 SWAP4 MSTORE PUSH1 0x40 SWAP2 DUP3 ADD PUSH1 0x0 SWAP1 DUP2 KECCAK256 SWAP2 DUP8 AND DUP1 DUP3 MSTORE SWAP2 SWAP1 SWAP4 MSTORE SWAP2 KECCAK256 DUP1 SLOAD PUSH1 0xFF NOT AND SWAP3 ISZERO ISZERO SWAP3 SWAP1 SWAP3 OR SWAP1 SWAP2 SSTORE PUSH2 0xFD4 PUSH2 0x1535 JUMP JUMPDEST PUSH1 0x1 PUSH1 0x1 PUSH1 0xA0 SHL SUB AND PUSH32 0x17307EAB39AB6107E8899845AD3D59BD9653F200F220920489CA2B5937696C31 DUP4 PUSH1 0x40 MLOAD DUP1 DUP3 ISZERO ISZERO DUP2 MSTORE PUSH1 0x20 ADD SWAP2 POP POP PUSH1 0x40 MLOAD DUP1 SWAP2 SUB SWAP1 LOG3 POP POP JUMP JUMPDEST PUSH2 0x12F DUP2 JUMP JUMPDEST PUSH1 0x0 DUP1 PUSH1 0xF DUP4 DUP2 SLOAD DUP2 LT PUSH2 0x1030 JUMPI INVALID JUMPDEST SWAP1 PUSH1 0x0 MSTORE PUSH1 0x20 PUSH1 0x0 KECCAK256 ADD SLOAD SWAP1 POP PUSH2 0x1046 DUP2 PUSH2 0x188D JUMP JUMPDEST SWAP4 SWAP3 POP POP POP JUMP JUMPDEST PUSH2 0x105E PUSH2 0x1058 PUSH2 0x1535 JUMP JUMPDEST DUP4 PUSH2 0x1668 JUMP JUMPDEST PUSH2 0x1099 JUMPI PUSH1 0x40 MLOAD PUSH3 0x461BCD PUSH1 0xE5 SHL DUP2 MSTORE PUSH1 0x4 ADD DUP1 DUP1 PUSH1 0x20 ADD DUP3 DUP2 SUB DUP3 MSTORE PUSH1 0x31 DUP2 MSTORE PUSH1 0x20 ADD DUP1 PUSH2 0x252A PUSH1 0x31 SWAP2 CODECOPY PUSH1 0x40 ADD SWAP2 POP POP PUSH1 0x40 MLOAD DUP1 SWAP2 SUB SWAP1 REVERT JUMPDEST PUSH2 0x10A5 DUP5 DUP5 DUP5 DUP5 PUSH2 0x189B JUMP JUMPDEST POP POP POP POP JUMP JUMPDEST PUSH1 0xA SLOAD PUSH1 0x1 PUSH1 0x1 PUSH1 0xA0 SHL SUB AND DUP2 JUMP JUMPDEST PUSH1 0x60 PUSH2 0x10C5 DUP3 PUSH2 0x1528 JUMP JUMPDEST PUSH2 0x1100 JUMPI PUSH1 0x40 MLOAD PUSH3 0x461BCD PUSH1 0xE5 SHL DUP2 MSTORE PUSH1 0x4 ADD DUP1 DUP1 PUSH1 0x20 ADD DUP3 DUP2 SUB DUP3 MSTORE PUSH1 0x2F DUP2 MSTORE PUSH1 0x20 ADD DUP1 PUSH2 0x24DA PUSH1 0x2F SWAP2 CODECOPY PUSH1 0x40 ADD SWAP2 POP POP PUSH1 0x40 MLOAD DUP1 SWAP2 SUB SWAP1 REVERT JUMPDEST PUSH1 0x0 DUP3 DUP2 MSTORE PUSH1 0x8 PUSH1 0x20 SWAP1 DUP2 MSTORE PUSH1 0x40 SWAP2 DUP3 SWAP1 KECCAK256 DUP1 SLOAD DUP4 MLOAD PUSH1 0x1F PUSH1 0x2 PUSH1 0x0 NOT PUSH2 0x100 PUSH1 0x1 DUP7 AND ISZERO MUL ADD SWAP1 SWAP4 AND SWAP3 SWAP1 SWAP3 DIV SWAP2 DUP3 ADD DUP5 SWAP1 DIV DUP5 MUL DUP2 ADD DUP5 ADD SWAP1 SWAP5 MSTORE DUP1 DUP5 MSTORE PUSH1 0x60 SWAP4 SWAP3 DUP4 ADD DUP3 DUP3 DUP1 ISZERO PUSH2 0x1195 JUMPI DUP1 PUSH1 0x1F LT PUSH2 0x116A JUMPI PUSH2 0x100 DUP1 DUP4 SLOAD DIV MUL DUP4 MSTORE SWAP2 PUSH1 0x20 ADD SWAP2 PUSH2 0x1195 JUMP JUMPDEST DUP3 ADD SWAP2 SWAP1 PUSH1 0x0 MSTORE PUSH1 0x20 PUSH1 0x0 KECCAK256 SWAP1 JUMPDEST DUP2 SLOAD DUP2 MSTORE SWAP1 PUSH1 0x1 ADD SWAP1 PUSH1 0x20 ADD DUP1 DUP4 GT PUSH2 0x1178 JUMPI DUP3 SWAP1 SUB PUSH1 0x1F AND DUP3 ADD SWAP2 JUMPDEST POP POP POP POP POP SWAP1 POP PUSH1 0x60 PUSH2 0x11A6 PUSH2 0xDDE JUMP JUMPDEST SWAP1 POP DUP1 MLOAD PUSH1 0x0 EQ ISZERO PUSH2 0x11BA JUMPI POP SWAP1 POP PUSH2 0x7F8 JUMP JUMPDEST DUP2 MLOAD ISZERO PUSH2 0x127B JUMPI DUP1 DUP3 PUSH1 0x40 MLOAD PUSH1 0x20 ADD DUP1 DUP4 DUP1 MLOAD SWAP1 PUSH1 0x20 ADD SWAP1 DUP1 DUP4 DUP4 JUMPDEST PUSH1 0x20 DUP4 LT PUSH2 0x11F5 JUMPI DUP1 MLOAD DUP3 MSTORE PUSH1 0x1F NOT SWAP1 SWAP3 ADD SWAP2 PUSH1 0x20 SWAP2 DUP3 ADD SWAP2 ADD PUSH2 0x11D6 JUMP JUMPDEST MLOAD DUP2 MLOAD PUSH1 0x20 SWAP4 DUP5 SUB PUSH2 0x100 EXP PUSH1 0x0 NOT ADD DUP1 NOT SWAP1 SWAP3 AND SWAP2 AND OR SWAP1 MSTORE DUP6 MLOAD SWAP2 SWAP1 SWAP4 ADD SWAP3 DUP6 ADD SWAP2 POP DUP1 DUP4 DUP4 JUMPDEST PUSH1 0x20 DUP4 LT PUSH2 0x123D JUMPI DUP1 MLOAD DUP3 MSTORE PUSH1 0x1F NOT SWAP1 SWAP3 ADD SWAP2 PUSH1 0x20 SWAP2 DUP3 ADD SWAP2 ADD PUSH2 0x121E JUMP JUMPDEST PUSH1 0x1 DUP4 PUSH1 0x20 SUB PUSH2 0x100 EXP SUB DUP1 NOT DUP3 MLOAD AND DUP2 DUP5 MLOAD AND DUP1 DUP3 OR DUP6 MSTORE POP POP POP POP POP POP SWAP1 POP ADD SWAP3 POP POP POP PUSH1 0x40 MLOAD PUSH1 0x20 DUP2 DUP4 SUB SUB DUP2 MSTORE SWAP1 PUSH1 0x40 MSTORE SWAP3 POP POP POP PUSH2 0x7F8 JUMP JUMPDEST DUP1 PUSH2 0x1285 DUP6 PUSH2 0x18ED JUMP JUMPDEST PUSH1 0x40 MLOAD PUSH1 0x20 ADD DUP1 DUP4 DUP1 MLOAD SWAP1 PUSH1 0x20 ADD SWAP1 DUP1 DUP4 DUP4 JUMPDEST PUSH1 0x20 DUP4 LT PUSH2 0x12B7 JUMPI DUP1 MLOAD DUP3 MSTORE PUSH1 0x1F NOT SWAP1 SWAP3 ADD SWAP2 PUSH1 0x20 SWAP2 DUP3 ADD SWAP2 ADD PUSH2 0x1298 JUMP JUMPDEST MLOAD DUP2 MLOAD PUSH1 0x20 SWAP4 DUP5 SUB PUSH2 0x100 EXP PUSH1 0x0 NOT ADD DUP1 NOT SWAP1 SWAP3 AND SWAP2 AND OR SWAP1 MSTORE DUP6 MLOAD SWAP2 SWAP1 SWAP4 ADD SWAP3 DUP6 ADD SWAP2 POP DUP1 DUP4 DUP4 JUMPDEST PUSH1 0x20 DUP4 LT PUSH2 0x12FF JUMPI DUP1 MLOAD DUP3 MSTORE PUSH1 0x1F NOT SWAP1 SWAP3 ADD SWAP2 PUSH1 0x20 SWAP2 DUP3 ADD SWAP2 ADD PUSH2 0x12E0 JUMP JUMPDEST PUSH1 0x1 DUP4 PUSH1 0x20 SUB PUSH2 0x100 EXP SUB DUP1 NOT DUP3 MLOAD AND DUP2 DUP5 MLOAD AND DUP1 DUP3 OR DUP6 MSTORE POP POP POP POP POP POP SWAP1 POP ADD SWAP3 POP POP POP PUSH1 0x40 MLOAD PUSH1 0x20 DUP2 DUP4 SUB SUB DUP2 MSTORE SWAP1 PUSH1 0x40 MSTORE SWAP3 POP POP POP SWAP2 SWAP1 POP JUMP JUMPDEST PUSH1 0x0 DUP1 PUSH1 0x10 DUP4 DUP2 SLOAD DUP2 LT PUSH2 0x134D JUMPI INVALID JUMPDEST SWAP1 PUSH1 0x0 MSTORE PUSH1 0x20 PUSH1 0x0 KECCAK256 ADD SLOAD SWAP1 POP PUSH2 0x1363 DUP2 PUSH2 0x15CA JUMP JUMPDEST SWAP1 SUB SWAP3 SWAP2 POP POP JUMP JUMPDEST PUSH1 0x1 PUSH1 0x1 PUSH1 0xA0 SHL SUB SWAP2 DUP3 AND PUSH1 0x0 SWAP1 DUP2 MSTORE PUSH1 0x5 PUSH1 0x20 SWAP1 DUP2 MSTORE PUSH1 0x40 DUP1 DUP4 KECCAK256 SWAP4 SWAP1 SWAP5 AND DUP3 MSTORE SWAP2 SWAP1 SWAP2 MSTORE KECCAK256 SLOAD PUSH1 0xFF AND SWAP1 JUMP JUMPDEST PUSH1 0x0 PUSH1 0xF DUP4 DUP2 SLOAD DUP2 LT PUSH2 0x13A8 JUMPI INVALID JUMPDEST SWAP1 PUSH1 0x0 MSTORE PUSH1 0x20 PUSH1 0x0 KECCAK256 ADD SLOAD SWAP1 POP PUSH1 0x1 DUP2 GT PUSH2 0x140A JUMPI PUSH1 0x40 DUP1 MLOAD PUSH3 0x461BCD PUSH1 0xE5 SHL DUP2 MSTORE PUSH1 0x20 PUSH1 0x4 DUP3 ADD MSTORE PUSH1 0x9 PUSH1 0x24 DUP3 ADD MSTORE PUSH32 0x4E4F5420464F554E440000000000000000000000000000000000000000000000 PUSH1 0x44 DUP3 ADD MSTORE SWAP1 MLOAD SWAP1 DUP2 SWAP1 SUB PUSH1 0x64 ADD SWAP1 REVERT JUMPDEST DUP1 CALLVALUE LT ISZERO PUSH2 0x144C JUMPI PUSH1 0x40 DUP1 MLOAD PUSH3 0x461BCD PUSH1 0xE5 SHL DUP2 MSTORE PUSH1 0x20 PUSH1 0x4 DUP3 ADD MSTORE PUSH1 0xA PUSH1 0x24 DUP3 ADD MSTORE PUSH10 0x9C9EA8408A9C9EAA8E9 PUSH1 0xB3 SHL PUSH1 0x44 DUP3 ADD MSTORE SWAP1 MLOAD SWAP1 DUP2 SWAP1 SUB PUSH1 0x64 ADD SWAP1 REVERT JUMPDEST PUSH2 0x1455 DUP2 PUSH2 0x188D JUMP JUMPDEST PUSH1 0x40 MLOAD SWAP1 SWAP2 POP PUSH1 0x0 SWAP1 PUSH20 0xDE21F729137C5AF1B01D73AF1DC21EFFA2B8A0D6 SWAP1 CALLVALUE SWAP1 DUP4 DUP2 DUP2 DUP2 DUP6 DUP8 GAS CALL SWAP3 POP POP POP RETURNDATASIZE DUP1 PUSH1 0x0 DUP2 EQ PUSH2 0x14AE JUMPI PUSH1 0x40 MLOAD SWAP2 POP PUSH1 0x1F NOT PUSH1 0x3F RETURNDATASIZE ADD AND DUP3 ADD PUSH1 0x40 MSTORE RETURNDATASIZE DUP3 MSTORE RETURNDATASIZE PUSH1 0x0 PUSH1 0x20 DUP5 ADD RETURNDATACOPY PUSH2 0x14B3 JUMP JUMPDEST PUSH1 0x60 SWAP2 POP JUMPDEST POP POP SWAP1 POP DUP1 PUSH2 0x1509 JUMPI PUSH1 0x40 DUP1 MLOAD PUSH3 0x461BCD PUSH1 0xE5 SHL DUP2 MSTORE PUSH1 0x20 PUSH1 0x4 DUP3 ADD MSTORE PUSH1 0xE PUSH1 0x24 DUP3 ADD MSTORE PUSH32 0x636F756C64206E6F742073656E64000000000000000000000000000000000000 PUSH1 0x44 DUP3 ADD MSTORE SWAP1 MLOAD SWAP1 DUP2 SWAP1 SUB PUSH1 0x64 ADD SWAP1 REVERT JUMPDEST PUSH2 0x1519 DUP4 PUSH1 0xD PUSH2 0xB9A PUSH1 0xC PUSH2 0x15D7 JUMP JUMPDEST POP DUP2 PUSH1 0xF DUP6 DUP2 SLOAD DUP2 LT PUSH2 0xC4B JUMPI INVALID JUMPDEST PUSH1 0x0 PUSH2 0xCD9 PUSH1 0x2 DUP4 PUSH2 0x19FC JUMP JUMPDEST CALLER SWAP1 JUMP JUMPDEST PUSH1 0x0 DUP2 DUP2 MSTORE PUSH1 0x4 PUSH1 0x20 MSTORE PUSH1 0x40 SWAP1 KECCAK256 DUP1 SLOAD PUSH32 0xFFFFFFFFFFFFFFFFFFFFFFFF0000000000000000000000000000000000000000 AND PUSH1 0x1 PUSH1 0x1 PUSH1 0xA0 SHL SUB DUP5 AND SWAP1 DUP2 OR SWAP1 SWAP2 SSTORE DUP2 SWAP1 PUSH2 0x1586 DUP3 PUSH2 0xDB6 JUMP JUMPDEST PUSH1 0x1 PUSH1 0x1 PUSH1 0xA0 SHL SUB AND PUSH32 0x8C5BE1E5EBEC7D5BD14F71427D1E84F3DD0314C0F7B2291E5B200AC8C7C3B925 PUSH1 0x40 MLOAD PUSH1 0x40 MLOAD DUP1 SWAP2 SUB SWAP1 LOG4 POP POP JUMP JUMPDEST PUSH1 0x0 PUSH2 0xCD9 DUP3 PUSH2 0x15D7 JUMP JUMPDEST POP PUSH8 0xDE0B6B3A7640000 SWAP1 JUMP JUMPDEST SLOAD SWAP1 JUMP JUMPDEST PUSH1 0x0 PUSH2 0x12F PUSH2 0x15EA PUSH1 0xC PUSH2 0x15D7 JUMP JUMPDEST LT PUSH2 0x163C JUMPI PUSH1 0x40 DUP1 MLOAD PUSH3 0x461BCD PUSH1 0xE5 SHL DUP2 MSTORE PUSH1 0x20 PUSH1 0x4 DUP3 ADD MSTORE PUSH1 0xC PUSH1 0x24 DUP3 ADD MSTORE PUSH32 0x444F4E45204D494E54494E470000000000000000000000000000000000000000 PUSH1 0x44 DUP3 ADD MSTORE SWAP1 MLOAD SWAP1 DUP2 SWAP1 SUB PUSH1 0x64 ADD SWAP1 REVERT JUMPDEST PUSH2 0x1646 PUSH1 0xC PUSH2 0x1A08 JUMP JUMPDEST PUSH1 0x0 PUSH2 0x1652 PUSH1 0xC PUSH2 0x15D7 JUMP JUMPDEST SWAP1 POP PUSH2 0x165E DUP5 DUP3 PUSH2 0x1A11 JUMP JUMPDEST PUSH2 0xCD6 DUP2 DUP5 PUSH2 0x1B3F JUMP JUMPDEST PUSH1 0x0 PUSH2 0x1673 DUP3 PUSH2 0x1528 JUMP JUMPDEST PUSH2 0x16AE JUMPI PUSH1 0x40 MLOAD PUSH3 0x461BCD PUSH1 0xE5 SHL DUP2 MSTORE PUSH1 0x4 ADD DUP1 DUP1 PUSH1 0x20 ADD DUP3 DUP2 SUB DUP3 MSTORE PUSH1 0x2C DUP2 MSTORE PUSH1 0x20 ADD DUP1 PUSH2 0x2380 PUSH1 0x2C SWAP2 CODECOPY PUSH1 0x40 ADD SWAP2 POP POP PUSH1 0x40 MLOAD DUP1 SWAP2 SUB SWAP1 REVERT JUMPDEST PUSH1 0x0 PUSH2 0x16B9 DUP4 PUSH2 0xDB6 JUMP JUMPDEST SWAP1 POP DUP1 PUSH1 0x1 PUSH1 0x1 PUSH1 0xA0 SHL SUB AND DUP5 PUSH1 0x1 PUSH1 0x1 PUSH1 0xA0 SHL SUB AND EQ DUP1 PUSH2 0x16F4 JUMPI POP DUP4 PUSH1 0x1 PUSH1 0x1 PUSH1 0xA0 SHL SUB AND PUSH2 0x16E9 DUP5 PUSH2 0x8B1 JUMP JUMPDEST PUSH1 0x1 PUSH1 0x1 PUSH1 0xA0 SHL SUB AND EQ JUMPDEST DUP1 PUSH2 0x1704 JUMPI POP PUSH2 0x1704 DUP2 DUP6 PUSH2 0x136B JUMP JUMPDEST SWAP5 SWAP4 POP POP POP POP JUMP JUMPDEST DUP3 PUSH1 0x1 PUSH1 0x1 PUSH1 0xA0 SHL SUB AND PUSH2 0x171F DUP3 PUSH2 0xDB6 JUMP JUMPDEST PUSH1 0x1 PUSH1 0x1 PUSH1 0xA0 SHL SUB AND EQ PUSH2 0x1764 JUMPI PUSH1 0x40 MLOAD PUSH3 0x461BCD PUSH1 0xE5 SHL DUP2 MSTORE PUSH1 0x4 ADD DUP1 DUP1 PUSH1 0x20 ADD DUP3 DUP2 SUB DUP3 MSTORE PUSH1 0x29 DUP2 MSTORE PUSH1 0x20 ADD DUP1 PUSH2 0x24B1 PUSH1 0x29 SWAP2 CODECOPY PUSH1 0x40 ADD SWAP2 POP POP PUSH1 0x40 MLOAD DUP1 SWAP2 SUB SWAP1 REVERT JUMPDEST PUSH1 0x1 PUSH1 0x1 PUSH1 0xA0 SHL SUB DUP3 AND PUSH2 0x17A9 JUMPI PUSH1 0x40 MLOAD PUSH3 0x461BCD PUSH1 0xE5 SHL DUP2 MSTORE PUSH1 0x4 ADD DUP1 DUP1 PUSH1 0x20 ADD DUP3 DUP2 SUB DUP3 MSTORE PUSH1 0x24 DUP2 MSTORE PUSH1 0x20 ADD DUP1 PUSH2 0x235C PUSH1 0x24 SWAP2 CODECOPY PUSH1 0x40 ADD SWAP2 POP POP PUSH1 0x40 MLOAD DUP1 SWAP2 SUB SWAP1 REVERT JUMPDEST PUSH2 0x17B4 DUP4 DUP4 DUP4 PUSH2 0x9E9 JUMP JUMPDEST PUSH2 0x17BF PUSH1 0x0 DUP3 PUSH2 0x1539 JUMP JUMPDEST PUSH1 0x1 PUSH1 0x1 PUSH1 0xA0 SHL SUB DUP4 AND PUSH1 0x0 SWAP1 DUP2 MSTORE PUSH1 0x1 PUSH1 0x20 MSTORE PUSH1 0x40 SWAP1 KECCAK256 PUSH2 0x17E1 SWAP1 DUP3 PUSH2 0x1BA2 JUMP JUMPDEST POP PUSH1 0x1 PUSH1 0x1 PUSH1 0xA0 SHL SUB DUP3 AND PUSH1 0x0 SWAP1 DUP2 MSTORE PUSH1 0x1 PUSH1 0x20 MSTORE PUSH1 0x40 SWAP1 KECCAK256 PUSH2 0x1804 SWAP1 DUP3 PUSH2 0x1BAE JUMP JUMPDEST POP PUSH2 0x1811 PUSH1 0x2 DUP3 DUP5 PUSH2 0x1BBA JUMP JUMPDEST POP DUP1 DUP3 PUSH1 0x1 PUSH1 0x1 PUSH1 0xA0 SHL SUB AND DUP5 PUSH1 0x1 PUSH1 0x1 PUSH1 0xA0 SHL SUB AND PUSH32 0xDDF252AD1BE2C89B69C2B068FC378DAA952BA7F163C4A11628F55A4DF523B3EF PUSH1 0x40 MLOAD PUSH1 0x40 MLOAD DUP1 SWAP2 SUB SWAP1 LOG4 POP POP POP JUMP JUMPDEST PUSH1 0x0 PUSH2 0xCD6 DUP4 DUP4 PUSH2 0x1BD0 JUMP JUMPDEST PUSH1 0x0 DUP1 DUP1 DUP1 PUSH2 0x1873 DUP7 DUP7 PUSH2 0x1C34 JUMP JUMPDEST SWAP1 SWAP8 SWAP1 SWAP7 POP SWAP5 POP POP POP POP POP JUMP JUMPDEST PUSH1 0x0 PUSH2 0x1704 DUP5 DUP5 DUP5 PUSH2 0x1CAF JUMP JUMPDEST PUSH2 0x3E8 PUSH2 0x417 SWAP2 SWAP1 SWAP2 MUL DIV SWAP1 JUMP JUMPDEST PUSH2 0x18A6 DUP5 DUP5 DUP5 PUSH2 0x170C JUMP JUMPDEST PUSH2 0x18B2 DUP5 DUP5 DUP5 DUP5 PUSH2 0x1D79 JUMP JUMPDEST PUSH2 0x10A5 JUMPI PUSH1 0x40 MLOAD PUSH3 0x461BCD PUSH1 0xE5 SHL DUP2 MSTORE PUSH1 0x4 ADD DUP1 DUP1 PUSH1 0x20 ADD DUP3 DUP2 SUB DUP3 MSTORE PUSH1 0x32 DUP2 MSTORE PUSH1 0x20 ADD DUP1 PUSH2 0x232A PUSH1 0x32 SWAP2 CODECOPY PUSH1 0x40 ADD SWAP2 POP POP PUSH1 0x40 MLOAD DUP1 SWAP2 SUB SWAP1 REVERT JUMPDEST PUSH1 0x60 DUP2 PUSH2 0x192E JUMPI POP PUSH1 0x40 DUP1 MLOAD DUP1 DUP3 ADD SWAP1 SWAP2 MSTORE PUSH1 0x1 DUP2 MSTORE PUSH32 0x3000000000000000000000000000000000000000000000000000000000000000 PUSH1 0x20 DUP3 ADD MSTORE PUSH2 0x7F8 JUMP JUMPDEST DUP2 PUSH1 0x0 JUMPDEST DUP2 ISZERO PUSH2 0x1946 JUMPI PUSH1 0x1 ADD PUSH1 0xA DUP3 DIV SWAP2 POP PUSH2 0x1932 JUMP JUMPDEST PUSH1 0x60 DUP2 PUSH8 0xFFFFFFFFFFFFFFFF DUP2 GT DUP1 ISZERO PUSH2 0x195F JUMPI PUSH1 0x0 DUP1 REVERT JUMPDEST POP PUSH1 0x40 MLOAD SWAP1 DUP1 DUP3 MSTORE DUP1 PUSH1 0x1F ADD PUSH1 0x1F NOT AND PUSH1 0x20 ADD DUP3 ADD PUSH1 0x40 MSTORE DUP1 ISZERO PUSH2 0x198A JUMPI PUSH1 0x20 DUP3 ADD DUP2 DUP1 CALLDATASIZE DUP4 CALLDATACOPY ADD SWAP1 POP JUMPDEST POP DUP6 SWAP4 POP SWAP1 POP PUSH1 0x0 NOT DUP3 ADD JUMPDEST DUP4 ISZERO PUSH2 0x19F3 JUMPI PUSH1 0xA DUP5 MOD PUSH1 0x30 ADD PUSH1 0xF8 SHL DUP3 DUP3 DUP1 PUSH1 0x1 SWAP1 SUB SWAP4 POP DUP2 MLOAD DUP2 LT PUSH2 0x19B9 JUMPI INVALID JUMPDEST PUSH1 0x20 ADD ADD SWAP1 PUSH31 0xFFFFFFFFFFFFFFFFFFFFFFFFFFFFFFFFFFFFFFFFFFFFFFFFFFFFFFFFFFFFFF NOT AND SWAP1 DUP2 PUSH1 0x0 BYTE SWAP1 MSTORE8 POP PUSH1 0xA DUP5 DIV SWAP4 POP PUSH2 0x1996 JUMP JUMPDEST POP SWAP5 SWAP4 POP POP POP POP JUMP JUMPDEST PUSH1 0x0 PUSH2 0xCD6 DUP4 DUP4 PUSH2 0x1F23 JUMP JUMPDEST DUP1 SLOAD PUSH1 0x1 ADD SWAP1 SSTORE JUMP JUMPDEST PUSH1 0x1 PUSH1 0x1 PUSH1 0xA0 SHL SUB DUP3 AND PUSH2 0x1A6C JUMPI PUSH1 0x40 DUP1 MLOAD PUSH3 0x461BCD PUSH1 0xE5 SHL DUP2 MSTORE PUSH1 0x20 PUSH1 0x4 DUP3 ADD DUP2 SWAP1 MSTORE PUSH1 0x24 DUP3 ADD MSTORE PUSH32 0x4552433732313A206D696E7420746F20746865207A65726F2061646472657373 PUSH1 0x44 DUP3 ADD MSTORE SWAP1 MLOAD SWAP1 DUP2 SWAP1 SUB PUSH1 0x64 ADD SWAP1 REVERT JUMPDEST PUSH2 0x1A75 DUP2 PUSH2 0x1528 JUMP JUMPDEST ISZERO PUSH2 0x1AC7 JUMPI PUSH1 0x40 DUP1 MLOAD PUSH3 0x461BCD PUSH1 0xE5 SHL DUP2 MSTORE PUSH1 0x20 PUSH1 0x4 DUP3 ADD MSTORE PUSH1 0x1C PUSH1 0x24 DUP3 ADD MSTORE PUSH32 0x4552433732313A20746F6B656E20616C7265616479206D696E74656400000000 PUSH1 0x44 DUP3 ADD MSTORE SWAP1 MLOAD SWAP1 DUP2 SWAP1 SUB PUSH1 0x64 ADD SWAP1 REVERT JUMPDEST PUSH2 0x1AD3 PUSH1 0x0 DUP4 DUP4 PUSH2 0x9E9 JUMP JUMPDEST PUSH1 0x1 PUSH1 0x1 PUSH1 0xA0 SHL SUB DUP3 AND PUSH1 0x0 SWAP1 DUP2 MSTORE PUSH1 0x1 PUSH1 0x20 MSTORE PUSH1 0x40 SWAP1 KECCAK256 PUSH2 0x1AF5 SWAP1 DUP3 PUSH2 0x1BAE JUMP JUMPDEST POP PUSH2 0x1B02 PUSH1 0x2 DUP3 DUP5 PUSH2 0x1BBA JUMP JUMPDEST POP PUSH1 0x40 MLOAD DUP2 SWAP1 PUSH1 0x1 PUSH1 0x1 PUSH1 0xA0 SHL SUB DUP5 AND SWAP1 PUSH1 0x0 SWAP1 PUSH32 0xDDF252AD1BE2C89B69C2B068FC378DAA952BA7F163C4A11628F55A4DF523B3EF SWAP1 DUP3 SWAP1 LOG4 POP POP JUMP JUMPDEST PUSH2 0x1B48 DUP3 PUSH2 0x1528 JUMP JUMPDEST PUSH2 0x1B83 JUMPI PUSH1 0x40 MLOAD PUSH3 0x461BCD PUSH1 0xE5 SHL DUP2 MSTORE PUSH1 0x4 ADD DUP1 DUP1 PUSH1 0x20 ADD DUP3 DUP2 SUB DUP3 MSTORE PUSH1 0x2C DUP2 MSTORE PUSH1 0x20 ADD DUP1 PUSH2 0x2485 PUSH1 0x2C SWAP2 CODECOPY PUSH1 0x40 ADD SWAP2 POP POP PUSH1 0x40 MLOAD DUP1 SWAP2 SUB SWAP1 REVERT JUMPDEST PUSH1 0x0 DUP3 DUP2 MSTORE PUSH1 0x8 PUSH1 0x20 SWAP1 DUP2 MSTORE PUSH1 0x40 SWAP1 SWAP2 KECCAK256 DUP3 MLOAD PUSH2 0x9E9 SWAP3 DUP5 ADD SWAP1 PUSH2 0x2274 JUMP JUMPDEST PUSH1 0x0 PUSH2 0xCD6 DUP4 DUP4 PUSH2 0x1F3B JUMP JUMPDEST PUSH1 0x0 PUSH2 0xCD6 DUP4 DUP4 PUSH2 0x2001 JUMP JUMPDEST PUSH1 0x0 PUSH2 0x1704 DUP5 DUP5 PUSH1 0x1 PUSH1 0x1 PUSH1 0xA0 SHL SUB DUP6 AND PUSH2 0x204B JUMP JUMPDEST DUP2 SLOAD PUSH1 0x0 SWAP1 DUP3 LT PUSH2 0x1C12 JUMPI PUSH1 0x40 MLOAD PUSH3 0x461BCD PUSH1 0xE5 SHL DUP2 MSTORE PUSH1 0x4 ADD DUP1 DUP1 PUSH1 0x20 ADD DUP3 DUP2 SUB DUP3 MSTORE PUSH1 0x22 DUP2 MSTORE PUSH1 0x20 ADD DUP1 PUSH2 0x2308 PUSH1 0x22 SWAP2 CODECOPY PUSH1 0x40 ADD SWAP2 POP POP PUSH1 0x40 MLOAD DUP1 SWAP2 SUB SWAP1 REVERT JUMPDEST DUP3 PUSH1 0x0 ADD DUP3 DUP2 SLOAD DUP2 LT PUSH2 0x1C21 JUMPI INVALID JUMPDEST SWAP1 PUSH1 0x0 MSTORE PUSH1 0x20 PUSH1 0x0 KECCAK256 ADD SLOAD SWAP1 POP SWAP3 SWAP2 POP POP JUMP JUMPDEST DUP2 SLOAD PUSH1 0x0 SWAP1 DUP2 SWAP1 DUP4 LT PUSH2 0x1C78 JUMPI PUSH1 0x40 MLOAD PUSH3 0x461BCD PUSH1 0xE5 SHL DUP2 MSTORE PUSH1 0x4 ADD DUP1 DUP1 PUSH1 0x20 ADD DUP3 DUP2 SUB DUP3 MSTORE PUSH1 0x22 DUP2 MSTORE PUSH1 0x20 ADD DUP1 PUSH2 0x2437 PUSH1 0x22 SWAP2 CODECOPY PUSH1 0x40 ADD SWAP2 POP POP PUSH1 0x40 MLOAD DUP1 SWAP2 SUB SWAP1 REVERT JUMPDEST PUSH1 0x0 DUP5 PUSH1 0x0 ADD DUP5 DUP2 SLOAD DUP2 LT PUSH2 0x1C89 JUMPI INVALID JUMPDEST SWAP1 PUSH1 0x0 MSTORE PUSH1 0x20 PUSH1 0x0 KECCAK256 SWAP1 PUSH1 0x2 MUL ADD SWAP1 POP DUP1 PUSH1 0x0 ADD SLOAD DUP2 PUSH1 0x1 ADD SLOAD SWAP3 POP SWAP3 POP POP SWAP3 POP SWAP3 SWAP1 POP JUMP JUMPDEST PUSH1 0x0 DUP3 DUP2 MSTORE PUSH1 0x1 DUP5 ADD PUSH1 0x20 MSTORE PUSH1 0x40 DUP2 KECCAK256 SLOAD DUP3 DUP2 PUSH2 0x1D4A JUMPI PUSH1 0x40 MLOAD PUSH3 0x461BCD PUSH1 0xE5 SHL DUP2 MSTORE PUSH1 0x4 ADD DUP1 DUP1 PUSH1 0x20 ADD DUP3 DUP2 SUB DUP3 MSTORE DUP4 DUP2 DUP2 MLOAD DUP2 MSTORE PUSH1 0x20 ADD SWAP2 POP DUP1 MLOAD SWAP1 PUSH1 0x20 ADD SWAP1 DUP1 DUP4 DUP4 PUSH1 0x0 JUMPDEST DUP4 DUP2 LT ISZERO PUSH2 0x1D0F JUMPI DUP2 DUP2 ADD MLOAD DUP4 DUP3 ADD MSTORE PUSH1 0x20 ADD PUSH2 0x1CF7 JUMP JUMPDEST POP POP POP POP SWAP1 POP SWAP1 DUP2 ADD SWAP1 PUSH1 0x1F AND DUP1 ISZERO PUSH2 0x1D3C JUMPI DUP1 DUP3 SUB DUP1 MLOAD PUSH1 0x1 DUP4 PUSH1 0x20 SUB PUSH2 0x100 EXP SUB NOT AND DUP2 MSTORE PUSH1 0x20 ADD SWAP2 POP JUMPDEST POP SWAP3 POP POP POP PUSH1 0x40 MLOAD DUP1 SWAP2 SUB SWAP1 REVERT JUMPDEST POP DUP5 PUSH1 0x0 ADD PUSH1 0x1 DUP3 SUB DUP2 SLOAD DUP2 LT PUSH2 0x1D5D JUMPI INVALID JUMPDEST SWAP1 PUSH1 0x0 MSTORE PUSH1 0x20 PUSH1 0x0 KECCAK256 SWAP1 PUSH1 0x2 MUL ADD PUSH1 0x1 ADD SLOAD SWAP2 POP POP SWAP4 SWAP3 POP POP POP JUMP JUMPDEST PUSH1 0x0 PUSH2 0x1D8D DUP5 PUSH1 0x1 PUSH1 0x1 PUSH1 0xA0 SHL SUB AND PUSH2 0x20E2 JUMP JUMPDEST PUSH2 0x1D99 JUMPI POP PUSH1 0x1 PUSH2 0x1704 JUMP JUMPDEST PUSH1 0x60 PUSH2 0x1ED1 PUSH4 0xA85BD01 PUSH1 0xE1 SHL PUSH2 0x1DAE PUSH2 0x1535 JUMP JUMPDEST DUP9 DUP8 DUP8 PUSH1 0x40 MLOAD PUSH1 0x24 ADD DUP1 DUP6 PUSH1 0x1 PUSH1 0x1 PUSH1 0xA0 SHL SUB AND DUP2 MSTORE PUSH1 0x20 ADD DUP5 PUSH1 0x1 PUSH1 0x1 PUSH1 0xA0 SHL SUB AND DUP2 MSTORE PUSH1 0x20 ADD DUP4 DUP2 MSTORE PUSH1 0x20 ADD DUP1 PUSH1 0x20 ADD DUP3 DUP2 SUB DUP3 MSTORE DUP4 DUP2 DUP2 MLOAD DUP2 MSTORE PUSH1 0x20 ADD SWAP2 POP DUP1 MLOAD SWAP1 PUSH1 0x20 ADD SWAP1 DUP1 DUP4 DUP4 PUSH1 0x0 JUMPDEST DUP4 DUP2 LT ISZERO PUSH2 0x1E15 JUMPI DUP2 DUP2 ADD MLOAD DUP4 DUP3 ADD MSTORE PUSH1 0x20 ADD PUSH2 0x1DFD JUMP JUMPDEST POP POP POP POP SWAP1 POP SWAP1 DUP2 ADD SWAP1 PUSH1 0x1F AND DUP1 ISZERO PUSH2 0x1E42 JUMPI DUP1 DUP3 SUB DUP1 MLOAD PUSH1 0x1 DUP4 PUSH1 0x20 SUB PUSH2 0x100 EXP SUB NOT AND DUP2 MSTORE PUSH1 0x20 ADD SWAP2 POP JUMPDEST POP SWAP6 POP POP POP POP POP POP PUSH1 0x40 MLOAD PUSH1 0x20 DUP2 DUP4 SUB SUB DUP2 MSTORE SWAP1 PUSH1 0x40 MSTORE SWAP1 PUSH28 0xFFFFFFFFFFFFFFFFFFFFFFFFFFFFFFFFFFFFFFFFFFFFFFFFFFFFFFFF NOT AND PUSH1 0x20 DUP3 ADD DUP1 MLOAD PUSH28 0xFFFFFFFFFFFFFFFFFFFFFFFFFFFFFFFFFFFFFFFFFFFFFFFFFFFFFFFF DUP4 DUP2 DUP4 AND OR DUP4 MSTORE POP POP POP POP PUSH1 0x40 MLOAD DUP1 PUSH1 0x60 ADD PUSH1 0x40 MSTORE DUP1 PUSH1 0x32 DUP2 MSTORE PUSH1 0x20 ADD PUSH2 0x232A PUSH1 0x32 SWAP2 CODECOPY PUSH1 0x1 PUSH1 0x1 PUSH1 0xA0 SHL SUB DUP9 AND SWAP2 SWAP1 PUSH2 0x20E8 JUMP JUMPDEST SWAP1 POP PUSH1 0x0 DUP2 DUP1 PUSH1 0x20 ADD SWAP1 MLOAD PUSH1 0x20 DUP2 LT ISZERO PUSH2 0x1EEA JUMPI PUSH1 0x0 DUP1 REVERT JUMPDEST POP MLOAD PUSH32 0xFFFFFFFF00000000000000000000000000000000000000000000000000000000 AND PUSH4 0xA85BD01 PUSH1 0xE1 SHL EQ SWAP3 POP POP POP SWAP5 SWAP4 POP POP POP POP JUMP JUMPDEST PUSH1 0x0 SWAP1 DUP2 MSTORE PUSH1 0x1 SWAP2 SWAP1 SWAP2 ADD PUSH1 0x20 MSTORE PUSH1 0x40 SWAP1 KECCAK256 SLOAD ISZERO ISZERO SWAP1 JUMP JUMPDEST PUSH1 0x0 DUP2 DUP2 MSTORE PUSH1 0x1 DUP4 ADD PUSH1 0x20 MSTORE PUSH1 0x40 DUP2 KECCAK256 SLOAD DUP1 ISZERO PUSH2 0x1FF7 JUMPI DUP4 SLOAD PUSH1 0x0 NOT DUP1 DUP4 ADD SWAP2 SWAP1 DUP2 ADD SWAP1 PUSH1 0x0 SWAP1 DUP8 SWAP1 DUP4 SWAP1 DUP2 LT PUSH2 0x1F6E JUMPI INVALID JUMPDEST SWAP1 PUSH1 0x0 MSTORE PUSH1 0x20 PUSH1 0x0 KECCAK256 ADD SLOAD SWAP1 POP DUP1 DUP8 PUSH1 0x0 ADD DUP5 DUP2 SLOAD DUP2 LT PUSH2 0x1F8B JUMPI INVALID JUMPDEST PUSH1 0x0 SWAP2 DUP3 MSTORE PUSH1 0x20 DUP1 DUP4 KECCAK256 SWAP1 SWAP2 ADD SWAP3 SWAP1 SWAP3 SSTORE DUP3 DUP2 MSTORE PUSH1 0x1 DUP10 DUP2 ADD SWAP1 SWAP3 MSTORE PUSH1 0x40 SWAP1 KECCAK256 SWAP1 DUP5 ADD SWAP1 SSTORE DUP7 SLOAD DUP8 SWAP1 DUP1 PUSH2 0x1FBB JUMPI INVALID JUMPDEST PUSH1 0x1 SWAP1 SUB DUP2 DUP2 SWAP1 PUSH1 0x0 MSTORE PUSH1 0x20 PUSH1 0x0 KECCAK256 ADD PUSH1 0x0 SWAP1 SSTORE SWAP1 SSTORE DUP7 PUSH1 0x1 ADD PUSH1 0x0 DUP8 DUP2 MSTORE PUSH1 0x20 ADD SWAP1 DUP2 MSTORE PUSH1 0x20 ADD PUSH1 0x0 KECCAK256 PUSH1 0x0 SWAP1 SSTORE PUSH1 0x1 SWAP5 POP POP POP POP POP PUSH2 0xCD9 JUMP JUMPDEST PUSH1 0x0 SWAP2 POP POP PUSH2 0xCD9 JUMP JUMPDEST PUSH1 0x0 PUSH2 0x200D DUP4 DUP4 PUSH2 0x1F23 JUMP JUMPDEST PUSH2 0x2043 JUMPI POP DUP2 SLOAD PUSH1 0x1 DUP2 DUP2 ADD DUP5 SSTORE PUSH1 0x0 DUP5 DUP2 MSTORE PUSH1 0x20 DUP1 DUP3 KECCAK256 SWAP1 SWAP4 ADD DUP5 SWAP1 SSTORE DUP5 SLOAD DUP5 DUP3 MSTORE DUP3 DUP7 ADD SWAP1 SWAP4 MSTORE PUSH1 0x40 SWAP1 KECCAK256 SWAP2 SWAP1 SWAP2 SSTORE PUSH2 0xCD9 JUMP JUMPDEST POP PUSH1 0x0 PUSH2 0xCD9 JUMP JUMPDEST PUSH1 0x0 DUP3 DUP2 MSTORE PUSH1 0x1 DUP5 ADD PUSH1 0x20 MSTORE PUSH1 0x40 DUP2 KECCAK256 SLOAD DUP1 PUSH2 0x20B0 JUMPI POP POP PUSH1 0x40 DUP1 MLOAD DUP1 DUP3 ADD DUP3 MSTORE DUP4 DUP2 MSTORE PUSH1 0x20 DUP1 DUP3 ADD DUP5 DUP2 MSTORE DUP7 SLOAD PUSH1 0x1 DUP2 DUP2 ADD DUP10 SSTORE PUSH1 0x0 DUP10 DUP2 MSTORE DUP5 DUP2 KECCAK256 SWAP6 MLOAD PUSH1 0x2 SWAP1 SWAP4 MUL SWAP1 SWAP6 ADD SWAP2 DUP3 SSTORE SWAP2 MLOAD SWAP1 DUP3 ADD SSTORE DUP7 SLOAD DUP7 DUP5 MSTORE DUP2 DUP9 ADD SWAP1 SWAP3 MSTORE SWAP3 SWAP1 SWAP2 KECCAK256 SSTORE PUSH2 0x1046 JUMP JUMPDEST DUP3 DUP6 PUSH1 0x0 ADD PUSH1 0x1 DUP4 SUB DUP2 SLOAD DUP2 LT PUSH2 0x20C3 JUMPI INVALID JUMPDEST SWAP1 PUSH1 0x0 MSTORE PUSH1 0x20 PUSH1 0x0 KECCAK256 SWAP1 PUSH1 0x2 MUL ADD PUSH1 0x1 ADD DUP2 SWAP1 SSTORE POP PUSH1 0x0 SWAP2 POP POP PUSH2 0x1046 JUMP JUMPDEST EXTCODESIZE ISZERO ISZERO SWAP1 JUMP JUMPDEST PUSH1 0x60 PUSH2 0x1704 DUP5 DUP5 PUSH1 0x0 DUP6 DUP6 PUSH2 0x20FC DUP6 PUSH2 0x20E2 JUMP JUMPDEST PUSH2 0x214D JUMPI PUSH1 0x40 DUP1 MLOAD PUSH3 0x461BCD PUSH1 0xE5 SHL DUP2 MSTORE PUSH1 0x20 PUSH1 0x4 DUP3 ADD MSTORE PUSH1 0x1D PUSH1 0x24 DUP3 ADD MSTORE PUSH32 0x416464726573733A2063616C6C20746F206E6F6E2D636F6E7472616374000000 PUSH1 0x44 DUP3 ADD MSTORE SWAP1 MLOAD SWAP1 DUP2 SWAP1 SUB PUSH1 0x64 ADD SWAP1 REVERT JUMPDEST PUSH1 0x0 PUSH1 0x60 DUP7 PUSH1 0x1 PUSH1 0x1 PUSH1 0xA0 SHL SUB AND DUP6 DUP8 PUSH1 0x40 MLOAD DUP1 DUP3 DUP1 MLOAD SWAP1 PUSH1 0x20 ADD SWAP1 DUP1 DUP4 DUP4 JUMPDEST PUSH1 0x20 DUP4 LT PUSH2 0x218C JUMPI DUP1 MLOAD DUP3 MSTORE PUSH1 0x1F NOT SWAP1 SWAP3 ADD SWAP2 PUSH1 0x20 SWAP2 DUP3 ADD SWAP2 ADD PUSH2 0x216D JUMP JUMPDEST PUSH1 0x1 DUP4 PUSH1 0x20 SUB PUSH2 0x100 EXP SUB DUP1 NOT DUP3 MLOAD AND DUP2 DUP5 MLOAD AND DUP1 DUP3 OR DUP6 MSTORE POP POP POP POP POP POP SWAP1 POP ADD SWAP2 POP POP PUSH1 0x0 PUSH1 0x40 MLOAD DUP1 DUP4 SUB DUP2 DUP6 DUP8 GAS CALL SWAP3 POP POP POP RETURNDATASIZE DUP1 PUSH1 0x0 DUP2 EQ PUSH2 0x21EE JUMPI PUSH1 0x40 MLOAD SWAP2 POP PUSH1 0x1F NOT PUSH1 0x3F RETURNDATASIZE ADD AND DUP3 ADD PUSH1 0x40 MSTORE RETURNDATASIZE DUP3 MSTORE RETURNDATASIZE PUSH1 0x0 PUSH1 0x20 DUP5 ADD RETURNDATACOPY PUSH2 0x21F3 JUMP JUMPDEST PUSH1 0x60 SWAP2 POP JUMPDEST POP SWAP2 POP SWAP2 POP PUSH2 0x2203 DUP3 DUP3 DUP7 PUSH2 0x220E JUMP JUMPDEST SWAP8 SWAP7 POP POP POP POP POP POP POP JUMP JUMPDEST PUSH1 0x60 DUP4 ISZERO PUSH2 0x221D JUMPI POP DUP2 PUSH2 0x1046 JUMP JUMPDEST DUP3 MLOAD ISZERO PUSH2 0x222D JUMPI DUP3 MLOAD DUP1 DUP5 PUSH1 0x20 ADD REVERT JUMPDEST PUSH1 0x40 MLOAD PUSH3 0x461BCD PUSH1 0xE5 SHL DUP2 MSTORE PUSH1 0x20 PUSH1 0x4 DUP3 ADD DUP2 DUP2 MSTORE DUP5 MLOAD PUSH1 0x24 DUP5 ADD MSTORE DUP5 MLOAD DUP6 SWAP4 SWAP2 SWAP3 DUP4 SWAP3 PUSH1 0x44 ADD SWAP2 SWAP1 DUP6 ADD SWAP1 DUP1 DUP4 DUP4 PUSH1 0x0 DUP4 ISZERO PUSH2 0x1D0F JUMPI DUP2 DUP2 ADD MLOAD DUP4 DUP3 ADD MSTORE PUSH1 0x20 ADD PUSH2 0x1CF7 JUMP JUMPDEST DUP3 DUP1 SLOAD PUSH1 0x1 DUP2 PUSH1 0x1 AND ISZERO PUSH2 0x100 MUL SUB AND PUSH1 0x2 SWAP1 DIV SWAP1 PUSH1 0x0 MSTORE PUSH1 0x20 PUSH1 0x0 KECCAK256 SWAP1 PUSH1 0x1F ADD PUSH1 0x20 SWAP1 DIV DUP2 ADD SWAP3 DUP3 PUSH1 0x1F LT PUSH2 0x22B5 JUMPI DUP1 MLOAD PUSH1 0xFF NOT AND DUP4 DUP1 ADD OR DUP6 SSTORE PUSH2 0x22E2 JUMP JUMPDEST DUP3 DUP1 ADD PUSH1 0x1 ADD DUP6 SSTORE DUP3 ISZERO PUSH2 0x22E2 JUMPI SWAP2 DUP3 ADD JUMPDEST DUP3 DUP2 GT ISZERO PUSH2 0x22E2 JUMPI DUP3 MLOAD DUP3 SSTORE SWAP2 PUSH1 0x20 ADD SWAP2 SWAP1 PUSH1 0x1 ADD SWAP1 PUSH2 0x22C7 JUMP JUMPDEST POP PUSH2 0x22EE SWAP3 SWAP2 POP PUSH2 0x22F2 JUMP JUMPDEST POP SWAP1 JUMP JUMPDEST JUMPDEST DUP1 DUP3 GT ISZERO PUSH2 0x22EE JUMPI PUSH1 0x0 DUP2 SSTORE PUSH1 0x1 ADD PUSH2 0x22F3 JUMP INVALID GASLIMIT PUSH15 0x756D657261626C655365743A20696E PUSH5 0x6578206F75 PUSH21 0x206F6620626F756E64734552433732313A20747261 PUSH15 0x7366657220746F206E6F6E20455243 CALLDATACOPY ORIGIN BALANCE MSTORE PUSH6 0x636569766572 KECCAK256 PUSH10 0x6D706C656D656E746572 GASLIMIT MSTORE NUMBER CALLDATACOPY ORIGIN BALANCE GASPRICE KECCAK256 PUSH21 0x72616E7366657220746F20746865207A65726F2061 PUSH5 0x6472657373 GASLIMIT MSTORE NUMBER CALLDATACOPY ORIGIN BALANCE GASPRICE KECCAK256 PUSH16 0x70657261746F7220717565727920666F PUSH19 0x206E6F6E6578697374656E7420746F6B656E45 MSTORE NUMBER CALLDATACOPY ORIGIN BALANCE GASPRICE KECCAK256 PUSH2 0x7070 PUSH19 0x6F76652063616C6C6572206973206E6F74206F PUSH24 0x6E6572206E6F7220617070726F76656420666F7220616C6C GASLIMIT MSTORE NUMBER CALLDATACOPY ORIGIN BALANCE GASPRICE KECCAK256 PUSH3 0x616C61 PUSH15 0x636520717565727920666F72207468 PUSH6 0x207A65726F20 PUSH2 0x6464 PUSH19 0x6573734552433732313A206F776E6572207175 PUSH6 0x727920666F72 KECCAK256 PUSH15 0x6F6E6578697374656E7420746F6B65 PUSH15 0x456E756D657261626C654D61703A20 PUSH10 0x6E646578206F7574206F PUSH7 0x20626F756E6473 GASLIMIT MSTORE NUMBER CALLDATACOPY ORIGIN BALANCE GASPRICE KECCAK256 PUSH2 0x7070 PUSH19 0x6F76656420717565727920666F72206E6F6E65 PUSH25 0x697374656E7420746F6B656E4552433732314D657461646174 PUSH2 0x3A20 SSTORE MSTORE 0x49 KECCAK256 PUSH20 0x6574206F66206E6F6E6578697374656E7420746F PUSH12 0x656E4552433732313A207472 PUSH2 0x6E73 PUSH7 0x6572206F662074 PUSH16 0x6B656E2074686174206973206E6F7420 PUSH16 0x776E4552433732314D65746164617461 GASPRICE KECCAK256 SSTORE MSTORE 0x49 KECCAK256 PUSH18 0x7565727920666F72206E6F6E657869737465 PUSH15 0x7420746F6B656E4552433732313A20 PUSH2 0x7070 PUSH19 0x6F76616C20746F2063757272656E74206F776E PUSH6 0x724552433732 BALANCE GASPRICE KECCAK256 PUSH21 0x72616E736665722063616C6C6572206973206E6F74 KECCAK256 PUSH16 0x776E6572206E6F7220617070726F7665 PUSH5 0xA264697066 PUSH20 0x58221220DFF3321CC7D4304B152A69F54DC56434 0x2E 0xB6 0xCD KECCAK256 0xB4 PUSH11 0x76A9BDC5DFCA473FC82464 PUSH20 0x6F6C6343000700003368747470733A2F2F676174 PUSH6 0x7761792E7069 PUSH15 0x6174612E636C6F75642F697066732F MLOAD PUSH14 0x64526D5A31555053414C4E567558 MSIZE ORIGIN PUSH14 0x59506233543565786E39696E3141 0x4C CALLER PUSH21 0x73656D613472593251462F6A736F6E2F456D616369 PUSH2 0x7465 PUSH5 0x5F526F6D5F 0x5F PUSH19 0x6561645F6F6E6C795F6D656D6F72795F2E6A73 PUSH16 0x6E4E617374795F4661715F5F66726571 PUSH22 0x656E746C795F61736B65645F7175657374696F6E735F 0x2E PUSH11 0x736F6E0000000000000000 "
        },
        "gasEstimates": {
            "creation": {
                "codeDepositCost": "1923200",
                "executionCost": "infinite",
                "totalCost": "infinite"
            },
            "external": {
                "_candy()": "1126",
                "_coef()": "1044",
                "approve(address,uint256)": "infinite",
                "balanceOf(address)": "infinite",
                "baseURI()": "infinite",
                "getApproved(uint256)": "infinite",
                "getCurrentERC20Price(uint256)": "2045",
                "getCurrentEthPrice(uint256)": "2040",
                "gitcoin()": "288",
                "isApprovedForAll(address,address)": "1350",
                "limit()": "309",
                "merch(uint256)": "infinite",
                "merchERC20Price(uint256)": "1976",
                "merchETHprice(uint256)": "2043",
                "name()": "infinite",
                "ownerOf(uint256)": "infinite",
                "requestMint(uint256,address)": "infinite",
                "requestMintWithToken(uint256,address,uint256)": "infinite",
                "safeTransferFrom(address,address,uint256)": "infinite",
                "safeTransferFrom(address,address,uint256,bytes)": "infinite",
                "setApprovalForAll(address,bool)": "infinite",
                "supportsInterface(bytes4)": "1189",
                "symbol()": "infinite",
                "tokenByIndex(uint256)": "infinite",
                "tokenOfOwnerByIndex(address,uint256)": "infinite",
                "tokenURI(uint256)": "infinite",
                "totalSupply()": "1119",
                "transferFrom(address,address,uint256)": "infinite"
            },
            "internal": {
                "getCandyPrice(uint256)": "17",
                "getETHPrice(uint256)": "37",
                "mintItem(address,string memory)": "infinite"
            }
        },
        "methodIdentifiers": {
            "_candy()": "c7a82420",
            "_coef()": "0751d4d1",
            "approve(address,uint256)": "095ea7b3",
            "balanceOf(address)": "70a08231",
            "baseURI()": "6c0360eb",
            "getApproved(uint256)": "081812fc",
            "getCurrentERC20Price(uint256)": "db65aa19",
            "getCurrentEthPrice(uint256)": "ac7808d8",
            "gitcoin()": "05f02ff2",
            "isApprovedForAll(address,address)": "e985e9c5",
            "limit()": "a4d66daf",
            "merch(uint256)": "393b4508",
            "merchERC20Price(uint256)": "776cf2af",
            "merchETHprice(uint256)": "1160846b",
            "name()": "06fdde03",
            "ownerOf(uint256)": "6352211e",
            "requestMint(uint256,address)": "ff322ba1",
            "requestMintWithToken(uint256,address,uint256)": "1f8a9d05",
            "safeTransferFrom(address,address,uint256)": "42842e0e",
            "safeTransferFrom(address,address,uint256,bytes)": "b88d4fde",
            "setApprovalForAll(address,bool)": "a22cb465",
            "supportsInterface(bytes4)": "01ffc9a7",
            "symbol()": "95d89b41",
            "tokenByIndex(uint256)": "4f6ccce7",
            "tokenOfOwnerByIndex(address,uint256)": "2f745c59",
            "tokenURI(uint256)": "c87b56dd",
            "totalSupply()": "18160ddd",
            "transferFrom(address,address,uint256)": "23b872dd"
        }
    },
    "abi": [
        {
            "inputs": [
                {
                    "internalType": "address",
                    "name": "candy_",
                    "type": "address"
                }
            ],
            "stateMutability": "nonpayable",
            "type": "constructor"
        },
        {
            "anonymous": false,
            "inputs": [
                {
                    "indexed": true,
                    "internalType": "address",
                    "name": "owner",
                    "type": "address"
                },
                {
                    "indexed": true,
                    "internalType": "address",
                    "name": "approved",
                    "type": "address"
                },
                {
                    "indexed": true,
                    "internalType": "uint256",
                    "name": "tokenId",
                    "type": "uint256"
                }
            ],
            "name": "Approval",
            "type": "event"
        },
        {
            "anonymous": false,
            "inputs": [
                {
                    "indexed": true,
                    "internalType": "address",
                    "name": "owner",
                    "type": "address"
                },
                {
                    "indexed": true,
                    "internalType": "address",
                    "name": "operator",
                    "type": "address"
                },
                {
                    "indexed": false,
                    "internalType": "bool",
                    "name": "approved",
                    "type": "bool"
                }
            ],
            "name": "ApprovalForAll",
            "type": "event"
        },
        {
            "anonymous": false,
            "inputs": [
                {
                    "indexed": true,
                    "internalType": "address",
                    "name": "from",
                    "type": "address"
                },
                {
                    "indexed": true,
                    "internalType": "address",
                    "name": "to",
                    "type": "address"
                },
                {
                    "indexed": true,
                    "internalType": "uint256",
                    "name": "tokenId",
                    "type": "uint256"
                }
            ],
            "name": "Transfer",
            "type": "event"
        },
        {
            "inputs": [],
            "name": "_candy",
            "outputs": [
                {
                    "internalType": "address",
                    "name": "",
                    "type": "address"
                }
            ],
            "stateMutability": "view",
            "type": "function"
        },
        {
            "inputs": [],
            "name": "_coef",
            "outputs": [
                {
                    "internalType": "uint256",
                    "name": "",
                    "type": "uint256"
                }
            ],
            "stateMutability": "view",
            "type": "function"
        },
        {
            "inputs": [
                {
                    "internalType": "address",
                    "name": "to",
                    "type": "address"
                },
                {
                    "internalType": "uint256",
                    "name": "tokenId",
                    "type": "uint256"
                }
            ],
            "name": "approve",
            "outputs": [],
            "stateMutability": "nonpayable",
            "type": "function"
        },
        {
            "inputs": [
                {
                    "internalType": "address",
                    "name": "owner",
                    "type": "address"
                }
            ],
            "name": "balanceOf",
            "outputs": [
                {
                    "internalType": "uint256",
                    "name": "",
                    "type": "uint256"
                }
            ],
            "stateMutability": "view",
            "type": "function"
        },
        {
            "inputs": [],
            "name": "baseURI",
            "outputs": [
                {
                    "internalType": "string",
                    "name": "",
                    "type": "string"
                }
            ],
            "stateMutability": "view",
            "type": "function"
        },
        {
            "inputs": [
                {
                    "internalType": "uint256",
                    "name": "tokenId",
                    "type": "uint256"
                }
            ],
            "name": "getApproved",
            "outputs": [
                {
                    "internalType": "address",
                    "name": "",
                    "type": "address"
                }
            ],
            "stateMutability": "view",
            "type": "function"
        },
        {
            "inputs": [
                {
                    "internalType": "uint256",
                    "name": "index_",
                    "type": "uint256"
                }
            ],
            "name": "getCurrentERC20Price",
            "outputs": [
                {
                    "internalType": "uint256",
                    "name": "",
                    "type": "uint256"
                }
            ],
            "stateMutability": "view",
            "type": "function"
        },
        {
            "inputs": [
                {
                    "internalType": "uint256",
                    "name": "index_",
                    "type": "uint256"
                }
            ],
            "name": "getCurrentEthPrice",
            "outputs": [
                {
                    "internalType": "uint256",
                    "name": "",
                    "type": "uint256"
                }
            ],
            "stateMutability": "view",
            "type": "function"
        },
        {
            "inputs": [],
            "name": "gitcoin",
            "outputs": [
                {
                    "internalType": "address payable",
                    "name": "",
                    "type": "address"
                }
            ],
            "stateMutability": "view",
            "type": "function"
        },
        {
            "inputs": [
                {
                    "internalType": "address",
                    "name": "owner",
                    "type": "address"
                },
                {
                    "internalType": "address",
                    "name": "operator",
                    "type": "address"
                }
            ],
            "name": "isApprovedForAll",
            "outputs": [
                {
                    "internalType": "bool",
                    "name": "",
                    "type": "bool"
                }
            ],
            "stateMutability": "view",
            "type": "function"
        },
        {
            "inputs": [],
            "name": "limit",
            "outputs": [
                {
                    "internalType": "uint256",
                    "name": "",
                    "type": "uint256"
                }
            ],
            "stateMutability": "view",
            "type": "function"
        },
        {
            "inputs": [
                {
                    "internalType": "uint256",
                    "name": "",
                    "type": "uint256"
                }
            ],
            "name": "merch",
            "outputs": [
                {
                    "internalType": "string",
                    "name": "",
                    "type": "string"
                }
            ],
            "stateMutability": "view",
            "type": "function"
        },
        {
            "inputs": [
                {
                    "internalType": "uint256",
                    "name": "",
                    "type": "uint256"
                }
            ],
            "name": "merchERC20Price",
            "outputs": [
                {
                    "internalType": "uint256",
                    "name": "",
                    "type": "uint256"
                }
            ],
            "stateMutability": "view",
            "type": "function"
        },
        {
            "inputs": [
                {
                    "internalType": "uint256",
                    "name": "",
                    "type": "uint256"
                }
            ],
            "name": "merchETHprice",
            "outputs": [
                {
                    "internalType": "uint256",
                    "name": "",
                    "type": "uint256"
                }
            ],
            "stateMutability": "view",
            "type": "function"
        },
        {
            "inputs": [],
            "name": "name",
            "outputs": [
                {
                    "internalType": "string",
                    "name": "",
                    "type": "string"
                }
            ],
            "stateMutability": "view",
            "type": "function"
        },
        {
            "inputs": [
                {
                    "internalType": "uint256",
                    "name": "tokenId",
                    "type": "uint256"
                }
            ],
            "name": "ownerOf",
            "outputs": [
                {
                    "internalType": "address",
                    "name": "",
                    "type": "address"
                }
            ],
            "stateMutability": "view",
            "type": "function"
        },
        {
            "inputs": [
                {
                    "internalType": "uint256",
                    "name": "index_",
                    "type": "uint256"
                },
                {
                    "internalType": "address",
                    "name": "to",
                    "type": "address"
                }
            ],
            "name": "requestMint",
            "outputs": [],
            "stateMutability": "payable",
            "type": "function"
        },
        {
            "inputs": [
                {
                    "internalType": "uint256",
                    "name": "index_",
                    "type": "uint256"
                },
                {
                    "internalType": "address",
                    "name": "to",
                    "type": "address"
                },
                {
                    "internalType": "uint256",
                    "name": "amount_",
                    "type": "uint256"
                }
            ],
            "name": "requestMintWithToken",
            "outputs": [],
            "stateMutability": "nonpayable",
            "type": "function"
        },
        {
            "inputs": [
                {
                    "internalType": "address",
                    "name": "from",
                    "type": "address"
                },
                {
                    "internalType": "address",
                    "name": "to",
                    "type": "address"
                },
                {
                    "internalType": "uint256",
                    "name": "tokenId",
                    "type": "uint256"
                }
            ],
            "name": "safeTransferFrom",
            "outputs": [],
            "stateMutability": "nonpayable",
            "type": "function"
        },
        {
            "inputs": [
                {
                    "internalType": "address",
                    "name": "from",
                    "type": "address"
                },
                {
                    "internalType": "address",
                    "name": "to",
                    "type": "address"
                },
                {
                    "internalType": "uint256",
                    "name": "tokenId",
                    "type": "uint256"
                },
                {
                    "internalType": "bytes",
                    "name": "_data",
                    "type": "bytes"
                }
            ],
            "name": "safeTransferFrom",
            "outputs": [],
            "stateMutability": "nonpayable",
            "type": "function"
        },
        {
            "inputs": [
                {
                    "internalType": "address",
                    "name": "operator",
                    "type": "address"
                },
                {
                    "internalType": "bool",
                    "name": "approved",
                    "type": "bool"
                }
            ],
            "name": "setApprovalForAll",
            "outputs": [],
            "stateMutability": "nonpayable",
            "type": "function"
        },
        {
            "inputs": [
                {
                    "internalType": "bytes4",
                    "name": "interfaceId",
                    "type": "bytes4"
                }
            ],
            "name": "supportsInterface",
            "outputs": [
                {
                    "internalType": "bool",
                    "name": "",
                    "type": "bool"
                }
            ],
            "stateMutability": "view",
            "type": "function"
        },
        {
            "inputs": [],
            "name": "symbol",
            "outputs": [
                {
                    "internalType": "string",
                    "name": "",
                    "type": "string"
                }
            ],
            "stateMutability": "view",
            "type": "function"
        },
        {
            "inputs": [
                {
                    "internalType": "uint256",
                    "name": "index",
                    "type": "uint256"
                }
            ],
            "name": "tokenByIndex",
            "outputs": [
                {
                    "internalType": "uint256",
                    "name": "",
                    "type": "uint256"
                }
            ],
            "stateMutability": "view",
            "type": "function"
        },
        {
            "inputs": [
                {
                    "internalType": "address",
                    "name": "owner",
                    "type": "address"
                },
                {
                    "internalType": "uint256",
                    "name": "index",
                    "type": "uint256"
                }
            ],
            "name": "tokenOfOwnerByIndex",
            "outputs": [
                {
                    "internalType": "uint256",
                    "name": "",
                    "type": "uint256"
                }
            ],
            "stateMutability": "view",
            "type": "function"
        },
        {
            "inputs": [
                {
                    "internalType": "uint256",
                    "name": "tokenId",
                    "type": "uint256"
                }
            ],
            "name": "tokenURI",
            "outputs": [
                {
                    "internalType": "string",
                    "name": "",
                    "type": "string"
                }
            ],
            "stateMutability": "view",
            "type": "function"
        },
        {
            "inputs": [],
            "name": "totalSupply",
            "outputs": [
                {
                    "internalType": "uint256",
                    "name": "",
                    "type": "uint256"
                }
            ],
            "stateMutability": "view",
            "type": "function"
        },
        {
            "inputs": [
                {
                    "internalType": "address",
                    "name": "from",
                    "type": "address"
                },
                {
                    "internalType": "address",
                    "name": "to",
                    "type": "address"
                },
                {
                    "internalType": "uint256",
                    "name": "tokenId",
                    "type": "uint256"
                }
            ],
            "name": "transferFrom",
            "outputs": [],
            "stateMutability": "nonpayable",
            "type": "function"
        }
    ]
}